:100000000C94F71D0C941F1E0C941F1E0C94FB34B3
:100010000C94FB340C94FB340C941F1E0C941F1E88
:100020000C941F1E0C941F1E0C941F1E0C947335F1
:100030000C941F1E0C941F1E0C941F1E0C941F1E4C
:100040000C944B340C941F1E0C94BB340C949534BC
:100050000C941F1E0C941F1E0C941F1E0C941F1E2C
:100060000C942F360C941F1E6F6B0065727220006B
:1000700062745F6174200000000000000000000056
:100080000000000000000000000000000000000070
:100090000000000000000000000000000000000060
:1000A0000000000000000000000000000000000050
:1000B0000000000000000000000000FCFEFFFEFD4C
:1000C000030303030303030303030303030303FD06
:1000D000FEFFFEFC0000000000000000010B1D3EC2
:1000E0003E3E3E3E3E3E3E3E3E3E3E3E3E3E3E3E30
:1000F0001D0B01000000000000000080C0E8DCBE15
:100100003E3E3E3E3E3E3E3E3E3E3E3E3E3E3EBE8F
:10011000DCE8C080000000000000001F3F7FBFDF60
:10012000E0E0E0E0E0E0E0E0E0E0E0E0E0E0E0DFD0
:10013000BF7F3F1F00000000000000000000000122
:10014000030303030303030303030303030303FD85
:10015000FEFFFEFC000000000000000000081C3E46
:100160003E3E3E3E3E3E3E3E3E3E3E3E3E3E3E3EAF
:100170001D0901000000000000000080C0E8DCBE96
:100180003E3E3E3E3E3E3E3E3E3E3E3E3E3E3EBE0F
:10019000DCE8C080000000000000001F3F7FBFDFE0
:1001A000E0E0E0E0E0E0E0E0E0E0E0E0E0E0E0DF50
:1001B000BF7F3F1F00000000000000FCFEFFFEFDAF
:1001C000030303030303030303030303030303FD05
:1001D000FEFFFEFC0000000000000000010B1D3EC1
:1001E0003E3E3E3E3E3E3E3E3E3E3E3E3E3E3E3E2F
:1001F0001D0B01000000000000000080C0E8DCBE14
:100200003E3E3E3E3E3E3E3E3E3E3E3E3E3E3EBE8E
:10021000DCE8C080000000000000001F3F7F3F1F9F
:100220000000000000000000000000000000001FAF
:100230003F7F3F1F000000000000000000000000A2
:10024000000000000000000000000000000000FCB2
:10025000FEFFFEFC000000000000000000000000A7
:10026000000000000000000000000000000000038B
:10027000070F07030000000000000080C0E8DCBE9C
:100280003E3E3E3E3E3E3E3E3E3E3E3E3E3E3E3E8E
:100290001C080000000000000000001F3F7FBFDFBF
:1002A000E0E0E0E0E0E0E0E0E0E0E0E0E0E0E0C06E
:1002B0008000000000000000000000FCFEFFFEFDCA
:1002C000030303030303030303030303030303FD04
:1002D000FEFFFEFC0000000000000000010B1D3EC0
:1002E0003E3E3E3E3E3E3E3E3E3E3E3E3E3E3E3E2E
:1002F0001D0B01000000000000000080C0E8DCBE13
:100300003E3E3E3E3E3E3E3E3E3E3E3E3E3E3E3E0D
:100310001C080000000000000000001F3F7FBFDF3E
:10032000E0E0E0E0E0E0E0E0E0E0E0E0E0E0E0C0ED
:10033000800000000000000000000000000000013C
:10034000030303030303030303030303030303FD83
:10035000FEFFFEFC000000000000000000081C3E44
:100360003E3E3E3E3E3E3E3E3E3E3E3E3E3E3E3EAD
:100370001D0B010000000000000000E0F0F8F0E0BC
:10038000000000000000000000000000000000E08D
:10039000F0F8F0E0000000000000001F3F7FBFDF2A
:1003A000E0E0E0E0E0E0E0E0E0E0E0E0E0E0E0DF4E
:1003B000BF7F3F1F000000000000000000000001A0
:1003C000030303030303030303030303030303FD03
:1003D000FEFFFEFC00000000000000000000000026
:1003E000000000000000000000000000000000030A
:1003F000070F0703000000000000000000081C3E7B
:100400003E3E3E3E3E3E3E3E3E3E3E3E3E3E3EBE8C
:10041000DCE8C0800000000000000000000080C098
:10042000E0E0E0E0E0E0E0E0E0E0E0E0E0E0E0DFCD
:10043000BF7F3F1F0000000000000000000000011F
:10044000030303030303030303030303030303FD82
:10045000FEFFFEFC000000000000000000081C3E43
:100460003E3E3E3E3E3E3E3E3E3E3E3E3E3E3E3EAC
:100470001D0B0100000000000000000000081C3EF1
:100480003E3E3E3E3E3E3E3E3E3E3E3E3E3E3EBE0C
:10049000DCE8C0800000000000000000000080C018
:1004A000E0E0E0E0E0E0E0E0E0E0E0E0E0E0E0DF4D
:1004B000BF7F3F1F00000000000000FCFEFFFEFDAC
:1004C00003030303030303030303030303030301FE
:1004D000000000000000000000000000010B1D3EB5
:1004E0003E3E3E3E3E3E3E3E3E3E3E3E3E3E3E3E2C
:1004F0001C080000000000000000000000000000D8
:10050000000000000000000000000000000000F0FB
:10051000F8FCF8F0000000000000000000000000FF
:100520000000000000000000000000000000001FAC
:100530003F7F3F1F0000000000000000000000009F
:10054000000000000000000000000000000000FCAF
:10055000FEFFFEFC000000000000000000000000A4
:100560000000000000000000000000000000000784
:100570000F1F0F070000000000000080C0E8DCBE75
:100580003E3E3E3E3E3E3E3E3E3E3E3E3E3E3EBE0B
:10059000DCE8C080000000000000001F3F7F3F1F1C
:1005A0000000000000000000000000000000001F2C
:1005B0003F7F3F1F00000000000000FCFEFFFEFC2C
:1005C000000000000000000000000000000000FC2F
:1005D000FEFFFEFC0000000000000000010B1D3EBD
:1005E0003E3E3E3E3E3E3E3E3E3E3E3E3E3E3E3E2B
:1005F0001D0B0100000000000000000000000000D2
:1006000000000000000000000000000000000000EA
:100610000000000000000000000082C262321E0ED6
:1006200000000000000000000000000000000000CA
:100630000000000000000000004262325E6E321EC8
:100640000E0000000000000000000000000000009C
:1006500000000000000000000000FEFE808080809E
:10066000000000000000000000000000000000008A
:1006700000000000000000000000FEFE8282828276
:10068000000000000000000000000000000000006A
:10069000000000000000000000FEFE82FEFE8282DC
:1006A000000000000000000000000000000000004A
:1006B0000000000000000000007A7A4A4A4A4E4ECC
:1006C000000000000000000000000000000000002A
:1006D0000000000000000000007E7E4242427E7E5C
:1006E000000000000000000000000000000000000A
:1006F0000000000000000000007E7E4848487E7E2A
:1007000000000000000000000000000000000000E9
:100710000000000000000000007E5E487E5E487E13
:100720007E0000000000000000000000000000004B
:100730000000000000000000004060301E1E30601D
:100740004000000000000000000000000000000069
:10075000000000000000000040603E5E603E1E6041
:100760004000000000000000000000000000000049
:10077000000000000000000000003C7E42427E3C81
:100780000000000000000000000000000000000069
:100790000000000000000000004262321E1E3262B3
:1007A0004200000000000000000000000000000007
:1007B000000000000000000042623E5E623E1E62D9
:1007C00042000000000000000000000000000000E7
:1007D0000000000000000000004464341E1E346469
:1007E00044000000000000000000000000000000C5
:1007F000000000000000000000008ACA6A3A1E0ED5
:1008000000000000000000000000000000000000E8
:100810000000000000000000007E7E4A4A4A4A4074
:1008200000000000000000000000000000000000C8
:10083000000000000000000000427E7E42427E7EFA
:100840004200000000000000000000000000000066
:10085000000000000000000000023A7E47477E3A98
:100860000200000000000000000000000000000086
:100870000000000000000000000000000000000078
:100880000000000000000000000000000000000068
:10089000000000000000000000000202020202024C
:1008A00002023E3E000000000000000000000000C8
:1008B000000000000000000000000202023E3E02B4
:1008C00002023E3E000000000000000000000000A8
:1008D000000000000000000000003E3E202020201C
:1008E0002020202000000000000000000000000088
:1008F000000000000000000000003E3E22222222F4
:10090000222222220000000000000000000000005F
:10091000000000000000000000003E3E2222003ED9
:100920003E22222200000000000000000000000023
:10093000000000000000000000003A3A2A2A2A2A9B
:100940002A2A2E2E000000000000000000000000F7
:1009500000000000000000000000003E3E222222B5
:10096000223E3E00000000000000000000000000E9
:10097000000000000000000000003E3E282828285B
:1009800028283E3E0000000000000000000000009B
:10099000000000000000000000003E3E28283E3E0F
:1009A00028283E3E0000000000000000000000007B
:1009B000000000000000000000002030180C0606B7
:1009C0000C183020000000000000000000000000B3
:1009D0000000000000000000000020301E1E30302B
:1009E0001E1E30200000000000000000000000007B
:1009F00000000000000000000000001C3E22222237
:100A0000223E1C000000000000000000000000006A
:100A10000000000000000000000022321A0E06064E
:100A20000E1A32220000000000000000000000004A
:100A30000000000000000000000022321A2E361ACA
:100A40000E0E322200000000000000000000000036
:100A50000000000000000000000024341C0C06060A
:100A60000C1C342400000000000000000000000006
:100A7000000000000000000000000A0A0A0A0A0A3A
:100A80000A0A3E3E000000000000000000000000D6
:100A9000000000000000000000003E3E2A2A2A2A32
:100AA0002A2A2A2A0000000000000000000000009E
:100AB0000000000000000000000022223E3E222232
:100AC0003E3E222200000000000000000000000066
:100AD00000000000000000000000021A3E26272748
:100AE000263E1A0200000000000000000000000086
:100AF00000000000000000000000000000000000F6
:100B000000000000000000000000000000000000E5
:100B100000000000000000000000020202020202C9
:100B200002023E3E00000000000000000000000045
:100B3000000000000000000000000202023E3E0231
:100B400002023E3E00000000000000000000000025
:100B5000000000000000000000003E3E2020202099
:100B60002020202000000000000000000000000005
:100B7000000000000000000000003E3E2222222271
:100B800022222222000000000000000000000000DD
:100B9000000000000000000000003E3E2222003E57
:100BA0003E222222000000000000000000000000A1
:100BB000000000000000000000003A3A2A2A2A2A19
:100BC0002A2A2E2E00000000000000000000000075
:100BD00000000000000000000000003E3E22222233
:100BE000223E3E0000000000000000000000000067
:100BF000000000000000000000003E3E28282828D9
:100C000028283E3E00000000000000000000000018
:100C1000000000000000000000003E3E28283E3E8C
:100C200028283E3E000000000000000000000000F8
:100C3000000000000000000000002030180C060634
:100C40000C18302000000000000000000000000030
:100C50000000000000000000000020301E1E3030A8
:100C60001E1E3020000000000000000000000000F8
:100C700000000000000000000000001C3E222222B4
:100C8000223E1C00000000000000000000000000E8
:100C90000000000000000000000022321A0E0606CC
:100CA0000E1A3222000000000000000000000000C8
:100CB0000000000000000000000022321A2E361A48
:100CC0000E0E3222000000000000000000000000B4
:100CD0000000000000000000000024341C0C060688
:100CE0000C1C342400000000000000000000000084
:100CF000000000000000000000000A0A0A0A0A0AB8
:100D00000A0A3E3E00000000000000000000000053
:100D1000000000000000000000003E3E2A2A2A2AAF
:100D20002A2A2A2A0000000000000000000000001B
:100D30000000000000000000000022223E3E2222AF
:100D40003E3E2222000000000000000000000000E3
:100D500000000000000000000000021A3E262727C5
:100D6000263E1A0200000000000000000000000003
:100D70000000000000000000000000000000000073
:100D80000000000000000000000000000000000063
:100D900000000000000000000002020202023E3ECD
:100DA0000000000000000000000000000000000043
:100DB000000000000000000002023E3E02023E3E33
:100DC0000000000000000000000000000000000023
:100DD0000000000000000000003E3E2020202020F7
:100DE00020000000000000000000000000000000E3
:100DF0000000000000000000003E3E2222222222CD
:100E000022000000000000000000000000000000C0
:100E10000000000000000000003E3E22223E3E2274
:100E200022000000000000000000000000000000A0
:100E30000000000000000000003A3A2A2A2A2E2E64
:100E400000000000000000000000000000000000A2
:100E50000000000000000000003E3E2222223E3E34
:100E60000000000000000000000000000000000082
:100E70000000000000000000003E3E2828283E3E02
:100E80000000000000000000000000000000000062
:100E90000000000000000000003E2E283E2E283EEC
:100EA0003E00000000000000000000000000000004
:100EB0000000000000000000002030180E0E183066
:100EC0002000000000000000000000000000000002
:100ED00000000000000000000020301E2E301E0E1A
:100EE00030200000000000000000000000000000B2
:100EF000000000000000000000001C3E22223E1CFA
:100F000000000000000000000000000000000000E1
:100F100000000000000000000022321A0E0E1A32FB
:100F2000220000000000000000000000000000009F
:100F3000000000000000000022321E2E321E0E3281
:100F4000220000000000000000000000000000007F
:100F500000000000000000000024341C0E0E1C34B1
:100F6000240000000000000000000000000000005D
:100F70000000000000000000000A0A0A0A0A0A3EF7
:100F80003E00000000000000000000000000000023
:100F90000000000000000000003E3E2A2A2A2A2A03
:100FA0000000000000000000000000000000000041
:100FB000000000000000000000223E3E22223E3ED3
:100FC00022000000000000000000000000000000FF
:100FD000000000000000000000021A3E27273E1A11
:100FE00002000000000000000000000000000000FF
:100FF00000000000000000000000000000000000F1
:1010000000000000000000000000000000000000E0
:1010100000000000000000000002020202023E3E4A
:1010200000000000000000000000000000000000C0
:10103000000000000000000002023E3E02023E3EB0
:1010400000000000000000000000000000000000A0
:101050000000000000000000003E3E202020202074
:101060002000000000000000000000000000000060
:101070000000000000000000003E3E22222222224A
:10108000220000000000000000000000000000003E
:101090000000000000000000003E3E22223E3E22F2
:1010A000220000000000000000000000000000001E
:1010B0000000000000000000003A3A2A2A2A2E2EE2
:1010C0000000000000000000000000000000000020
:1010D0000000000000000000003E3E2222223E3EB2
:1010E0000000000000000000000000000000000000
:1010F0000000000000000000003E3E2828283E3E80
:1011000000000000000000000000000000000000DF
:101110000000000000000000003E2E283E2E283E69
:101120003E00000000000000000000000000000081
:101130000000000000000000002030180E0E1830E3
:10114000200000000000000000000000000000007F
:1011500000000000000000000020301E2E301E0E97
:10116000302000000000000000000000000000002F
:10117000000000000000000000001C3E22223E1C77
:10118000000000000000000000000000000000005F
:1011900000000000000000000022321A0E0E1A3279
:1011A000220000000000000000000000000000001D
:1011B000000000000000000022321E2E321E0E32FF
:1011C00022000000000000000000000000000000FD
:1011D00000000000000000000024341C0E0E1C342F
:1011E00024000000000000000000000000000000DB
:1011F0000000000000000000000A0A0A0A0A0A3E75
:101200003E000000000000000000000000000000A0
:101210000000000000000000003E3E2A2A2A2A2A80
:1012200000000000000000000000000000000000BE
:10123000000000000000000000223E3E22223E3E50
:10124000220000000000000000000000000000007C
:10125000000000000000000000021A3E27273E1A8E
:10126000020000000000000000000000000000007C
:10127000000000000000000000000000000000006E
:10128000000000000000000000000000000000005E
:1012900000000000000000000082C262321E0E004A
:1012A000000000000000000000000000000000003E
:1012B00000000000000000004262325E6E321E0E2E
:1012C000000000000000000000000000000000001E
:1012D000000000000000000000FEFE808080808092
:1012E00000000000000000000000000000000000FE
:1012F000000000000000000000FEFE8282828200EA
:1013000000000000000000000000000000000000DD
:10131000000000000000000000FEFE82FEFE82824F
:1013200000000000000000000000000000000000BD
:101330000000000000000000007A7A4A4A4E4E0089
:10134000000000000000000000000000000000009D
:101350000000000000000000007E7E42427E7E0011
:10136000000000000000000000000000000000007D
:101370000000000000000000007E7E48487E7E00E5
:10138000000000000000000000000000000000005D
:1013900000000000000000007E5E487E5E487E0087
:1013A000000000000000000000000000000000003D
:1013B00000000000000000004060301E1E30604051
:1013C000000000000000000000000000000000001D
:1013D0000000000000000040603E5E603E1E604075
:1013E00000000000000000000000000000000000FD
:1013F0000000000000000000003C7E42427E3C00F5
:1014000000000000000000000000000000000000DC
:1014100000000000000000004262321E1E326242E4
:1014200000000000000000000000000000000000BC
:101430000000000000000042623E5E623E1E62400C
:10144000000000000000000000000000000000009C
:1014500000000000000000004464341E1E34644498
:10146000000000000000000000000000000000007C
:101470000000000000000000008ACA6A3A1E0E0048
:10148000000000000000000000000000000000005C
:101490000000000000000000007E7E4A4A4A4A0028
:1014A000000000000000000000000000000000003C
:1014B0000000000000000000427E7E427E7E42006E
:1014C000000000000000000000000000000000001C
:1014D0000000000000000000023A7E47477E3A020A
:1014E00000000000000000000000000000000000FC
:1014F00000000000000000000000000000000000EC
:1015000000000000000000000000000000000000DB
:1015100000000000000000000000020202020202BF
:1015200002023E3E0000000000000000000000003B
:10153000000000000000000000000202023E3E0227
:1015400002023E3E0000000000000000000000001B
:10155000000000000000000000003E3E202020208F
:1015600020202020000000000000000000000000FB
:10157000000000000000000000003E3E2222222267
:1015800022222222000000000000000000000000D3
:10159000000000000000000000003E3E2222003E4D
:1015A0003E22222200000000000000000000000097
:1015B000000000000000000000003A3A2A2A2A2A0F
:1015C0002A2A2E2E0000000000000000000000006B
:1015D00000000000000000000000003E3E22222229
:1015E000223E3E000000000000000000000000005D
:1015F000000000000000000000003E3E28282828CF
:1016000028283E3E0000000000000000000000000E
:10161000000000000000000000003E3E28283E3E82
:1016200028283E3E000000000000000000000000EE
:10163000000000000000000000002030180C06062A
:101640000C18302000000000000000000000000026
:101650000000000000000000000020301E1E30309E
:101660001E1E3020000000000000000000000000EE
:1016700000000000000000000000001C3E222222AA
:10168000223E1C00000000000000000000000000DE
:101690000000000000000000000022321A0E0606C2
:1016A0000E1A3222000000000000000000000000BE
:1016B0000000000000000000000022321A2E361A3E
:1016C0000E0E3222000000000000000000000000AA
:1016D0000000000000000000000024341C0C06067E
:1016E0000C1C34240000000000000000000000007A
:1016F000000000000000000000000A0A0A0A0A0AAE
:101700000A0A3E3E00000000000000000000000049
:10171000000000000000000000003E3E2A2A2A2AA5
:101720002A2A2A2A00000000000000000000000011
:101730000000000000000000000022223E3E2222A5
:101740003E3E2222000000000000000000000000D9
:1017500000000000000000000000021A3E262727BB
:10176000263E1A02000000000000000000000000F9
:101770000000000000000000000000000000000069
:101780000000000000000000000000000000000059
:10179000000000000000000000020202023E3E00C5
:1017A0000000000000000000000000000000000039
:1017B000000000000000000002023E3E02023E3E29
:1017C0000000000000000000000000000000000019
:1017D0000000000000000000003E3E2020202020ED
:1017E00000000000000000000000000000000000F9
:1017F0000000000000000000003E3E2222222200E5
:1018000000000000000000000000000000000000D8
:101810000000000000000000003E3E223E3E22226A
:1018200000000000000000000000000000000000B8
:1018300000000000000000003A3A2A2A2A2E2E005A
:101840000000000000000000000000000000000098
:1018500000000000000000003E3E2222223E3E002A
:101860000000000000000000000000000000000078
:1018700000000000000000003E3E2828283E3E00F8
:101880000000000000000000000000000000000058
:1018900000000000000000003E2E283E2E283E00E2
:1018A0000000000000000000000000000000000038
:1018B00000000000000000002030180E0E1830203C
:1018C0000000000000000000000000000000000018
:1018D000000000000000000020301E2E301E0E30E0
:1018E00020000000000000000000000000000000D8
:1018F0000000000000000000001C3E22223E1C00F0
:1019000000000000000000000000000000000000D7
:10191000000000000000000022321A0E0E1A3222CF
:1019200000000000000000000000000000000000B7
:101930000000000000000022321E2E321E0E322255
:101940000000000000000000000000000000000097
:10195000000000000000000024341C0E0E1C342483
:101960000000000000000000000000000000000077
:1019700000000000000000000A0A0A0A0A3E3E00B9
:101980000000000000000000000000000000000057
:101990000000000000000000003E3E2A2A2A2A0023
:1019A0000000000000000000000000000000000037
:1019B0000000000000000000223E3E223E3E2200C9
:1019C0000000000000000000000000000000000017
:1019D0000000000000000000021A3E27273E1A0205
:1019E00000000000000000000000000000000000F7
:1019F00000000000000000000000000000000000E7
:101A000000000000000000000000000000000000D6
:101A100000000000000000000000000000000000C6
:101A2000000000FEFE10100000000000000000009A
:101A30000000001F1F000000000000000000000068
:101A400000FEFE20FEFE000000000000000000007E
:101A5000000F0F001F1F000000000000000000002A
:101A6000000000FEFE4848000000000000000000EA
:101A70000000001F1F000000000000000000000028
:101A800000FEFE90FEFE00000000000000000000CE
:101A9000000F0F001F1F00000000000000000000EA
:101AA000101010FEFE00000000000000000000000A
:101AB0000000001F1F0000000000000000001010C8
:101AC00010FEFE00FEFE000000000000000000000E
:101AD000000F0F001F1F00000000000000000000AA
:101AE000282828FEFE000000000000000000000082
:101AF0000000001F1F000000000000000000282858
:101B000028FEFE00FEFE00000000000000000000B5
:101B1000000F0F001F1F0000000000000000808069
:101B20000000000000000000000404040404070793
:101B30000404040404000000000000008080000091
:101B40000000FEFE80800000000202020303020289
:101B500002001F1F00000000000000808000000045
:101B600000FEFE20FEFE000002020203030202024B
:101B7000020F0F001F1F0000000000008080000007
:101B8000000000FEFE000000000202020303020249
:101B90000202021F1F000000000000008080000001
:101BA0008080000000000000000404040707040413
:101BB000070704040400000000000000000000000B
:101BC00000000000000000000001010101013F3F92
:101BD0000101010101000000008080808080808080
:101BE000808000FEFE000000000000001F1F0000BB
:101BF0000404043F3F00000080808080808080805B
:101C000000FEFE00FEFE00000000000F0F000404B6
:101C1000041F1F003F3F0000008080808080808084
:101C2000808000FEFE000000000000001F1F00007A
:101C30000000003F3F000000000000000000000026
:101C40000000000000000000000101013F3F010111
:101C50003F3F010101000000000000000000000003
:101C60000000000000000000000404040404040458
:101C7000040404040404000000000000000000004C
:101C8000000000FEFE000000000101010101010151
:101C90000101001F1F000000000000000000000004
:101CA000000000FEFE000000000000000000000038
:101CB0000000001F1F0000000000000000000000E6
:101CC0000000000000000000000000000000000014
:101CD0000000000000000000000000000000000004
:101CE000000000FEFE1010000000000000000000D8
:101CF0000000001F1F0000000000000000000000A6
:101D000000FEFE20FEFE00000000000000000000BB
:101D1000000F0F001F1F0000000000000000000067
:101D2000000000FEFE484800000000000000000027
:101D30000000001F1F000000000000000000000065
:101D400000FEFE90FEFE000000000000000000000B
:101D5000000F0F001F1F0000000000000000000027
:101D6000101010FEFE000000000000000000000047
:101D70000000001F1F000000000000000000101005
:101D800010FEFE00FEFE000000000000000000004B
:101D9000000F0F001F1F00000000000000000000E7
:101DA000282828FEFE0000000000000000000000BF
:101DB0000000001F1F000000000000000000282895
:101DC00028FEFE00FEFE00000000000000000000F3
:101DD000000F0F001F1F00000000000000008080A7
:101DE00000000000000000000004040404040707D1
:101DF00004040404040000000000000080800000CF
:101E00000000FEFE808000000002020203030202C6
:101E100002001F1F00000000000000808000000082
:101E200000FEFE20FEFE0000020202030302020288
:101E3000020F0F001F1F0000000000008080000044
:101E4000000000FEFE000000000202020303020286
:101E50000202021F1F00000000000000808000003E
:101E60008080000000000000000404040707040450
:101E70000707040404000000000000000000000048
:101E800000000000000000000001010101013F3FCF
:101E900001010101010000000080808080808080BD
:101EA000808000FEFE000000000000001F1F0000F8
:101EB0000404043F3F000000808080808080808098
:101EC00000FEFE00FEFE00000000000F0F000404F4
:101ED000041F1F003F3F00000080808080808080C2
:101EE000808000FEFE000000000000001F1F0000B8
:101EF0000000003F3F000000000000000000000064
:101F00000000000000000000000101013F3F01014E
:101F10003F3F010101000000000000000000000040
:101F20000000000000000000000404040404040495
:101F30000404040404040000000000000000000089
:101F4000000000FEFE00000000010101010101018E
:101F50000101001F1F000000000000000000000041
:101F6000000000FEFE000000000000000000000075
:101F70000000001F1F000000000000000000000023
:101F80000000000000000000000000000000000051
:101F90000000000000000000000000000000000041
:101FA000000000FEFE101000000000000000000015
:101FB000000000010100000000000000000000001F
:101FC00000FEFE10FEFE0000000000000000000009
:101FD00000010100010100000000000000000000FD
:101FE000000000FEFE2828000000000000000000A5
:101FF00000000001010000000000000000000000DF
:1020000000FEFE50FEFE0000000000000000000088
:1020100000010100010100000000000000000000BC
:10202000101010FEFE000000000000000000000084
:10203000000000010100000000000000000010107E
:1020400010FEFE00FEFE0000000000000000000088
:10205000000101000101000000000000000000007C
:10206000282828FEFE0000000000000000000000FC
:102070000000000101000000000000000000002836
:1020800028FEFE00FEFE0000000000000000000030
:102090000001010001010000000000000000E0E07C
:1020A0000000000000000000000101010101010129
:1020B000010101010100000000000000C0C000009B
:1020C000000000FEFE1010000001010101010101ED
:1020D0000101000101000000000000C0C00000007C
:1020E00000FEFE10FEFE00000101010101010101E0
:1020F000000101000101000000000000C0C000005C
:10210000000000FEFE0000000001010101010101CC
:10211000010100010100000000000000C0C000003B
:10212000C0C0000000000000000101010101010128
:10213000010101010100000000808080808080801A
:102140008080808080000000000000000000030309
:1021500000000000000000000080808080808080FF
:10216000001010FEFE00000000000203010000004D
:10217000000000010100000080808080808080904D
:1021800010FEFE00FEFE0000000002030100000041
:1021900000010100010100000080808080808080BB
:1021A000808000FEFE00000000000203010000002D
:1021B000000000010100000000808080808080809D
:1021C0008080808080000000000000000303000089
:1021D00003030000000000000000000000000000F9
:1021E00000000000000000000001010101010101E8
:1021F00001010101010000000000000000000000DA
:10220000000000FEFE0000000001010101010101CB
:1022100001010001010000000000000000000000BA
:10222000000000FEFE0000000000000000000000B2
:10223000000000010100000000000000000000009C
:10224000000000000000000000000000000000008E
:10225000000000000000000000000000000000007E
:10226000000000FEFE101000000000000000000052
:10227000000000010100000000000000000000005C
:1022800000FEFE10FEFE0000000000000000000046
:10229000000101000101000000000000000000003A
:1022A000000000FEFE2828000000000000000000E2
:1022B000000000010100000000000000000000001C
:1022C00000FEFE50FEFE00000000000000000000C6
:1022D00000010100010100000000000000000000FA
:1022E000101010FEFE0000000000000000000000C2
:1022F00000000001010000000000000000001010BC
:1023000010FEFE00FEFE00000000000000000000C5
:1023100000010100010100000000000000000000B9
:10232000282828FEFE000000000000000000000039
:102330000000000101000000000000000000002873
:1023400028FEFE00FEFE000000000000000000006D
:102350000001010001010000000000000000E0E0B9
:102360000000000000000000000101010101010166
:10237000010101010100000000000000C0C00000D8
:10238000000000FEFE10100000010101010101012A
:102390000101000101000000000000C0C0000000B9
:1023A00000FEFE10FEFE000001010101010101011D
:1023B000000101000101000000000000C0C0000099
:1023C000000000FEFE00000000010101010101010A
:1023D000010100010100000000000000C0C0000079
:1023E000C0C0000000000000000101010101010166
:1023F0000101010101000000008080808080808058
:102400008080808080000000000000000000030346
:10241000000000000000000000808080808080803C
:10242000001010FEFE00000000000203010000008A
:10243000000000010100000080808080808080908A
:1024400010FEFE00FEFE000000000203010000007E
:1024500000010100010100000080808080808080F8
:10246000808000FEFE00000000000203010000006A
:1024700000000001010000000080808080808080DA
:1024800080808080800000000000000003030000C6
:102490000303000000000000000000000000000036
:1024A0000000000000000000000101010101010125
:1024B0000101010101000000000000000000000017
:1024C000000000FEFE000000000101010101010109
:1024D00001010001010000000000000000000000F8
:1024E000000000FEFE0000000000000000000000F0
:1024F00000000001010000000000000000000000DA
:1025000000000000000000000000000000000000CB
:1025100000000000000000000000000000000000BB
:10252000000000000000000000000000040404049B
:102530000404047C7C000000000000000000000097
:1025400000000000000000000000000404047C7C87
:102550000404047C7C000000000000000000000077
:1025600000000000000000000000000404047C7C67
:1025700040603C3C604000000000000000000000A3
:10258000000000000000000000000000007C7C4013
:1025900040404040400000000000000000000000FB
:1025A0000000000000000000000000007C7C4040B3
:1025B00044643C3C64440000000000000000000053
:1025C0000000000000000000000000007C7C404093
:1025D00028785C5C78280000000000000000000003
:1025E000000000000000000000000000007C7C44AF
:1025F0004444444444000000000000000000000087
:10260000000000000000000000000000007474548E
:102610005454545C5C000000000000000000000006
:102620000000000000000000000000007474545C12
:102630005C04047C7C00000000000000000000003E
:1026400000000000000000000000007474545C5C96
:10265000007C7C447C7C0000000000000000000046
:1026600000000000000000000000007474545C5C76
:10267000007C7C507C7C000000000000000000001A
:102680000000000000000000000000007474545CB2
:102690005C40603C3C604000000000000000000026
:1026A00000000000000000000000007474545C5C36
:1026B000007C7C5454540000000000000000000026
:1026C00000000000000000000000007474545C5C16
:1026D00000447C447C440000000000000000000036
:1026E00000000000000000000000007474545C5CF6
:1026F00028785C5C782800000000000000000000E2
:10270000000000000000000000000000007C7C448D
:102710004444447C7C0000000000000000000000F5
:10272000000000000000000000000000007C7C5061
:102730005050507C7C0000000000000000000000B1
:102740000000000000000000000000007C7C507CC5
:102750007C40603C3C604000000000000000000045
:102760000000000000000000000000004060301881
:102770000C0C183060400000000000000000000059
:102780000000000000000000000000004060305C1D
:102790007C301C1C30604000000000000000000085
:1027A0000000000000000000000000000000387C75
:1027B0004444447C38000000000000000000000099
:1027C0000000000000000000000000004848283819
:1027D00018183828484800000000000000000000D9
:1027E00000000000000000000000000048482838F9
:1027F0001C1C3828484800000000000000000000B1
:102800000000000000000000000000001414141478
:102810001414147C7C000000000000000000000084
:1028200000000000000000000000000000007C7CB0
:1028300054545454540000000000000000000000F4
:1028400000000000000000000000000000447C7C4C
:1028500044447C7C440000000000000000000000B4
:1028600000000000000000000000000000082878C0
:102870005C5C5C782808000000000000000000009C
:102880000000000000000000000000000000000048
:102890000000000000000000000000000000000038
:1028A0000000000000000000000000000404040418
:1028B0000404047C7C000000000000000000000014
:1028C00000000000000000000000000404047C7C04
:1028D0000404047C7C0000000000000000000000F4
:1028E00000000000000000000000000404047C7CE4
:1028F00040603C3C60400000000000000000000020
:10290000000000000000000000000000007C7C408F
:102910004040404040000000000000000000000077
:102920000000000000000000000000007C7C40402F
:1029300044643C3C644400000000000000000000CF
:102940000000000000000000000000007C7C40400F
:1029500028785C5C7828000000000000000000007F
:10296000000000000000000000000000007C7C442B
:102970004444444444000000000000000000000003
:10298000000000000000000000000000007474540B
:102990005454545C5C000000000000000000000083
:1029A0000000000000000000000000007474545C8F
:1029B0005C04047C7C0000000000000000000000BB
:1029C00000000000000000000000007474545C5C13
:1029D000007C7C447C7C00000000000000000000C3
:1029E00000000000000000000000007474545C5CF3
:1029F000007C7C507C7C0000000000000000000097
:102A00000000000000000000000000007474545C2E
:102A10005C40603C3C6040000000000000000000A2
:102A200000000000000000000000007474545C5CB2
:102A3000007C7C54545400000000000000000000A2
:102A400000000000000000000000007474545C5C92
:102A500000447C447C4400000000000000000000B2
:102A600000000000000000000000007474545C5C72
:102A700028785C5C7828000000000000000000005E
:102A8000000000000000000000000000007C7C440A
:102A90004444447C7C000000000000000000000072
:102AA000000000000000000000000000007C7C50DE
:102AB0005050507C7C00000000000000000000002E
:102AC0000000000000000000000000007C7C507C42
:102AD0007C40603C3C6040000000000000000000C2
:102AE00000000000000000000000000040603018FE
:102AF0000C0C1830604000000000000000000000D6
:102B00000000000000000000000000004060305C99
:102B10007C301C1C30604000000000000000000001
:102B20000000000000000000000000000000387CF1
:102B30004444447C38000000000000000000000015
:102B40000000000000000000000000004848283895
:102B50001818382848480000000000000000000055
:102B60000000000000000000000000004848283875
:102B70001C1C38284848000000000000000000002D
:102B800000000000000000000000000014141414F5
:102B90001414147C7C000000000000000000000001
:102BA00000000000000000000000000000007C7C2D
:102BB0005454545454000000000000000000000071
:102BC00000000000000000000000000000447C7CC9
:102BD00044447C7C44000000000000000000000031
:102BE000000000000000000000000000000828783D
:102BF0005C5C5C7828080000000000000000000019
:102C000000000000000000000000000000000000C4
:102C100000000000000000000000000000000000B4
:102C20000000000000000000000000000404040494
:102C3000040404047C7C000000000000000000008C
:102C40000000000000000000000000040404047CF8
:102C50007C0404047C7C00000000000000000000F4
:102C60000000000000000000000000040404047CD8
:102C70007C40603C3C604000000000000000000020
:102C8000000000000000000000000000007C7C400C
:102C900040404040404000000000000000000000B4
:102CA0000000000000000000000000007C7C4040AC
:102CB00044643C3C6444000000000000000000004C
:102CC00000000000000000000000007C7C4040404C
:102CD00028785C5C782800000000000000000000FC
:102CE000000000000000000000000000007C7C44A8
:102CF000444444444444000000000000000000003C
:102D00000000000000000000000000000074745487
:102D1000545454545C5C00000000000000000000AB
:102D20000000000000000000000000007474545C0B
:102D30005C0404047C7C0000000000000000000033
:102D400000000000000000000000007474545C5C8F
:102D5000007C7C447C7C000000000000000000003F
:102D600000000000000000000000007474545C5C6F
:102D7000007C7C507C7C0000000000000000000013
:102D80000000000000000000000000007474545CAB
:102D90005C40603C3C60400000000000000000001F
:102DA00000000000000000000000007474545C5C2F
:102DB000007C7C545454000000000000000000001F
:102DC00000000000000000000000007474545C5C0F
:102DD00000447C447C44000000000000000000002F
:102DE00000000000000000000000007474545C5CEF
:102DF0000028785C5C7828000000000000000000DB
:102E0000000000000000000000000000007C7C4486
:102E1000444444447C7C00000000000000000000AA
:102E2000000000000000000000000000007C7C505A
:102E3000505050507C7C000000000000000000005A
:102E40000000000000000000000000007C7C507CBE
:102E50007C40603C3C60400000000000000000003E
:102E6000000000000000000000000000406030187A
:102E70000C0C183060400000000000000000000052
:102E80000000000000000000000000004060305C16
:102E90007C301C1C3060400000000000000000007E
:102EA00000000000000000000000000000000038EA
:102EB0007C4444447C380000000000000000000016
:102EC0000000000000000000000000004848283812
:102ED00018183828484800000000000000000000D2
:102EE00000000000000000000000000048482838F2
:102EF0001C1C3828484800000000000000000000AA
:102F00000000000000000000000000000014141485
:102F1000141414147C7C0000000000000000000069
:102F200000000000000000000000000000007C7CA9
:102F30005454545454540000000000000000000099
:102F400000000000000000000000000044447C7C01
:102F500044447C7C44440000000000000000000069
:102F600000000000000000000000000000082878B9
:102F70005C5C5C5C78280800000000000000000039
:102F80000000000000000000000000000000000041
:102F90000000000000000000000000000000000031
:102FA0000000000000000000000004040404040409
:102FB00004047C7C00000000000000000000000011
:102FC000000000000000000000000404047C7C04F9
:102FD00004047C7C000000000000000000000000F1
:102FE000000000000000000000000404047C7C409D
:102FF000603C3C6040000000000000000000000059
:10300000000000000000000000007C7C40404040C8
:1030100040404040000000000000000000000000B0
:10302000000000000000000000007C7C40404044A4
:10303000643C3C644400000000000000000000000C
:10304000000000000000000000007C7C40404028A0
:10305000785C5C78280000000000000000000000A0
:10306000000000000000000000007C7C4444444458
:103070004444444400000000000000000000000040
:103080000000000000000000000074745454545408
:1030900054545C5C000000000000000000000000D0
:1030A000000000000000000000007474545C5C002C
:1030B00004047C7C00000000000000000000000010
:1030C000000000000000000000007474545C5C000C
:1030D0007C7C447C7C0000000000000000000000BC
:1030E000000000000000000000007474545C5C00EC
:1030F0007C7C507C7C000000000000000000000090
:10310000000000000000000000007474545C5C408B
:10311000603C3C6040000000000000000000000037
:10312000000000000000000000007474545C5C00AB
:103130007C7C54545400000000000000000000009B
:10314000000000000000000000007474545C5C008B
:10315000447C447C440000000000000000000000AB
:10316000000000000000000000007474545C5C2843
:10317000785C5C782800000000000000000000007F
:10318000000000000000000000007C7C4444444437
:1031900044447C7C000000000000000000000000AF
:1031A000000000000000000000007C7C50505050E7
:1031B00050507C7C00000000000000000000000077
:1031C000000000000000000000007C7C507C7C407F
:1031D000603C3C6040000000000000000000000077
:1031E00000000000000000000000406030180C0CDF
:1031F00018306040000000000000000000000000E7
:10320000000000000000000000004060305C7C30E6
:103210001C1C3060400000000000000000000000A6
:103220000000000000000000000000387C4444441E
:10323000447C380000000000000000000000000096
:10324000000000000000000000004868381808086E
:10325000183868480000000000000000000000006E
:1032600000000000000000000000486838180C0C46
:10327000183868480000000000000000000000004E
:1032800000000000000000000000141414141414C6
:1032900014147C7C0000000000000000000000000E
:1032A000000000000000000000007C7C54545454D6
:1032B00054545454000000000000000000000000BE
:1032C0000000000000000000000044447C7C4444F6
:1032D0007C7C44440000000000000000000000006E
:1032E000000000000000000000000828785C5C5C22
:1032F0005C782808000000000000000000000000CA
:1033000000000000000000F8041404041404F8078E
:1033100008090B0B090807F8FC6C7C7C6CFCF807AF
:103320000F0F0C0C0F0F0700F0F8F8F0F8F8F00092
:10333000000103070301000040E0F0F8F0E0400066
:1033400000000103010000E0E0F81C1CF8E0E000D0
:103350000004070704000060F0F8FCFCF8F06000CF
:1033600000040707040000000060F0F060000000A7
:103370000000000000000000FF1F0F0F0F1FFF00E4
:10338000FFFFFEFEFEFFFF0000E0101010E0000057
:103390000000010101000000FF1FEFEFEF1FFF0021
:1033A000FFFFFEFEFEFFFF000090487C48900000FB
:1033B000030408080804030030488484844830006B
:1033C0000202020F020202000000FC04087000006A
:1033D000060F0700000000000000FC141414FC009D
:1033E0000C1E0F00060F075050E0BCBCE05050010F
:1033F000010007070001010000FCF8F0E0400000B8
:1034000000070301000000000040E0F0F8FC0000AD
:1034100000000001030700001018FCFC1810000059
:10342000010307070301000000FCFC0000FCFC0096
:1034300000040400000404387C44FCFC04FCFC0090
:103440000000070700070700C4EE3A1232E6C40086
:1034500008191312171D08000000000000000000EA
:103460000E0E0E0E0E0E00001018FCFC18100008B8
:10347000090B0F0F0B0908001018FCFC18100000B6
:1034800000000707000000000000FCFC0000000036
:10349000010307070301000040404050F0E04000F6
:1034A000000000010100000040E0F05040404000FA
:1034B00000000101000000F800000000000000030F
:1034C0000202020202020240E050404050E040008E
:1034D00000010000010000000000C0F0C00000007A
:1034E00004070707070704001070F0F0F0701000E1
:1034F00000000107010000000000000000000000C3
:1035000000000000000000000038FCFC3800000053
:1035100000000D0D000000000E1E00001E0E000039
:103520000000000000000020F8F820F8F820000259
:103530000F0F020F0F0200387C444747CC9800065B
:103540000C0838380F070030300080C06030000CA5
:10355000060301000C0C0080D87CE4BCD8400007B6
:103560000F0808070F080000101E0E0000000000E2
:10357000000000000000000000F0F80C0400000053
:103580000003070C0800000000040CF8F000000025
:1035900000080C0703000080A0E0C0C0E0A080008D
:1035A00002030101030200008080E0E0808000004F
:1035B0000000030300000000000000000000000005
:1035C00000101E0E0000008080808080808000003F
:1035D00000000000000000000000000000000000EB
:1035E00000000C0C00000000000080C06030000CE7
:1035F00006030100000000F0F80CC40CF8F0000312
:10360000070C080C070300001018FCFC0000000069
:1036100008080F0F080800080C84C4643C18000E4A
:103620000F0908080C0C00080C444444FCB80004C2
:103630000C0808080F0700C0E0B098FCFC800000F0
:103640000000080F0F08007C7C444444C48400043C
:103650000C0808080F0700F0F84C4444C08000072D
:103660000F0808080F07000C0C0484C47C3C000001
:10367000000F0F00000000B8FC444444FCB80007F1
:103680000F0808080F0700387C444444FCF8000089
:103690000808080C0703000000003030000000009C
:1036A00000000606000000000000303000000000AE
:1036B00000080E060000000080C0603018080000FE
:1036C000000103060C08000020202020202000001C
:1036D000010101010101000008183060C0800000F4
:1036E000080C0603010000181C04C4E43C18000088
:1036F00000000D0D000000F0F808C8C8F8F0000741
:103700000F080B0B0B0100E0F0988C98F0E0000F15
:103710000F0000000F0F0004FCFC4444FCB800083C
:103720000F0F08080F0700F0F80C04040C18000332
:10373000070C08080C060004FCFC040CF8F0000858
:103740000F0F080C07030004FCFC44E40C1C0008E9
:103750000F0F08080C0E0004FCFC44E40C1C0008CD
:103760000F0F0800000000F0F80C84848C98000310
:10377000070C0808070F00FCFC404040FCFC000F51
:103780000F0000000F0F00000004FCFC040000000C
:1037900000080F0F08000000000004FCFC040007F4
:1037A0000F08080F07000004FCFCC0E03C1C0008E8
:1037B0000F0F00010F0E0004FCFC040000000008C5
:1037C0000F0F08080C0E00FCFC387038FCFC000FD2
:1037D0000F0000000F0F00FCFC3870E0FCFC000F35
:1037E0000F0000000F0F00F8FC040404FCF80007B1
:1037F0000F0808080F070004FCFC44447C3800084C
:103800000F0F0800000000F8FC040404FCF8000797
:103810000F080E3C3F270004FCFC44C4FC380008A1
:103820000F0F00000F0F00183C6444C49C180006E2
:103830000E0808080F0700001C0CFCFC0C1C000004
:1038400000080F0F080000FCFC000000FCFC000753
:103850000F0808080F0700FCFC000000FCFC00013A
:1038600003060C06030100FCFC00C000FCFC000782
:103870000F0E030E0F07000C3CF0E0F03C0C000CA8
:103880000F0301030F0C00003C7CC0C07C3C000017
:1038900000080F0F0800001C0C84C4643C1C000EC0
:1038A0000F0908080C0E000000FCFC0404000000D6
:1038B000000F0F080800003870E0C0800000000012
:1038C00000000103070E0000000404FCFC000000DF
:1038D0000008080F0F0000080C0603060C08000083
:1038E00000000000000000000000000000000020B8
:1038F00020202020202020000003070400000000DA
:103900000000000000000000A0A0A0E0C000000730
:103910000F0808070F080004FCFC2060C0800000AE
:103920000F0F08080F0700C0E020202060400007AC
:103930000F0808080C040080C06024FCFC0000078D
:103940000F0808070F0800C0E0A0A0A0E0C0000713
:103950000F0808080C040040F8FC440C180000088C
:103960000F0F0800000000C0E02020C0E02000276A
:103970006F48487F3F000004FCFC4020E0C0000886
:103980000F0F00000F0F00000020ECEC0000000003
:1039900000080F0F0800000000000020ECEC000001
:1039A000307040407F3F0004FCFC80C06020000875
:1039B0000F0F01030E0C00000004FCFC00000000CF
:1039C00000080F0F080000E0E060C060E0C0000FDA
:1039D0000F0007000F0F0020E0C02020E0C0000013
:1039E0000F0F00000F0F00C0E0202020E0C00007F4
:1039F0000F0808080F070020E0C02020E0C00040AA
:103A00007F7F48080F0700C0E02020C0E0200007AB
:103A10000F08487F7F400020E0C06020E0C0000821
:103A20000F0F080000000040E0A0202060400004CC
:103A30000C09090B0E04002020F8FC2020000000D7
:103A400000070F080C0400E0E00000E0E0000007C1
:103A50000F0808070F080000E0E00000E0E00000A9
:103A600003070C0C070300E0E0008000E0E0000723
:103A70000F0C070C0F07002060C080C060200008FA
:103A80000C0703070C0800E0E0000000E0E000473E
:103A90004F4848683F1F00606020A0E06020000C95
:103AA0000E0B09080C0C00004040F8BC0404000098
:103AB0000000070F080800000000BCBC0000000068
:103AC00000000F0F000000000404BCF8404000009C
:103AD00008080F0700000080C040C080C040000000
:103AE00000000000000000000006090600000000C1
:103AF00000000000000000AEB0C8001040813FA1EF
:103B0000A6A83FA4D300D5F0D922DA12DB208D1469
:103B1000AF630062006E0062746E616D65200062CA
:103B200074626175642000627470696E7320007045
:103B300000700062006F006F007600760073007303
:103B4000006D006D0043415053206D6F746F722CF7
:103B5000736572766F2C6F6C65642C6274005245CD
:103B600041445920626F6172643D756E6F6361728A
:103B70002066773D312E3000000000002300260033
:103B80002900524541445920626F6172643D756E4F
:103B90006F6361722066773D312E300000000000B7
:103BA000240027002A0000000000250028002B0028
:103BB00004040404040404040202020202020303D3
:103BC00003030303010204081020408001020408DB
:103BD000102001020408102000000008000201006B
:103BE000000304070000000000000000C03711249B
:103BF0001FBECFEFD8E0DEBFCDBF12E0A0E0B1E046
:103C0000E2E7FBE702C005900D92A837B107D9F7AC
:103C100024E0A8E7B2E001C01D92AF3BB207E1F794
:103C20001DE1C7EFDDE104C02197FE010E945F3D69
:103C3000C63FD107C9F70E9440380C94B73D0C9499
:103C4000000091E090930304809302041092010419
:103C50001092000408950895089590E0FC01E85240
:103C6000F44C2491FC01EC53F44C3491FC01E055EC
:103C7000F44CE491EE23C9F0222339F0233001F112
:103C8000A8F4213019F1223029F1F0E0EE0FFF1FE6
:103C9000EA55F44CA591B4918FB7F894EC91611169
:103CA00026C030953E233C938FBF08952730A9F05E
:103CB0002830C9F0243049F7809180008F7D03C0FF
:103CC000809180008F7780938000DFCF84B58F77DD
:103CD00084BDDBCF84B58F7DFBCF8091B0008F7723
:103CE0008093B000D2CF8091B0008F7DF9CF3E2B72
:103CF000DACFCF93DF9390E0FC01EC53F44C2491A6
:103D00008055944CFC0184918823D1F090E0880F79
:103D1000991FFC01E456F44CA591B491FC01EA55BD
:103D2000F44CC591D49161110EC09FB7F8948C9159
:103D3000E22FE0958E238C932881E223E8839FBFB6
:103D4000DF91CF9108958FB7F894EC91E22BEC932B
:103D50008FBFF6CF3FB7F8948091AA039091AB0341
:103D6000A091AC03B091AD0326B5A89B05C02F3F31
:103D700019F00196A11DB11D3FBFBA2FA92F982F91
:103D80008827BC01CD01620F711D811D911D42E08C
:103D9000660F771F881F991F4A95D1F708958F9254
:103DA0009F92AF92BF92CF92DF92EF92FF924B0120
:103DB0005C010E94AA1E6B017C010E94AA1E6C1964
:103DC0007D098E099F09683E734081059105A8F31E
:103DD00021E0821A9108A108B10888EEC80E83E09C
:103DE000D81EE11CF11C81149104A104B10429F72F
:103DF000FF90EF90DF90CF90BF90AF909F908F900B
:103E000008952FB7F8946091A6037091A70380914D
:103E1000A8039091A9032FBF0895DC01ED91FC91B7
:103E20000190F081E02D0994EF92FF920F931F9380
:103E3000CF93DF938C017B01D0E0C0E0F701EC0F62
:103E4000FD1F6491662361F0D801ED91FC91019012
:103E5000F081E02DC8010995892B11F02196EECF54
:103E6000CE01DF91CF911F910F91FF90EF900895B8
:103E7000AF92BF92CF92DF92EF92FF920F931F9378
:103E8000CF93DF936C017B018B01040F151FEB01B6
:103E90005E01AE18BF08C017D10759F06991D6016D
:103EA000ED91FC910190F081E02DC6010995892BDF
:103EB00079F7C501DF91CF911F910F91FF90EF909E
:103EC000DF90CF90BF90AF900895FC01538D448D4B
:103ED000252F30E0842F90E0821B930B541710F0B5
:103EE0004F96089501970895FC01918D828D981742
:103EF00079F0A28DAE0FBF2FB11D5D962C91828DF2
:103F00008F5F60E30E943F3D928F822F90E0089583
:103F10008FEF9FEF0895FC01918D828D981731F0FE
:103F2000828DE80FF11D858D90E008958FEF9FEF52
:103F30000895FC01918D228D892F90E0C096821BFF
:103F4000910960E370E00E944B3D089584E094E0A5
:103F50000E94991F21E0892B09F420E0822F089507
:103F600080E090E0892B29F00E94A61F81110C941B
:103F700000000895FC01A48DA80FB92FB11DA35B0B
:103F8000BF4F2C91848D90E001968F719927848F7B
:103F9000A689B7892C93A089B1898C91837080649C
:103FA0008C93938D848D981306C00288F389E02D3D
:103FB00080818F7D80830895EF92FF920F931F93EE
:103FC000CF93DF93EC0181E0888F9B8D8C8D9813CC
:103FD0001AC0E889F989808185FF15C09FB7F894D8
:103FE000EE89FF896083E889F98980818370806424
:103FF00080839FBF81E090E0DF91CF911F910F916F
:10400000FF90EF900895F62E0B8D10E00F5F1F4F7D
:104010000F711127E02E8C8D8E110CC00FB607FC8E
:10402000FACFE889F989808185FFF5CFCE010E941A
:10403000BA1FF1CFEB8DEC0FFD2FF11DE35BFF4FAE
:10404000F0829FB7F8940B8FEA89FB8980818062A8
:10405000CFCFCF93DF93EC01888D8823B9F0AA8965
:10406000BB89E889F9898C9185FD03C0808186FD33
:104070000DC00FB607FCF7CF8C9185FFF2CF808182
:1040800085FFEDCFCE010E94BA1FE9CFDF91CF911E
:10409000089520912103309122032817390771F4E4
:1040A0009091200380911F03981741F0E091200325
:1040B000F0E0E152FD4F808190E008958FEF9FEF97
:1040C00008950895EF92FF920F931F93CF93DF937C
:1040D000DC015C96ED90FC905D97E114F10479F4BD
:1040E00081E090E013969C938E93129790E080E08D
:1040F000DF91CF911F910F91FF90EF90089551960E
:10410000ED91FC91529750968C915097982F9095E5
:104110000FB75E962C915E97122F127021FD60955D
:10412000F8942081112319F1282B2083E70121978E
:10413000F1F728E0462F50E0308160FF1AC0382B9D
:104140003083E7012197F1F7BA0175956795215002
:1041500089F7112381F08081892380830FBF5C96CA
:104160008D919C910197F1F781E090E0C1CF2923D7
:10417000DCCF3923E5CF9081892BEFCF209121032C
:10418000309122032817390761F480911F03209191
:10419000200390E0805C9F4F821B91098F739927C9
:1041A000089590E080E0089520912103309122034A
:1041B00028173907B9F49091200380911F039817AD
:1041C00089F0E0912003F0E0E152FD4F80812091E1
:1041D000200330E02F5F3F4F2F73332720932003BE
:1041E00090E008958FEF9FEF08951F93CF93DF9393
:1041F000EC01162F60E0812F0E94791E8E8D81FDCB
:1042000004C061E0812F0E942D1E1C87812F90E049
:10421000FC01EC53F44CE491ED87FC01E055F44CC7
:10422000E491F0E0EE0FFF1FE858F44C8591949173
:104230009F878E87DF91CF911F9108951F93CF9312
:10424000DF93EC01162F6E8D6695617081E0682713
:10425000812F0E942D1E61E0812F0E94791E812FE7
:1042600090E0FC01EC53F44CE491E88BFC01E05548
:10427000F44CE491F0E0EE0FFF1FEA55F44C859109
:1042800094919A8B898BDF91CF911F910895E09142
:104290002103F0912203E817F90769F4A389B4898F
:1042A0009C918589809589238C931092220310928A
:1042B000210381E0089580E00895DC01EC91EC3069
:1042C00080F511968D919C9112972DE730E0281B77
:1042D000390B220F331F220F331F621773077CF035
:1042E00013968D919C9122EE34E0281B390B220FFE
:1042F000331F220F331F621773070CF49B012250E8
:104300003109220F331F4FB7F8948E2F90E0FC0134
:10431000EE0FFF1FE80FF91FEF58FB4F3283218389
:104320004FBF0895DC01ED91FC910190F081E02DEB
:1043300009942091BB02260F3327331F2132310508
:10434000ECF42091D803FC0190E080E0243069F087
:1043500082E00895A091BB022191AC0145565D4FCA
:10436000A40FB52FB11D2C930196861798F3809159
:10437000BB02680F6093BB0280E0089581E008955E
:104380001092D80381E08093D7031092D20361E0AA
:1043900082E10E942D1E61E083E10E942D1EE9EB67
:1043A000F0E080818E7F808380818D7F808388E4B0
:1043B0008093B80085E48093BC0008951092DF03D9
:1043C0001092DE0310920104109200040E94C0219A
:1043D0008BE29EE19093B1038093B0038CE29EE167
:1043E0009093AF038093AE030895CF93DF9391E052
:1043F00090939A028823B9F0C091B800D091BA0086
:104400008091BC008A7B8093BC0060E082E10E94C6
:104410002D1E60E083E10E942D1E0E94C021D093DA
:10442000BA00C093B800DF91CF910895E091DF0307
:104430008091DE03E81730F4F0E0E052FC4F808119
:1044400090E008958FEF9FEF08959091DF038091A2
:10445000DE032FEF3FEF981748F4E92FF0E0E0522A
:10446000FC4F208130E09F5F9093DF03C9010895E6
:104470008091DE039091DF03891B990B0895CF9201
:10448000DF92EF92FF920F931F93CF93DF937C0104
:10449000CB018A0120910304222389F0EB016B01F7
:1044A000C40ED51ECC15DD0569F06991D701ED91DB
:1044B000FC910190F081E02DC7010995F3CF642FA5
:1044C0000E949921C801DF91CF911F910F91FF9018
:1044D000EF90DF90CF900895CF93DF931F92CDB7E9
:1044E000DEB76983209103042223F9F020910004B0
:1044F000203258F021E030E0FC013383228390E049
:1045000080E00F90DF91CF91089580910104E82F12
:10451000F0E0E658FD4F998190838F5F809301040E
:104520008093000481E090E0ECCF61E0CE01019641
:104530000E949921F7CFCF92DF92EF92FF920F93D3
:104540001F93CF93DF93D091000481E0D13208F024
:104550009CC0C09102040E94AA1E6B017C01809144
:10456000D80381116CC082E08093D80381E08093EE
:10457000D7038FEF8093D6031092D503D093D40343
:10458000AAE7B2E0E2EBF3E080E0D8138DC010922E
:10459000D3038091D303CC0FC82BC093D303809156
:1045A000D203813009F084C01092D2030E94AA1E67
:1045B0006B017C018091D3038093BB008091DA036F
:1045C0009091DB03A091DC03B091DD03892B8A2B52
:1045D0008B2BA1F00E94AA1E0091DA031091DB033D
:1045E0002091DC033091DD036C197D098E099F0950
:1045F000061717072807390708F442C08091BC0046
:1046000083FDD8CF85EC8093BC000E94AA1E6B016D
:104610007C018091D803823009F44CC08091D6038C
:104620008F3F09F469C08091D603803209F466C0D7
:104630008091D603803309F463C084E026C0809162
:10464000DA039091DB03A091DC03B091DD03892BA9
:104650008A2B8B2B09F483CF0E94AA1E0091DA03C8
:104660001091DB032091DC033091DD036C197D098F
:104670008E099F09061717072807390708F06FCF1B
:104680008091D9030E94F52185E0109201041092D7
:10469000000410920304DF91CF911F910F91FF90BE
:1046A000EF90DF90CF9008959D9191938F5F6DCFA4
:1046B00085EEA9CF8091DA039091DB03A091DC0312
:1046C000B091DD03892B8A2B8B2B09F4A2CF0E949A
:1046D000AA1E0091DA031091DB032091DC033091D4
:1046E000DD036C197D098E099F0906171707280736
:1046F000390708F08ECFC4CF80E0C7CF82E0C5CFA6
:1047000083E0C3CF0F931F93CF93DF93082F162F10
:10471000C6EBD4E088810E94211E89819A81DC0148
:10472000ED91FC910190F081E02D602F0995898138
:104730009A81DC01ED91FC910190F081E02D612FD7
:10474000099589819A81DF91CF911F910F910C94E6
:104750009B2290E080E008959EEF980F923128F41C
:104760009EEE980F81E0923008F480E00895CF9299
:10477000DF92EF92FF92CF93E1E1F1E0C0E021916F
:10478000022E000C330B82179307D9F4C12CD12CC5
:104790007601141615061606170644F46A017B0105
:1047A0000E94011FC60ED71EE81EF91E84E0C89F96
:1047B000F0011124E357FC4FC082D182E282F382E0
:1047C00003C0CF5FC430D9F6CF91FF90EF90DF9058
:1047D000CF900895A1E1B1E0E0E02D91022E000C10
:1047E000330B8217930731F58E2F90E025E0E29F7F
:1047F000F0011124EE55FB4FE0812E2F30E0F9013E
:10480000EE0FFF1FE20FF31FEF58FB4F20812F7BAE
:104810002083FC01EF5EFE4F2FEF2083880F991F4E
:10482000880F991FFC01E357FC4F108211821282FE
:1048300013820895EF5FE43081F60895EF92FF92BE
:104840000F931F93CF93DF93E1E1F1E0DF01C0E02D
:104850002D91022E000C330B8217930771F485E023
:10486000C89FE0011124CE55DB4FCE01DF91CF91DF
:104870001F910F91FF90EF900895CF5FC43041F7E3
:1048800010E000E0219127FF6BC07C0185E0809F54
:10489000E001819FD00D1124CE55DB4F88818C30F3
:1048A00008F059C061E08E2D0E94791E8881282F62
:1048B00030E0F901EE0FFF1FE20FF31FEF58FB4F3F
:1048C0009081907C2E2D2F73922B90831A821982C7
:1048D0001C821B822CE0622F0E943F3D829FB00110
:1048E000112430E020E0AB01420F531FFA01EE0F1C
:1048F000FF1FE40FF51FEF58FB4F908196FD16C088
:104900002F5F3F4F2C30310571F781110FC010928E
:10491000800082E0809381001092850010928400D4
:10492000B19A80916F00826080936F0085E0809FD4
:10493000F001819FF00D1124EE55FB4FE0818E2F89
:1049400090E0FC01EE0FFF1FE80FF91FEF58FB4F3F
:10495000808180648083F801EF5EFE4FE08285CF26
:104960000F5F1F4F0430110509F08CCFD0E0C0E07D
:104970007CCF0F931F93CF93DF938B010E941E2454
:10498000EC01892B09F468C0D801093681E01807C9
:1049900014F0A8E6B1E0B7FF02C0B0E0A0E09D01CE
:1049A0000B2E000C440B550B0B351105B4F42AEEFD
:1049B00031E00E946D3D2AE530E040E050E00E9489
:1049C0001A3B2C503E4F4F4F5F4FB901CE01DF9144
:1049D000CF911F910F910C945D21053B11059CF423
:1049E0002A55310941095109A8E0B2E00E94393B3A
:1049F0002AE530E040E050E00E941A3B22523C4F52
:104A00004F4F5F4FE2CF0F3011409CF4245B3109D0
:104A100041095109AEEFB1E00E94393B2AE530E08F
:104A200040E050E00E941A3B2A513A4F4F4F5F4FEF
:104A3000CCCF2E50314041095109A0EEB1E00E9487
:104A4000393B2AE530E040E050E00E941A3B2C510F
:104A5000384F4F4F5F4FB9CFDF91CF911F910F91DB
:104A600008956091020170910301680F791F653B01
:104A7000710514F064EB70E077FF02C070E060E055
:104A800070930301609302018091090190E00C94FE
:104A9000B924DC01ED91FC910190F081E02D0994A5
:104AA000DF92EF92FF920F931F93CF93DF93182F14
:104AB000D62EF72EE42E052FC6EBD4E088810E9477
:104AC000211E84E0189FB00111246A5F7F4F898105
:104AD0009A810E9449256D2D7F2D89819A810E949E
:104AE00092216F2D70E089819A810E9492216E2D12
:104AF000702F89819A810E949221602F70E08981B4
:104B00009A810E94922189819A81DF91CF911F9190
:104B10000F91FF90EF90DF900C949B22CF93C82FC2
:104B20008CE30E94211E60E470E086E994E00E941C
:104B300049256C2F86E994E00E946C2286E994E076
:104B4000CF910C949B22CF93C82F8CE30E94211EFF
:104B500070E060E086E994E00E9449256C2F86E9C8
:104B600094E00E946C2286E994E0CF910C949B2201
:104B7000CF93C82F80EB860F0E94A325CC0FCC0FBC
:104B8000CC0FCE5F8C2F8E700E94A3258C2F829528
:104B90008F70805FCF910C94A3250F931F93CF93B9
:104BA000DF93D0E0C0E0BE0190E080E00E94B82535
:104BB00000E810E080E00E948E2501501109D1F735
:104BC0002196C830D10579F7DF91CF911F910F91D0
:104BD00008958F929F92AF92BF92CF92DF92EF9201
:104BE000FF920F931F93CF936091B9047091BA0411
:104BF0008091BB049091BC040E94883C20E030E08E
:104C00004AE75AE40E94E73B20E030E040E05FE3FF
:104C10000E94763B20E030E040E85FE30E94753B75
:104C20006B017C0120E030E040E450E40E94E23B74
:104C300087FD99C020E030E04FE753E4C701B6019B
:104C40000E943A3D181634F4C12CD12C9FE7E92E6E
:104C500093E4F92EC701B6010E94593CF62E8091CB
:104C6000B6040E94211E8091B7049091B804DC0123
:104C7000ED91FC910190F081E02D60E0099580912B
:104C8000B7049091B8040E949B22C091B6040E9480
:104C9000AA1E4B015C018091D80381116AC081E09A
:104CA0008093D8038093D7039FEF9093D6031092FD
:104CB000D5031092D4038093D3038091D303CC0FF8
:104CC000C82BC093D3038091D203813009F0ABC0CD
:104CD0001092D2030E94AA1E4B015C018091D30363
:104CE0008093BB008091DA039091DB03A091DC03F9
:104CF000B091DD03892B8A2B8B2BA1F00E94AA1E79
:104D00000091DA031091DB032091DC033091DD0385
:104D1000681979098A099B090617170728073907AF
:104D200008F448C08091BC0083FDD8CF85EC809307
:104D3000BC000E94AA1E4B015C018091D803813007
:104D400009F473C08091D503811191C08091D5037E
:104D5000E2EBF3E0A0EEB3E090E0981781F121914F
:104D60002D939F5FFACFC12CD12C80E4E82EFE2C2E
:104D700071CF8091DA039091DB03A091DC03B091B5
:104D8000DD03892B8A2B8B2B09F485CF0E94AA1E69
:104D90000091DA031091DB032091DC033091DD03F5
:104DA000681979098A099B0906171707280739071F
:104DB00008F071CF8091D9030E94F52180E0109214
:104DC000DF038093DE038091B7049091B804DC0187
:104DD000ED91FC910284F385E02D0995C82F682F91
:104DE0006F76606180E00E9482236F2D8EEF0E94BB
:104DF00082236C2F80E00E94822365E070E080E0D7
:104E000090E00E94CF1E6C2F606A80E0CF911F91CE
:104E10000F91FF90EF90DF90CF90BF90AF909F9059
:104E20008F900C94822385EE82CF8091DA0390914B
:104E3000DB03A091DC03B091DD03892B8A2B8B2B44
:104E400009F47BCF0E94AA1E0091DA031091DB03C4
:104E50002091DC033091DD03681979098A099B09E7
:104E6000061717072807390708F067CFA3CF81E097
:104E70006FCFAB016F3F9FE0790730F050E040E02B
:104E800060E070E10C945025672B11F440E050E194
:104E900070E060E0F7CF40E050E170E060E083E078
:104EA0000E94502540E050E170E060E084E00E9404
:104EB000502540E050E170E060E085E00C94502522
:104EC000DF92EF92FF920F931F93CF93DF9316160B
:104ED00017064CF0DF91CF911F910F91FF90EF904B
:104EE000DF900C94EA23D42E7B01EC010E941E2457
:104EF0008C01892B69F1D701A536B10514F0A4E620
:104F0000B0E0D1101FC028EE33E00E946D3D24E6D2
:104F100030E040E050E00E941A3B24523A4F4F4F9D
:104F20005F4FB901C8010E945D2140E050E0BA0125
:104F3000CE01DF91CF911F910F91FF90EF90DF9005
:104F40000C94B7239D01A8E1BCEF0E94653DDFCF23
:104F5000DF91CF911F910F91FF90EF90DF90089517
:104F6000DF92EF92FF920F931F93CF93DF9316166A
:104F700017064CF0DF91CF911F910F91FF90EF90AA
:104F8000DF900C94EA23D42E7B01EC010E941E24B6
:104F90008C01892B69F1D701A536B10514F0A4E67F
:104FA000B0E0DD20F9F028EE33E00E946D3D24E60C
:104FB00030E040E050E00E941A3B2056304F4F4F07
:104FC0005F4FB901C8010E945D2140E050E0BA0185
:104FD000CE01DF91CF911F910F91FF90EF90DF9065
:104FE0000C94B7239D01A8E1BCEF0E94653DDFCF83
:104FF000DF91CF911F910F91FF90EF90DF90089577
:1050000080917902811129C0809104018093B604B6
:1050100086E994E09093B8048093B7040E94DE215F
:1050200060E880E00E9482236AE070E080E090E027
:105030000E94CF1E0E94E92580E498E7ADE7B1E029
:105040008093B9049093BA04A093BB04B093BC04BA
:105050000E94E92581E0809379020895CF93C82FBB
:105060000E940028C23419F4CF910C944B2740E0E1
:1050700050E170E060E080E00E94502540E050E1A7
:1050800070E060E081E00E94502540E050E170E077
:1050900060E082E00E945025C13431F7CF9108953D
:1050A00080910C018130F9F480E00E942E2810924A
:1050B0009D0310929E0310929F031092A0031092E2
:1050C000A1031092A2031092A3031092A4031092C2
:1050D000890310928A0310928B0310928C0384E050
:1050E000809300010895823059F480910B0190E083
:1050F0000E94EA2380910A0190E00E94EA23E7CF10
:10510000833029F780910B01F7CFCF92DF92EF9296
:10511000FF92CF93DF93EC017B010E940028D7011F
:10512000A536B10514F0A4E6B0E0B7FF02C0B0E0C8
:10513000A0E02FEF3FE00E946D3D24E630E040E02C
:1051400050E00E941A3B69016FEF7FE0209711F455
:1051500070E060E083E00E943927B60184E00E949D
:10516000392770E060E0CD2B11F46FEF7FE085E030
:10517000DF91CF91FF90EF90DF90CF900C94392783
:10518000CF92DF92EF92FF92CF93DF93EC017B01FE
:105190000E940028D701A536B10514F0A4E6B0E0BE
:1051A000B7FF02C0B0E0A0E02FEF3FE00E946D3DEE
:1051B00024E630E040E050E00E941A3B690170E0D4
:1051C00060E0209711F46FEF7FE080E00E943927C4
:1051D000B60181E00E9439276FEF7FE0CD2B11F4FB
:1051E00070E060E082E0DF91CF91FF90EF90DF9080
:1051F000CF900C943927FB0101900020E9F73197FB
:10520000AF01461B570BDC01ED91FC910280F3814D
:10521000E02D09948F929F92AF92BF92EF92FF92EE
:105220000F931F93CF93DF93CDB7DEB7A1970FB640
:10523000F894DEBF0FBECDBF7C01FA01CB0119A2ED
:10524000223008F42AE08E010F5D1F4F822E912C30
:10525000B12CA12CBF01A50194010E94443BF9018E
:10526000CA016A300CF5605DD8016E938D01232B65
:10527000242B252B79F790E080E0109721F0BD01D9
:10528000C7010E94FB28A1960FB6F894DEBF0FBE9F
:10529000CDBFDF91CF911F910F91FF90EF90BF9005
:1052A000AF909F908F900895695CDECF0F931F930E
:1052B000CF93DF93EC010E94141F8C016DE871E025
:1052C000CE010E94FB28800F911FDF91CF911F918B
:1052D0000F910895CF93DF93EC016BE670E080911E
:1052E0000501909106010E94141FBE0180910501E5
:1052F00090910601DF91CF910C94562968E670E0F9
:1053000080910501909106010C9456298F929F92ED
:10531000AF92BF92CF92DF92EF92FF920F931F93C3
:10532000CF93DF934B015C017A018901C091420365
:10533000D0914303209709F434C11B8E1A8E198E25
:10534000188E1F8A1E8A60E079E08DE390E0A50147
:1053500094010E941A3BF901C901039724303105D9
:1053600010F481E090E09D8F8C8F6C85663108F0A1
:1053700054C0C901969587958431910508F48DC074
:1053800043979F8B8E8BC9010597369710F481E068
:1053900090E0998F888FC901880F991F280F391FB6
:1053A00036952795369527952D30310508F478C028
:1053B0002C5031093B8F2A8F9091680084E068302F
:1053C00048F021E06E3008F420E081E001C0880F51
:1053D0002A95EAF7892B809368009C852DE630E0BA
:1053E000983050F02BE630E09E3030F02CE630E084
:1053F000963110F030E020E03C8B2B8B292F30E0F1
:10540000983008F050C081E001C0880F9A95EAF703
:105410008D8B8C8D9D8D0197F1F78A8D9B8D892BBE
:10542000E1F08091210390912203C817D907A9F0D8
:10543000009711F00E9447218E8D8E7F8E8F1092E3
:105440001F0310922003D0932203C0932103EB8902
:10545000FC8980819D89892B808362E370E080E0F4
:1054600090E00E94CF1E8091420390914303DC01A3
:10547000ED91FC910084F185E02D0995A091420306
:10548000B0914303892BE1F0ED91FC9111970284D7
:10549000F385E02DCD010995E6CF81E090E071CF55
:1054A00021E030E087CF9E3040F42850310981E080
:1054B00001C0880F2A95EAF7ABCF2E503109F7CFFC
:1054C000B701CD010E94FB286DE871E08091420395
:1054D000909143030E94FB2860E770E080910501F2
:1054E000909106010E94141F0E94011F6B017C0114
:1054F000C0E04801B12CA12C0E94011F6C197D094C
:105500008E099F09681579058A059B0580F58091AC
:10551000420390914303DC01ED91FC910084F185FD
:10552000E02D0995892B41F380914203909143032B
:10553000DC01ED91FC910284F385E02D09958D301D
:1055400031F38A3059F4CC2311F360E280910501E4
:10555000909106010E940D1FC0E0D9CF682F809165
:105560000501909106010E940D1FCF5FD0CF6DE81D
:1055700071E080910501909106010E94FB288091C5
:10558000420390914303DF91CF911F910F91FF90C0
:10559000EF90DF90CF90BF90AF909F908F900C9442
:1055A0004721DF91CF911F910F91FF90EF90DF90F6
:1055B000CF90BF90AF909F908F90089585ED80938E
:1055C000BC008091DA039091DB03A091DC03B091E1
:1055D000DD030796A11DB11D23E0B695A79597950C
:1055E00087952A95D1F72091BC0024FD03C0109225
:1055F000D80308954091DA035091DB036091DC03F6
:105600007091DD03452B462B472B69F30097A105CD
:10561000B10541F02AE22A95F1F700C00197A109EE
:10562000B109E1CF8091D9030C94F5211F93CF9359
:10563000DF93EC01162F0E94043B181739F0612FFD
:10564000CE01DF91CF911F910C940C3BDF91CF9154
:105650001F9108959F92AF92BF92CF92DF92EF92E7
:10566000FF920F931F93CF93DF935C017B018B011C
:10567000D0E0C0E0F80191908F016501CC0EDD1EF5
:10568000C6010E94043B981621F0692DC6010E94B4
:105690000C3B2196C430D10569F7C701DF91CF914A
:1056A0001F910F91FF90EF90DF90CF90BF90AF9040
:1056B0009F900895CF92DF92EF92FF920F931F93E6
:1056C000CF93DF93EB017B0124E0E20EF11C8B0111
:1056D0006C01C61AD70AC601800F911F0E94043BB5
:1056E000F80181938F01EE15FF05A9F7CE01DF9137
:1056F000CF911F910F91FF90EF90DF90CF90089581
:10570000CF93DF93CDB7DEB728970FB6F894DEBFFF
:105710000FBECDBFBE016B5F7F4F90E080E00E9467
:105720005A2B8D819E81AF81B88581339246A445E5
:10573000B24491F181E392E6A4E5B2E489839A83CD
:10574000AB83BC83BE016F5F7F4F90E080E00E941F
:105750002A2B80E895E2A0E0B0E089839A83AB83AE
:10576000BC83BE016F5F7F4F84E090E00E942A2BD4
:1057700060E088E090E00E94162B63E08DE190E00D
:105780000E94162B64E08EE190E00E94162B61E0EF
:105790008FE190E00E94162B28960FB6F894DEBF9A
:1057A0000FBECDBFDF91CF9108950C94043B60E90B
:1057B00071E090E080E00E94BB3A009711F00C94F9
:1057C000763A90E080E00895CF93DF936FE871E040
:1057D00090E080E00E94BB3AEC01009781F0EC0180
:1057E000288101962032D9F3223269F4EC0162E279
:1057F00070E00E947F3D009711F0FC011082CE0105
:10580000DF91CF91089560E270E0CE01F2CF60E9C0
:1058100071E090E080E00E94BB3A009711F00C9498
:10582000943A60E070E0CB0108952F923F924F923E
:105830005F926F927F928F929F92AF92BF92CF9220
:10584000DF92EF92FF920F931F93CF93DF93CDB729
:10585000DEB7CE56D1090FB6F894DEBF0FBECDBF6E
:1058600080918403E82FF0E0EC5BFC4F10828823EA
:1058700009F457C084E094E09093060180930501F9
:1058800060E971E084E493E00E94BB3A8C010097E8
:1058900009F447C0E0900C01EE2009F4B0C062E9C1
:1058A00071E00E948A3D892B09F4BDC765E971E06A
:1058B000C8010E948A3D892B11F40C9448346AE98E
:1058C00071E0C8010E948A3D892B11F40C94403488
:1058D0006FE971E0C8010E948A3D892B09F4C9C7AC
:1058E00065EA71E0C8010E948A3D892B39F065E6BE
:1058F00072E0C8010E948A3D892B51F4F801808131
:10590000823409F0C2C785E090E00E94312509C0C9
:105910006DE572E0C8010E948A3D892BF1F40E9476
:10592000502810928403C259DF4F0FB6F894DEBF9F
:105930000FBECDBFDF91CF911F910F91FF90EF90E0
:10594000DF90CF90BF90AF909F908F907F906F909F
:105950005F904F903F902F90089546E050E067EAA7
:1059600071E0C8010E949A3D892B09F048C0C80126
:1059700006960E94763A97FD06C0853691052CF46E
:1059800080930101CECF80E0FBCF84E6F9CF22E007
:10599000E21221C041E083E0F81631F040E091E0EE
:1059A000F916A1F0FF20A1F0842FF42E482F10E06B
:1059B00080910B01B80190E00E94602780910A015C
:1059C0004F2DB80190E00E946027ABCF81E0EDCF72
:1059D000FF24F394ECCFE3E0EE12A3CFF11006C066
:1059E000602F70E080910B0141E0ECCFF1E0FF12FD
:1059F00098CF602F70E080910B0140E0E3CF6EEA1A
:105A000071E0C8010E948A3D6EE57BE3892B49F075
:105A100064EB71E0C8010E948A3D892B49F465E47A
:105A20007BE380910501909106010E94562979CF70
:105A30006AEB71E0C8010E948A3D892B09F009C117
:105A400060E971E090E080E00E94BB3A8C0183E461
:105A50009BE30115110509F4F9C060EC71E0C80180
:105A60000E948A3D892B81F40E94072C1616170686
:105A70001806190614F460930401109279020E942A
:105A800000280E947E294DCF66EC71E0C8010E947B
:105A90008A3D7C01892B09F04CC00E94D72B8C01D8
:105AA0000E94D72B5C010E94D72B6C010E94072C0F
:105AB0002B013C010130110589F10230110591F1F2
:105AC00091E080E00330110509F090E010E000E083
:105AD000E92EF82EB501C8010E94C028B601C70101
