:100000000C94E3020C940B030C940B030C942F0F31
:100010000C942F0F0C942F0F0C940B030C940B03C8
:100020000C940B030C940B030C940B030C940B0318
:100030000C940B030C940B030C940B030C940B0308
:100040000C947F0E0C940B030C94EF0E0C94C90EC1
:100050000C940B030C940B030C940B030C940B03E8
:100060000C94A70F0C940B03084AD73B3BCE016EB0
:1000700084BCBFFDC12F3D6C74319ABD56833DDAFF
:100080003D00C77F11BED9E4BB4C3E916BAAAABE0E
:10009000000000803F08000000BE922449123EABE1
:1000A000AAAA2ABECDCCCC4C3E00000080BEABAA92
:1000B000AAAA3E00000000BF000000803F00000030
:1000C0000000084178D3BB4387D1133D190E3CC3D0
:1000D000BD4282AD2B3E68EC8276BED98FE1A93E4F
:1000E0004C80EFFFBE01C4FF7F3F00000000000016
:1000F0004E414E494E495459494E46CDCCCC3D0A0D
:10010000D7233C17B7D13877CC2B329595E6241FEF
:10011000B14F0A000020410000C84200401C4620A8
:10012000BCBE4CCA1B0E5AAEC59D74657272206F60
:100130006C65645F6F6F6D00005EBCE2613FDD83E4
:10014000C29C7E20A3FD1F41009D23BE46DB65F8B7
:100150008C11AF32CA57E974524541445920626F3D
:100160006172643D756E6F2066773D312E33006598
:100170007272206D70755F6F6F6D0000000000235C
:100180000026002900000000000000000000005FC1
:1001900000000000000003000003000000147F14B2
:1001A0007F14000000242A7F2A1200000023130875
:1001B000646200000036495522500000000005032B
:1001C00000000000001C2241000000000041221C31
:1001D000000000000014083E081400000008083E5B
:1001E0000808000000005030000000000008080867
:1001F00008080000000060600000000000201008F7
:1002000004020000003E5149453E00000000427FCC
:100210004000000000426151494600000021414574
:100220004B310000001814127F10000000274545D4
:1002300045390000003C4A4949300000000171097D
:1002400005030000003649494936000000064949C7
:10025000291E00000000363600000000000056365F
:1002600000000000000814224100000000141414D3
:100270001414000000004122140800000002015183
:100280000906000000324979413E0000007E11114C
:10029000117E0000007F494949360000003E41417F
:1002A00041220000007F4141221C0000007F49499B
:1002B00049410000007F090901010000003E414161
:1002C00051320000007F0808087F00000000417FD5
:1002D00041000000002040413F010000007F081461
:1002E00022410000007F404040400000007F0204A7
:1002F000027F0000007F0408107F0000003E4141A3
:10030000413E0000007F090909060000003E4151FE
:10031000215E0000007F0919294600000046494976
:10032000493100000001017F01010000003F404011
:10033000403F0000001F2040201F0000007F2018C9
:10034000207F000000631408146300000003047899
:1003500004030000006151494543000000007F4153
:10036000410000000002040810200000000041418C
:100370007F00000000040201020400000040404031
:10038000404000000000010204000000002054541E
:1003900054780000007F484444380000003844444A
:1003A0004420000000384444487F00000038545482
:1003B0005418000000087E0901020000000C52528F
:1003C000523E0000007F0804047800000000447DD5
:1003D00040000000002040443D000000007F102845
:1003E000440000000000417F40000000007C041831
:1003F00004780000007C08040478000000384444BD
:1004000044380000007C1414140800000008141480
:10041000187C0000007C08040408000000485454C4
:100420005420000000043F4440200000003C4040B5
:10043000207C0000001C2040201C0000003C4030BC
:10044000403C00000044281028440000000C50509C
:10045000503C0000004464544C4400000000083646
:10046000410000000000007F000000000000413655
:100470000800000000020102040200000000000069
:10048000000000000065727220756E6B6E6F776EF3
:10049000200056414C20636F32200056414C2070A2
:1004A0006D73200056414C206469737420005641DE
:1004B0004C2064735F0056414C20646874200056E1
:1004C000414C20646874202D313237202D31005684
:1004D000414C20004F4B004F4B004F4B004F4B0007
:1004E00056414C2063616C726177200056414C206C
:1004F0000056414C200056414C200056414C20668D
:100500007720312E3300706F6E67004341505320C7
:1005100061726561642C64726561642C64777269D0
:1005200074652C70776D2C6D70752C6468742C64F8
:100530007331386232302C736F6E69632C706D7357
:100540002C636F322C6C63642C6F6C65642C6E654D
:100550006F2C616E616C6F672C63616C005245415A
:10056000445920626F6172643D756E6F2066773DFD
:10057000312E330000000000240027002A00000074
:100580000000250028002B000404040404040404D3
:10059000020202020202030303030303010204082E
:1005A00010204080010204081020010204081020DD
:1005B0000000000800020100000304070000000022
:1005C000000000000E1B11241FBECFEFD8E0DEBFDD
:1005D000CDBF24E0A0E8B2E001C01D92A83EB20762
:1005E000E1F712E0A0E0B1E0ECE5F7E602C005902B
:1005F0000D92A038B107D9F712E0C3EED2E004C0E3
:100600002197FE010E946632C23ED107C9F70E94BF
:10061000471B0C94AC330C940000833081F028F419
:10062000813099F08230A9F008958730A9F08830A0
:10063000C9F08430B1F4809180008F7D03C0809137
:1006400080008F7780938000089584B58F7784BD74
:10065000089584B58F7DFBCF8091B0008F77809314
:10066000B00008958091B0008F7DF9CF1F93CF9394
:10067000DF93282F30E0F901E055FA4F8491F9011A
:10068000E456FA4FD491F901E857FA4FC491CC23BC
:10069000A9F0162F81110E940D03EC2FF0E0EE0F50
:1006A000FF1FE258FA4FA591B4918FB7F894EC91DF
:1006B000111108C0D095DE23DC938FBFDF91CF915D
:1006C0001F910895DE2BF8CFCF93DF9390E0FC01CC
:1006D000E456FA4F249188579A4FFC01849188235D
:1006E000C9F090E0880F991FFC01EC58FA4FA591D2
:1006F000B491FC01E258FA4FC591D49161110DC03B
:100700009FB7F8948C91209582238C93888128231D
:1007100028839FBFDF91CF910895623051F49FB736
:10072000F8943C91822F809583238C93E8812E2B23
:10073000EFCF8FB7F894EC912E2B2C938FBFEACF8D
:100740008E3008F08E508770806480937C0080919A
:100750007A00806480937A0080917A0086FDFCCFD5
:10076000809178009091790008953FB7F894809136
:10077000130490911404A0911504B091160426B5A9
:10078000A89B05C02F3F19F00196A11DB11D3FBFC9
:10079000BA2FA92F982F8827BC01CD01620F711D98
:1007A000811D911D42E0660F771F881F991F4A9592
:1007B000D1F708958F929F92AF92BF92CF92DF921E
:1007C000EF92FF926B017C010E94B5034B015C012B
:1007D000C114D104E104F104B9F00E94B503681911
:1007E00079098A099B09683E73408105910580F368
:1007F00021E0C21AD108E108F10888EE880E83E0F2
:10080000981EA11CB11CE4CFFF90EF90DF90CF9019
:10081000BF90AF909F908F9008952FB7F8946091FC
:100820000F047091100480911104909112042FBF55
:10083000089508950895AF92BF92CF92DF92EF92FC
:10084000FF920F931F93CF93DF936C017B018B017A
:10085000040F151FEB015E01AE18BF08C017D107CA
:1008600059F06991D601ED91FC910190F081E02D54
:10087000C6010995892B79F7C501DF91CF911F91A9
:100880000F91FF90EF90DF90CF90BF90AF900895C1
:10089000FC01538D448D252F30E0842F90E0821B86
:1008A000930B541710F04F96089501970895FC018B
:1008B000918D828D981779F0A28DAE0FBF2FB11D4B
:1008C0005D962C91828D8F5F60E30E941332928F30
:1008D000822F90E008958FEF9FEF0895FC01918D96
:1008E000828D981731F0828DE80FF11D858D90E093
:1008F00008958FEF9FEF0895FC01918D228D892F30
:1009000090E0C096821B910960E370E00E941F3264
:10091000089587E694E00E947C0421E0892B09F485
:1009200020E0822F089580E090E0892B29F00E943A
:10093000890481110C9400000895FC01A48DA80F76
:10094000B92FB11DA35BBF4F2C91848D90E0019610
:100950008F719927848FA689B7892C93A089B18933
:100960008C91837080648C93938D848D981306C0D2
:100970000288F389E02D80818F7D80830895EF9236
:10098000FF920F931F93CF93DF93EC0181E0888F49
:100990009B8D8C8D98131AC0E889F989808185FF19
:1009A00015C09FB7F894EE89FF896083E889F989BB
:1009B00080818370806480839FBF81E090E0DF91BD
:1009C000CF911F910F91FF90EF900895F62E0B8D10
:1009D00010E00F5F1F4F0F711127E02E8C8D8E11CD
:1009E0000CC00FB607FCFACFE889F989808185FF32
:1009F000F5CFCE010E949D04F1CFEB8DEC0FFD2FC2
:100A0000F11DE35BFF4FF0829FB7F8940B8FEA89EB
:100A1000FB8980818062CFCF0F931F93CF93DF93A9
:100A20008C01D0E0C0E0F801EC0FFD1F649166235B
:100A300041F087E694E00E94BF04892B11F02196D3
:100A4000F2CFCE01DF91CF911F910F910895682FC2
:100A500087E694E00C94BF04CF93DF93EC01888D7C
:100A60008823B9F0AA89BB89E889F9898C9185FD29
:100A700003C0808186FD0DC00FB607FCF7CF8C91B7
:100A800085FFF2CF808185FFEDCFCE010E949D04CE
:100A9000E9CFDF91CF91089520914703309148032A
:100AA0002817390771F490914603809145039817F0
:100AB00041F0E0914603F0E0EB5FFC4F808190E075
:100AC00008958FEF9FEF08950895EF92FF920F938F
:100AD0001F93CF93DF93DC015C96ED90FC905D97C4
:100AE000E114F10479F481E090E013969C938E93E5
:100AF000129790E080E0DF91CF911F910F91FF90CE
:100B0000EF9008955196ED91FC91529750968C91EB
:100B10005097982F90950FB75E962C915E97122F55
:100B2000127021FD6095F8942081112319F1282B72
:100B30002083E7012197F1F728E0462F50E030812C
:100B400060FF1AC0382B3083E7012197F1F7BA0113
:100B500075956795215089F7112381F0808189234C
:100B600080830FBF5C968D919C910197F1F781E096
:100B700090E0C1CF2923DCCF3923E5CF9081892BA9
:100B8000EFCF20914703309148032817390761F4CC
:100B9000809145032091460390E0805C9F4F821B2B
:100BA00091098F739927089590E080E0089520912E
:100BB00047033091480328173907B9F49091460349
:100BC00080914503981789F0E0914603F0E0EB5FD0
:100BD000FC4F80812091460330E02F5F3F4F2F7301
:100BE00033272093460390E008958FEF9FEF0895F9
:100BF0000895FF920F931F93CF93DF93EC01FF248F
:100C0000F394F60E28852F1581F109851A85215058
:100C100041F16F3FE1F430E050E040E06FEF7FEFF3
:100C200080E090E00E944732B901F8014C815D817B
:100C3000CF01801B910B84179507B0F44081469F2C
:100C4000C001479F900D112490833196EFCF8F2DD7
:100C500090E0982F88270197622F70E00E941F3242
:100C6000E4CF70E060E0E1CFF886DF91CF911F9193
:100C70000F91FF9008958F929F92AF92BF92CF9263
:100C8000DF92EF92FF92CF93DF93FC0182819381F9
:100C900068177907D8F54A01AA24BB24C32ED42E9D
:100CA000E52EFF24DC2DC22F8085982D882391F01E
:100CB000C82FD0E0C89DD001C99DB00DD89DB00D02
:100CC00011249B2F8C9D60011124DD2D829F9001AA
:100CD0001124C32FA685218532858385A81321C0C1
:100CE000AB01440F551F640F751F620F731FA3855F
:100CF000A60FB72FB11D9C93A485A60FB72FB11DCA
:100D0000DC938585680F711DFB01C083DF91CF9156
:100D1000FF90EF90DF90CF90BF90AF909F908F901B
:100D20000895660F771F660F771F620F731FA60F58
:100D3000B72FB11D1C92DBCFCF92DF92EF92FF92C3
:100D40000F931F93CF93DF93CDB7DEB729970FB6DD
:100D5000F894DEBF0FBECDBF8C01DC0119968D91DA
:100D60009C91892B09F473C00E94B503F801C784D4
:100D7000D088E188F2886C157D058E059F0520F4EA
:100D80006787708B818B928BF801C784D088E1884C
:100D9000F2886C197D098E099F096C3271408105BA
:100DA000910510F3F894D80114968D919C911597A4
:100DB0009A8389831996ED91FC917F01BFEFEB1A1D
:100DC000FB0A80818987F80190810388F489E02DEE
:100DD000D80155968C91992309F448C09081982B9D
:100DE00098879081809589238F838F818C8388E079
:100DF0008B8358856F8149853B812C8189819A81BC
:100E0000D701508347FD252F3A952083262F39F0AF
:100E1000441F00C000006083000000C0F2CF38E033
:100E20004D9160830000019761F7D8015496FC93BF
:100E3000EE93539749873B832C839A8389837894D5
:100E40000E94B503F8016787708B818B928B29967E
:100E50000FB6F894DEBF0FBECDBFDF91CF911F91CB
:100E60000F91FF90EF90DF90CF9008959081982B95
:100E700098879081809589238F838F818E8388E0E6
:100E80008D8358856F8149853D812E8189819A8125
:100E9000D701508347FD252F00C000C0208300C02C
:100EA00000C000C000C000C060830000262F3A953B
:100EB00041F0441F000000C000C000C000C000C0DE
:100EC000E8CF38E04D9100C0608300C0019709F77A
:100ED000D8015496FC93EE93539749873D832E8314
:100EE000ACCF2091C202260F3327331F21323105A8
:100EF000ECF420913D04FC0190E080E0243069F0A6
:100F000082E00895A091C2022191AC014E555D4F3F
:100F1000A40FB52FB11D2C930196861798F38091DD
:100F2000C202680F6093C20280E0089581E00895D4
:100F300010923D0481E080933C041092170461E01C
:100F400082E10E94360361E083E10E943603E9EB0F
:100F5000F0E080818E7F808380818D7F808388E434
:100F60008093B80085E48093BC000895CF93DF930D
:100F700091E09093A1028823B9F0C091B800D0917C
:100F8000BA008091BC008A7B8093BC0060E082E163
:100F90000E94360360E083E10E9436030E949807B6
:100FA000D093BA00C093B800DF91CF9108958F928B
:100FB0009F92AF92BF92CF92DF92EF92FF920F93E8
:100FC0001F93CF93DF93D0916604D13208F0D7C03E
:100FD000182FC09165040E94B5036B017C018091BC
:100FE0003D0481116BC082E080933D0410933C046A
:100FF0008FEF80933B0410923A04D0933904A5E418
:10100000B4E0E9E1F4E080E0D81391C01092180454
:1010100080911804CC0FC82BC0931804809117043A
:10102000813009F088C0109217040E94B5036B014B
:101030007C01809118048093BB0080913F049091C3
:101040004004A0914104B0914204892B8A2B8B2B40
:10105000A1F00E94B50300913F041091400420913B
:101060004104309142046C197D098E099F090617CD
:1010700017072807390708F442C08091BC0083FD98
:10108000D8CF85EC8093BC000E94B5036B017C0136
:1010900080913D04823009F450C080913B048F3F21
:1010A00009F46FC080913B04803209F46CC08091D8
:1010B0003B04803309F469C084E026C080913F047A
:1010C00090914004A0914104B0914204892B8A2B55
:1010D0008B2B09F484CF0E94B50380903F0490903D
:1010E0004004A0904104B09042046C197D098E091F
:1010F0009F0986169706A806B90608F070CF80915A
:101100003E040E94B60785E01092440410926604E3
:1011100010924304DF91CF911F910F91FF90EF90B8
:10112000DF90CF90BF90AF909F908F9008959D914A
:1011300091938F5F69CF85EEA5CF80913F04909109
:101140004004A0914104B0914204892B8A2B8B2B3F
:1011500009F49ECF0E94B50300913F041091400412
:1011600020914104309142046C197D098E099F0938
:10117000061717072807390708F08ACFC0CF81E084
:10118000C3CF80E0C1CF82E0BFCF83E0BDCFE0918D
:101190004E0380914D03E81730F4F0E0EB51FD4F22
:1011A000808190E008958FEF9FEF089590914E0316
:1011B00080914D032FEF3FEF981748F4E92FF0E0AF
:1011C000EB51FD4F208130E09F5F90934E03C901AA
:1011D000089580914D0390914E03891B990B0895BA
:1011E000CF92DF92EF92FF920F931F93CF93DF93F3
:1011F0007C01CB018A0120914304222389F0EB0179
:101200006B01C40ED51ECC15DD0569F06991D701BF
:10121000ED91FC910190F081E02DC7010995F3CF8C
:10122000642F0E947107C801DF91CF911F910F9128
:10123000FF90EF90DF90CF900895CF93DF931F92B0
:10124000CDB7DEB76983209143042223F9F02091C2
:101250006604203258F021E030E0FC013383228321
:1012600090E080E00F90DF91CF9108958091440449
:10127000E82FF0E0EB5BFB4F998190838F5F8093C9
:1012800044048093660481E090E0ECCF61E0CE01FD
:1012900001960E947107F7CF81E00C94D70790E088
:1012A00080E00895CF93DF93C2E0D1E080910C04F9
:1012B00090910D04DC01ED91FC910084F185E02D0D
:1012C0000995892B09F44DC080910C0490910D046F
:1012D000DC01ED91FC910284F385E02D0995E0910C
:1012E000A002E11107C0823409F7D093A0028093D5
:1012F0008002DCCFE13039F48D3481F5C093A00257
:1013000080938102D3CF91E09E0F9093A002F0E0F2
:10131000E058FD4F8083903248F280918A0290918C
:101320008B0298278927982790935E0380935D030B
:1013300080918C0290918D0298278927982790930D
:101340005C0380935B0380918E0290918F029827BB
:101350008927982790935A03809359031092A002EB
:10136000A5CFDF91CF910895DC01ED91FC91019023
:10137000F081E02D0994FC01248131E03093430495
:101380002093650410924404109266048385682BB0
:1013900070E084ED94E00E94B40984ED94E00C9434
:1013A0004C09CF93C82F8091120191E09093430490
:1013B00080936504109244041092660470E060E02B
:1013C00084ED94E00E94B4096C2F84ED94E00E94B7
:1013D0001D0984ED94E0CF910C944C090F931F9359
:1013E000CF93DF93811101C08CE38093120162E3FC
:1013F00070E080E090E00E94DA038EEA0E94D1095A
:1014000085ED0E94D10980E80E94D10988EA0E94F6
:10141000D1098FE30E94D10983ED0E94D10980E0B8
:101420000E94D10980E40E94D1098DE80E94D1096F
:1014300084E10E94D10981EA0E94D10988EC0E94CE
:10144000D1098AED0E94D10982E10E94D10981E887
:101450000E94D1098FE70E94D10989ED0E94D1092C
:1014600081EF0E94D1098BED0E94D10980E40E9496
:10147000D10984EA0E94D10986EA0E94D1098EE24C
:101480000E94D10981E080935803C0E001E08C2FD5
:10149000806B0E94D10982E00E94D10980E10E9404
:1014A000D109D0E080911201009343048093650438
:1014B000109244041092660460E470E084ED94E0BD
:1014C0000E94B40910E160E084ED94E00E941D09DF
:1014D0001150C9F784ED94E00E944C09D05FD038D8
:1014E00009F7CF5FC83099F68FEADF91CF911F914E
:1014F0000F910C94D109CF92DF92EF92FF920F934C
:101500001F93CF93DF938091CB039091CC03892BD2
:1015100009F44DC080915803811104C080911201DB
:101520000E94EE09D0E0C0E0D12CCC24C3948D2DD4
:10153000806B0E94D10982E00E94D10980E10E9463
:10154000D1098E0100581F4FC017D10761F180915A
:101550001201C092430480936504109244041092D7
:10156000660460E470E084ED94E00E94B409F12C1C
:10157000E12CE091CB03F091CC03EE0DFF1DEC0FBD
:10158000FD1F608184ED94E00E941D098FEFE81A31
:10159000F80A80E1E816F10461F784ED94E00E9416
:1015A0004C096096D1CFD39488E0D812C0CFDF9198
:1015B000CF911F910F91FF90EF90DF90CF90089502
:1015C000FC0101900020E9F73197AF01481B590B4E
:1015D000BC0187E694E00C941B04CF93DF930E9438
:1015E0000C05EC0186E791E00E94E00A8C0F9D1F3C
:1015F000DF91CF9108958F929F92AF92BF920F93F8
:101600001F93CF93DF93CDB7DEB7A1970FB6F894B2
:10161000DEBF0FBECDBF19A2423008F44AE08E01F2
:101620000F5D1F4F842E912CB12CA12CA50194018C
:101630000E94852FE62FB901CA01EA30F4F4E05D7B
:10164000D801EE938D01232B242B252B79F790E0E5
:1016500080E0109719F0CD010E94E00AA1960FB624
:10166000F894DEBF0FBECDBFDF91CF911F910F91D8
:10167000BF90AF909F908F900895E95CE1CF009765
:1016800011F00C94E00A90E080E00895CF92DF9290
:10169000EF92FF92CF93DF936C01990FEE08FF0852
:1016A000F7FE1DC08DE20E942705EC016627772713
:1016B000CB016C197D098E099F094AE00E94FB0A43
:1016C000C80FD91F86E791E00E94E00A8C0F9D1F8A
:1016D000DF91CF91FF90EF90DF90CF9008954AE097
:1016E000C701B6010E94FB0AEC01ECCFCF92DF925A
:1016F000EF92FF92CF93DF936C01990FEE08FF08F2
:10170000F7FE17C08DE20E942705EC0166277727B8
:10171000CB016C197D098E099F094AE00E94FB0AE2
:101720008C0F9D1FDF91CF91FF90EF90DF90CF90B6
:1017300008954AE0C701B601DF91CF91FF90EF9085
:10174000DF90CF900C94FB0A4F925F926F927F9242
:101750008F929F92AF92BF92CF92DF92EF92FF92C1
:101760000F931F93CF936B017C01742EAC019B01EF
:101770000E940032882399F089E791E0CF911F9170
:101780000F91FF90EF90DF90CF90BF90AF909F9020
:101790008F907F906F905F904F900C94E00A46017D
:1017A0005701E894B7F82FEF3FEF4FE75FE7C50128
:1017B000B4010E94003281110DC02FEF3FEF4FE7BF
:1017C0005FE7C501B4010E943B2E18161CF48DE79B
:1017D00091E0D4CF2FEF3FEF4FE75FE4C701B601B1
:1017E0000E949F3118161CF481E891E0C7CF2FEFBB
:1017F0003FEF4FE75FECC701B6010E943B2E87FD2C
:10180000F3CF20E030E0A901C701B6010E943B2ED2
:1018100010E000E087FF08C08DE20E9427058C01E0
:10182000F7FAF094F7F8F094C0E060E070E080E040
:101830009FE37C1641F020E030E040E251E40E945A
:10184000D730CF5FF6CFA70196010E94F92F2B0169
:101850003C010E9449314B015C014AE00E94FB0AB5
:101860007C01E00EF11ECC23B1F1C501B4010E9450
:10187000402E9B01AC01C301B2010E94F82F4B0125
:101880005C018EE20E942705E80EF91EC15018F196
:1018900020E030E040E251E4C501B4010E94A12EF5
:1018A0002B013C010E9449314B01B12CA12C4AE093
:1018B000C501B4010E94FB0AE80EF91EC501B4017E
:1018C0000E94402E9B01AC01C301B2010E94F82F7F
:1018D0004B015C01DBCFC701CF911F910F91FF90AE
:1018E000EF90DF90CF90BF90AF909F908F907F90C0
:1018F0006F905F904F900895CF93DF930E94A40B59
:10190000EC0186E791E00E94E00A8C0F9D1FDF91B9
:10191000CF9108950F931F93CF938C01C62F0E94F0
:10192000BB096C2F6460C8010E94BB096C2F6B7FE0
:10193000C8010E94BB0983EC90E00197F1F7CF91B9
:101940001F910F9108950F931F93CF93DF938C01F5
:10195000D62FC42F607F642B0E948A0C80E1D89F11
:10196000B00111246C2BC801DF91CF911F910F9111
:101970000C948A0C41E00E94A30C81E090E0089551
:10198000CF93DF93CDB7DEB728970FB6F894DEBFBD
:101990000FBECDBF28E0EDE1F1E0DE011196019030
:1019A0000D922A95E1F7FC012185241710F44FEFE1
:1019B000420F50E0440F551F21E030E02C0F3D1F37
:1019C000420F531FFA012081620F606840E02896A1
:1019D0000FB6F894DEBF0FBECDBFDF91CF910C9450
:1019E000A30C40E061E00E94A30C8BE39FE1019710
:1019F000F1F70895CF93DF9365E871E090E080E020
:101A00000E949C2CEC010097A9F067E871E00E940D
:101A10009833892BA1F06AE871E0CE010E949833D7
:101A2000892B69F06CE871E0CE010E94983321E0C7
:101A3000892B09F020E0822FDF91CF91089521E0DA
:101A4000FACF8091CB039091CC03892BC1F480E035
:101A500094E00E946C329093CC038093CB03009768
:101A600031F48BE291E00E94ED0A80E0089520E0DD
:101A700034E0FC01A901119241505040E1F781E0AE
:101A800008950E94210D882361F0E091CB03F0912D
:101A9000CC0380E094E0DF019C011D922150304096
:101AA000E1F70895FF920F931F93CF93DF93182FC1
:101AB000F62E042F8091CD039091CE03009711F064
:101AC0000E9408338CE090E00E946C32EC011B8293
:101AD0001A8289E291E0998388831C83F8860987BA
:101AE0001A8618E01B87D093CE03C093CD03F092E3
:101AF00016010093150110924E0310924D0310929F
:101B00004404109266040E94980789E194E090933F
:101B10004A03809349038AE194E090934C038093B5
:101B20004B031D828985823008F01D839A85992395
:101B300029F0813019F48D8184608D8362E370E037
:101B400080E090E00E94DA036B85CE010E94BB0921
:101B500068EE73E080E090E00E94DA0360E3CE017B
:101B60000E948A0C0BE416E4C8010197F1F760E3C8
:101B7000CE010E948A0CC8010197F1F760E3CE0103
:101B80000E948A0C83E592E00197F1F760E2CE01B2
:101B90000E948A0C6D81606240E0CE010E94A30C1D
:101BA00084E08E8340E06CE0CE010E94A30CCE0165
:101BB0000E94F10C82E08F8340E066E0CE010E943B
:101BC000A30C40E062E0CE010E94A30C8BE39FE1F6
:101BD0000197F1F78091CD039091CE0328E0FC01AD
:101BE000238760E00E94BB098091CD039091CE03D2
:101BF000DF91CF911F910F91FF900C94F10C0F93F7
:101C00001F93CF93DF9390E080E00E945F2F813C91
:101C100089F0109265031092760310928703109258
:101C200098031092A9031092BA03DF91CF911F91EC
:101C30000F91089505E613E0C1E0D0E0CE010E94C7
:101C40005F2FF80181938F012196C736D105B1F737
:101C5000ECCF85ED8093BC0080913F0490914004CF
:101C6000A0914104B09142040796A11DB11D23E04B
:101C7000B695A795979587952A95D1F72091BC00A1
:101C800024FD03C010923D04089540913F045091FB
:101C900040046091410470914204452B462B472B30
:101CA00069F30097A105B10541F02AE22A95F1F701
:101CB00000C00197A109B109E1CF80913E040C94C5
:101CC000B607009761F0FC0120812F7D213429F4B3
:101CD00001960E94752C0E9608950C94752C8EE03A
:101CE00090E0089565E871E090E080E00E949C2C0F
:101CF000009711F00C94752C90E080E008951F92ED
:101D00000F920FB60F9211242F933F938F939F93AF
:101D1000AF93BF9380910F0490911004A091110490
:101D2000B091120430910E0423E0230F2D3758F5A3
:101D30000196A11DB11D20930E0480930F04909372
:101D40001004A0931104B093120480911304909195
:101D50001404A0911504B09116040196A11DB11DA3
:101D60008093130490931404A0931504B093160465
:101D7000BF91AF919F918F913F912F910F900FBE87
:101D80000F901F90189526E8230F0296A11DB11DF4
:101D9000D2CF1F920F920FB60F9211242F933F9321
:101DA0004F935F936F937F938F939F93AF93BF9363
:101DB000EF93FF9387E694E00E949D04FF91EF91DB
:101DC000BF91AF919F918F917F916F915F914F9153
:101DD0003F912F910F900FBE0F901F9018951F925B
:101DE0000F920FB60F9211242F935F936F937F93EF
:101DF0008F939F93AF93BF93EF93FF93E0917704FB
:101E0000F09178048081E0917D04F0917E0482FD60
:101E100024C020818091800490E0019660E370E00E
:101E20000E941F3290918104981741F0E091800444
:101E3000F0E0E959FB4F258F80938004FF91EF91EB
:101E4000BF91AF919F918F917F916F915F912F91F2
:101E50000F900FBE0F901F9018958081EFCF1F92AB
:101E60000F920FB60F9211242F933F934F935F93CE
:101E70006F937F938F939F93AF93BF93EF93FF9352
:101E8000E0914703F0914803309749F0A685B78564
:101E90008585968D91FF14C09C918923A1F4FF91B3
:101EA000EF91BF91AF919F918F917F916F915F91D2
:101EB0004F913F912F910F900FBE0F901F9018954B
:101EC0009C91892361F7A389B4899C918589809528
:101ED00089238C93868997890197F1F7608D718D9D
:101EE000A685B785558538E020E0CB010197F1F74D
:101EF000822F90E095958795282F4C91452309F0E6
:101F00002068315091F7868D81FD209580914503A1
:101F100090E001968F73992730914603381799F016
:101F2000A0914503B0E0AB5FBC4F2C938093450379
:101F3000828D938D0197F1F7A389B4898C9195894E
:101F4000892B8C93ACCF868D8160868FF1CF1F92C9
:101F50000F920FB60F9211242F933F934F935F93DD
:101F60006F937F938F939F93AF93BF93EF93FF9361
:101F70008091B900887F803609F44AC0F0F5883234
:101F800009F4A7C018F5803109F49BC0B8F4882380
:101F900009F4F9C0883009F494C0FF91EF91BF9122
:101FA000AF919F918F917F916F915F914F913F91F1
:101FB0002F910F900FBE0F901F901895883109F444
:101FC00088C0803251F780933B0414C0803409F4F8
:101FD0009DC040F48033B9F38833F9F680933B0415
:101FE00085ECB0C0803509F485C0883509F496C009
:101FF000883499F60E94290ED0CF883909F48CC014
:1020000038F5883729F050F4883611F0803729F6F2
:1020100083E080933D041092E40257C0883809F4AD
:102020007BC0803919F0803809F0B7CF8091E40285
:10203000803208F071C0E091E40281E08E0F80935D
:10204000E4028091BB00F0E0EC53FD4F80833DC083
:10205000803B39F0E0F4803A09F479C0883A09F01D
:102060009CCF84E080933D041092C3021092C20280
:10207000E0914903F0914A0309958091C2028111D0
:102080000FC081E08093C2021092A20209C0803C7E
:1020900009F4A6CF883C09F4A3CF883B09F07DCF93
:1020A000E091C30281E08E0F8093C302F0E0EE5511
:1020B000FD4F80818093BB009091C3028091C2024A
:1020C00029C0809118048093BB0085EC8093BC00EC
:1020D00064CF90913A0480913904981758F5E091B3
:1020E0003A0481E08E0F80933A04F0E0E75EFB4F04
:1020F0008081E9CFE0913A0481E08E0F80933A0429
:102100008091BB00F0E0E75EFB4F808390913A0442
:10211000809139049817C8F285E8D8CFE0913A0445
:1021200081E08E0F80933A048091BB00F0E0E75E7F
:10213000FB4F808380913C0481115CCF81E08093D0
:10214000170484EA8093BC0010923D0426CF85ECEE
:102150008093BC0010923D048091E402803230F400
:10216000E091E402F0E0EC53FD4F10826091E40254
:1021700070E0E0914B03F0914C0384EC92E0099500
:102180001092E4020ACF10923B0434CFCF92DF9238
:10219000EF92FF920F931F93E82FF92F05C0015084
:1021A00011092109310961F1908196239417B9F33E
:1021B00005C0015011092109310911F190819623BF
:1021C0009413F7CFC12CD12CE12CF12C0AC08FEF46
:1021D000C81AD80AE80AF80A0C151D052E053F058D
:1021E00079F080818623841791F36C2D7D2D8E2DBF
:1021F0009F2D1F910F91FF90EF90DF90CF9008954A
:1022000060E070E080E090E01F910F91FF90EF9010
:10221000DF90CF9008951F93CF93DF93EC01162F9B
:1022200060E0812F0E9464038E8D81FD04C061E017
:10223000812F0E9436031C87812F90E0FC01E45619
:10224000FA4FE491ED87FC01E857FA4FE491F0E092
:10225000EE0FFF1FE558FE4F859194919F878E8763
:10226000DF91CF911F9108951F93CF93DF93EC01DE
:10227000162F6E8D6695617081E06827812F0E9410
:10228000360361E0812F0E946403812F90E0FC01FE
:10229000E456FA4FE491E88BFC01E857FA4FE491D9
:1022A000F0E0EE0FFF1FE258FA4F859194919A8B60
:1022B000898BDF91CF911F910895FC0184E491E017
:1022C000918380838091470390914803E817F90731
:1022D00059F4A389B4899C918589809589238C932D
:1022E00010924803109247030895CF93DF93FC01A7
:1022F000828D938D892B41F1A0914703B0914803C2
:10230000AE17BF0709F1109751F05396CD91DC91AC
:102310005497988155968C91809589238883868DD2
:102320008E7F868F1092450310924603F0934803E8
:10233000E0934703A389B4898C919589892B8C9369
:1023400081E0DF91CF91089580E0FBCFFC01138EF7
:10235000128E118E108E178A168A8DE991E0958F54
:10236000848F84858631D8F52DEB30E0378B268B32
:102370002BE931E0318F208F2CE231E0338F228F37
:1023800090916800883070F121E08E3008F420E0F0
:1023900081E001C0880F2A95EAF7892B80936800B5
:1023A00084852DE630E0883050F02BE630E08E302A
:1023B00030F02CE630E0863110F030E020E0348B55
:1023C000238B282F30E0883078F491E001C0990FFA
:1023D0008A95EAF7958B848D958D0197F1F7CF015A
:1023E0000C94751184E0D9CF8E3040F42850310917
:1023F00091E001C0990F2A95EAF7ECCF2E503109F0
:10240000F7CFDC0180E0615090F09D919827E92F93
:10241000EF70F0E0E85CFE4F2491E92FE295EF7059
:10242000F0E0E85BFE4FE491822F8E27ECCF089519
:10243000DC012C911196ED91FC91F8948181822B15
:1024400081839281322F30959323928387E090E0AD
:102450000197F1F781818323818383E290E00197E3
:10246000F1F790817894EFECF0E03197F1F7922357
:1024700081E009F480E00895FC0190810180F281FF
:10248000E02D292F209560FF14C0F89482818223CB
:1024900082838181892B8183A3E2B0E01197F1F7D8
:1024A0008281982B9283789487ED90E00197F1F7E1
:1024B0000895F8948281822382838181892B81838C
:1024C000AFEFB0E01197F1F78281982B9283789467
:1024D0008FE090E0EBCFDF92EF92FF920F931F938C
:1024E000CF93DF93EC01D62EE42E08E010E0FF241A
:1024F000F39461E08D2D8F2109F460E0CE010E94FC
:102500003C12FF0C01501109A1F7E11010C0F89422
:10251000E981FA8191818881809589238183E9818C
:10252000FA81928188818095892382837894DF91D2
:10253000CF911F910F91FF90EF90DF900895EF9250
:10254000FF920F931F93CF93DF938C017B0140E0A9
:1025500065E50E946B12E70188E0E80EF11C6991C5
:1025600040E0C8010E946B12CE15DF05C1F7DF9174
:10257000CF911F910F91FF90EF900895FC019081F2
:102580000180F281E02DF8948181292F209582230A
:10259000818378943DE743E050E0315029F1DA013E
:1025A0001197F1F780818923C1F3F8948281822306
:1025B00082838181892B81837894ABE7B7E011977F
:1025C000F1F7F894818182238183A3E1B1E011972F
:1025D000F1F78081982381E009F080E07894E3E6C8
:1025E000F6E03197F1F7089580E008958F929F9279
:1025F000AF92BF92CF92DF92EF92FF92CF93DF9391
:10260000EC018E819F810E94BE1240E06CEC8E81B5
:102610009F810E946B12488164E48E819F810E9499
:102620006B128A81882371F1E981E9508EEEC82E00
:1026300082E0D82EE33038F4F0E0EE0FFF1FEF5CBD
:10264000FE4FC080D1808B81882339F18881811130
:1026500024C00E940D044B015C010D2C000CEE08FF
:10266000FF088E819F810E941812813059F00E94CC
:102670000D046C197D098E099F09681579058A0575
:102680009B0578F3DF91CF91FF90EF90DF90CF9093
:10269000BF90AF909F908F900895B601DD0C880B8E
:1026A000990BDF91CF91FF90EF90DF90CF90BF908B
:1026B000AF909F908F900C94DA036F927F928F92DD
:1026C0009F92AF92BF92CF92DF92EF92FF920F93C1
:1026D0001F93CF93DF93EC017B018A018E819F8151
:1026E0000E94BE12811102C090E037C0B7018E81F6
:1026F0009F810E949F1240E06EEB8E819F810E941D
:102700006B127801680189E0C80ED11CAE80BF80D1
:1027100088E0882E912C712C66246394C5010E9458
:10272000181281117628660CE1E08E1A9108B1F733
:10273000F70171927F01EC15FD0541F78E819F81B4
:102740000E94BE12813081F668E0C8010E94011229
:1027500091E0F80120852813C7CF892FDF91CF9111
:102760001F910F91FF90EF90DF90CF90BF90AF90AF
:102770009F908F907F906F900895CF93DF93CDB708
:10278000DEB729970FB6F894DEBF0FBECDBFAE01FE
:102790004F5F5F4F0E945D13882331F08D818F332F
:1027A000A9F020F48F31A1F080E007C08F3521F02F
:1027B0008F37D1F78CE001C08BE029960FB6F894E3
:1027C000DEBF0FBECDBFDF91CF9108958AE0F5CF78
:1027D00089E0F3CF8F929F92AF92BF92CF92DF9218
:1027E000EF92FF92CF93DC011796CC91179750E0B0
:1027F00061115C2F18962C91189730E0220F331F2F
:1028000025583E4F60E070E0CB01F901E590F4906F
:10281000F70140814C23451315C04B015C01FFEFCC
:102820008F1A9F0AAF0ABF0A1D96CD90DD90ED90DA
:10283000FC9050976C157D058E059F0568F060E053
:1028400070E0CB01CF91FF90EF90DF90CF90BF90E1
:10285000AF909F908F900895C501B401D6CF8F920D
:102860009F92AF92BF92CF92DF92EF92FF920F931F
:102870001F93CF93DF93CDB7DEB7C054D1400FB6CF
:10288000F894DEBF0FBECDBF8C010E940D04F8018D
:10289000C184D284E384F4849B01AC012C193D09EA
:1028A0004E095F0969017A0130EDC31637E0D3069E
:1028B000E104F104A8F48189C05CDE4F0FB6F894FE
:1028C000DEBF0FBECDBFDF91CF911F910F91FF9063
:1028D000EF90DF90CF90BF90AF909F908F90089532
:1028E0006187728783879487148213821282118290
:1028F000108261E085810E9436036AEF70E080E01B
:1029000090E00E94DA0361E0F80185810E9464038F
:1029100060E0F80185810E94360364E170E080E0A8
:1029200090E00E94DA03F89461E0F80185810E944A
:1029300036038BE990E00197F1F762E0F8018581B9
:102940000E94640383E290E00197F1F760E0C80120
:102950000E94EA13672B682B692B29F4F801118A6E
:10296000789480E0A9CF61E0C8010E94EA13672B48
:10297000682B692B99F39E012F5F3F4F79015E0110
:102980003FEBA31A3EEFB30A670160E0C8010E9463
:10299000EA13F601608371838283938361E0C80147
:1029A0000E94EA13F6016483758386839783F8E0B7
:1029B000CF0ED11CCA14DB0441F7789430E020E03C
:1029C000F70180809180A280B38044815581668127
:1029D000778181149104A104B10429F041155105B6
:1029E0006105710519F4F801118ABBCFF90183E083
:1029F000F595E7958A95E1F7E00FF11F8081880F43
:102A000084169506A606B706F0F080832F5F3F4F29
:102A1000F8E0EF0EF11C2832310591F6F8014481FF
:102A200020818181280F3327331F8281280F311D98
:102A30008381820F932F911D99274817190699F6C4
:102A400081E0818B39CF8160E0CF1F93CF93DF93FB
:102A5000EC01142F8881998121E02093430428E61A
:102A6000209365041092440410926604DC01ED91F9
:102A7000FC910190F081E02D099588819981DC011C
:102A8000ED91FC910190F081E02D612F09958881F5
:102A90009981DF91CF911F910C944C09BF92CF92F5
:102AA000DF92EF92FF920F931F93CF93DF93B82E95
:102AB0000E940D046B017C01D0E0C0E00FEF13E039
:102AC0000E940D046C197D098E099F0962337105FE
:102AD0008105910560F48B2D0E94A003801791075A
:102AE00008F48C01C817D90758F7EC01E9CFBE01EB
:102AF000601B710B072E000C880B990B0E94422E55
:102B000020E030E048EC52E40E94A12E20E030ECBE
:102B10004FE754E40E94D730DF91CF911F910F917E
:102B2000FF90EF90DF90CF90BF900895E091CB039E
:102B3000F091CC03309711F180389105F8F46034AE
:102B40007105E0F4DB01A770BB2721E030E001C094
:102B5000220FAA95EAF733E0759567953A95E1F764
:102B60007695762F662777956795860F971FE80FDE
:102B7000F91F8081442319F0282B20830895209584
:102B80002823FBCF2F923F924F925F926F927F92BA
:102B90008F929F92AF92BF92CF92DF92EF92FF926D
:102BA0000F931F93CF93DF9300D000D0CDB7DEB744
:102BB0007C017C836B834A0139018091CB03909126
:102BC000CC03892B09F455C08A010E191F0917FF80
:102BD00003C011950195110944244A94542CE8141A
:102BE000F9041CF444244394512C63012B813C814F
:102BF000C21AD30AD7FE03C0D194C194D108882742
:102C000099278C199D099A8389832B813C812224E1
:102C10002A94322C261537051CF422242394312CB7
:102C20005801AC18BD0841E06B817C81C7010E944E
:102C30009615E814F90429F48B819C818615970573
:102C4000C1F0C501880F991F29813A818217930726
:102C50003CF0AC18BD08E40CF51C081719071CF370
:102C6000A00EB11E8B819C81820D931D9C838B8352
:102C7000DACF0F900F900F900F90DF91CF911F91AF
:102C80000F91FF90EF90DF90CF90BF90AF909F900B
:102C90008F907F906F905F904F903F902F9008950E
:102CA000BF92CF92DF92EF92FF920F931F93CF9339
:102CB000DF93EC01B62EC72E8D85811105C0CE01A4
:102CC0000E94BE1281110EC01B861D861C8680E0EC
:102CD000DF91CF911F910F91FF90EF90DF90CF90F8
:102CE000BF90089540E060EFCE010E946B1201E0BA
:102CF000E12CD12C11E0CE010E941812F82ECE0149
:102D00000E94181291E0F91218C0813099F511341F
:102D1000D8F2DB86D11002C081E08D878B818823B9
:102D200099F22396EB2DFC2DCF0108962991219342
:102D3000E817F907D9F781E0CBCFEE2DF0E0F812D4
:102D40000FC08B851817A0F4DE01AE0FBF1F1396BE
:102D50008C91802379F4F12C193008F41C87D12E42
:102D6000EC0FFD1F8381902F9095892383830AC0E8
:102D70008113F1CFFE01EE0DF11D8381802B838342
:102D8000FF24F3946F2DCE010E943C121F5F000FB1
:102D900011F4E39401E087E08E1508F0ACCFB7CFD3
:102DA000DF92EF92FF920F931F93CF93DF937C01FB
:102DB0008B01D42EDC011696ED91FC9113861586BD
:102DC0001486128611861086178216821582148246
:102DD0001382C0E0B801F701868197810E945016E6
:102DE000D82F882329F0DC1629F0CF5FDC1690F766
:102DF000D0E009C067E0C8010E940112D80117960F
:102E00009C918913F2CF8D2FDF91CF911F910F915C
:102E1000FF90EF90DF9008952F923F924F925F9234
:102E20006F927F928F929F92AF92BF92CF92DF92DA
:102E3000EF92FF920F931F93CF93DF93CDB7DEB73F
:102E40002C970FB6F894DEBF0FBECDBF9C878B8743
:102E5000DC018D919C9121E02093430428E620938E
:102E6000650410924404109266046BE370E00E94C3
:102E7000B40980E00E94D7070E94B5036B017C0172
:102E800080913D04811165C081E080933D04809371
:102E90003C049FEF90933B0410923A049DE0909382
:102EA00039048093180480911804806D809318046D
:102EB00080911704813009F07DC3109217040E949D
:102EC000B5036B017C01809118048093BB00809155
:102ED0003F0490914004A0914104B0914204892B99
:102EE0008A2B8B2BA1F00E94B50300913F04109117
:102EF000400420914104309142046C197D098E09EF
:102F00009F09061717072807390708F443C080915F
:102F1000BC0083FDD8CF85EC8093BC000E94B50334
:102F20006B017C0180913D04813009F445C380919F
:102F30003A048E3008F062C380913A04E9E1F4E08B
:102F4000A5EEB2E090E0981751F121912D939F5F8B
:102F5000FACF80913F0490914004A0914104B09138
:102F60004204892B8A2B8B2B09F48ACF0E94B5034C
:102F700000913F041091400420914104309142049B
:102F80006C197D098E099F0906171707280739074D
:102F900008F076CF80913E040E94B60780E0109240
:102FA0004E0380934D03EB85FC8580819181DC018C
:102FB000ED91FC910284F385E02D0995182FEB85A6
:102FC000FC8580819181DC01ED91FC910284F38587
:102FD000E02D099520E0822B912BEB85FC859383D6
:102FE000828380819181DC01ED91FC910284F385E3
:102FF000E02D0995182FEB85FC8580819181DC01FE
:10300000ED91FC910284F385E02D099520E0822B5F
:10301000912BEB85FC859583848380819181DC01F4
:10302000ED91FC910284F385E02D0995182FEB8535
:10303000FC8580819181DC01ED91FC910284F38516
:10304000E02D099520E0822B912BEB85FC85978361
:10305000868380819181DC01ED91FC910284F3856E
:10306000E02D0995182FEB85FC8580819181DC018D
:10307000ED91FC910284F385E02D099520E0822BEF
:10308000912BEB85FC859187808780819181DC0184
:10309000ED91FC910284F385E02D0995182FEB85C5
:1030A000FC8580819181DC01ED91FC910284F385A6
:1030B000E02D099520E0822B912BEB85FC859387F1
:1030C000828780819181DC01ED91FC910284F385FE
:1030D000E02D0995182FEB85FC8580819181DC011D
:1030E000ED91FC910284F385E02D099520E0822B7F
:1030F000912BEB85FC859587848780819181DC010C
:10310000ED91FC910284F385E02D0995182FEB8554
:10311000FC8580819181DC01ED91FC910284F38535
:10312000E02D099520E0312F1901282A392AEB8555
:10313000FC853786268660857185072E000C880BF6
:10314000990B0E94422E20E030EF41E456E40E94A9
:10315000F92F20E030E04AEA53E40E94D730AB85F3
:10316000BC855C966D937D938D939C935F9712962F
:103170006D917C91072E000C880B990B0E94422EBA
:1031800020E030E040E858E30E94A12E4B015C01B2
:10319000EB85FC8580A291A2A2A2B3A26481758175
:1031A000072E000C880B990B0E94422E20E030E085
:1031B00040E858E30E94A12E6B017C01AB85BC85E1
:1031C0009496CD92DD92ED92FC92979716966D9122
:1031D0007C91072E000C880B990B0E94422E20E058
:1031E00030E040E858E30E94A12E2B013C01EB8522
:1031F000FC8540A651A662A673A620E030E0A90196
:10320000C501B4010E949F31A501940118160CF06C
:103210005058C301B2010E94F92F9B01AC01C701B4
:10322000B6010E9478300B851C850C5B1F4F20E097
:1032300030E044EB53E40E94A12E20E030E040E077
:103240005FE30E94A12E2BED3FE049E450E40E9491
:10325000D730D8016D937D938D939C93139720E085
:1032600030E0A901C701B6010E949F31181624F071
:10327000F7FAF094F7F8F094A7019601C301B201B0
:103280000E94F92F9B01AC01C501B4010E94783066
:103290000B851C85085B1F4F20E030E044EB53E4B6
:1032A0000E94A12E20E030E040E05FEB0E94A12EC2
:1032B0002BED3FE049E450E40E94D730F8016083F1
:1032C000718382839383AB85BC851C966D917C91C1
:1032D000072E000C880B990B0E94422E20E030E054
:1032E00043E852E40E94D7306B017C01EB85FC85FA
:1032F00062857385072E000C880B990B0E94422E65
:1033000020E030E043E852E40E94D730AB85BC8532
:1033100050962D913D914D915C9153970E94F82FBD
:10332000EB85FC8564A775A786A797A724893589AF
:1033300046895789C701B6010E94F82FAB85BC8525
:10334000D0966D937D938D939C93D397B101330C5D
:10335000880B990B0E94422E20E030E043E852E4B3
:103360000E94D730EB85FC85208D318D428D538DA9
:103370000E94F82FAB85BC85D4966D937D938D9379
:103380009C93D7970E940D04EB85FC85E05AFF4F74
:10339000FE83ED83C080D180E280F3806C197D09CB
:1033A0008E099F090E94402E2FE632E143E85AE33E
:1033B0000E94A12E2B013C01EB85FC85E45AFF4FB6
:1033C0004082518262827382AB85BC859C962D912E
:1033D0003D914D915C919F970E94A12E4B015C0104
:1033E000AC019B01EB85FC8560AD71AD82AD93AD09
:1033F0000E94F92FAB85BC85D8966D937D938D93F4
:103400009C93DB97D0962D913D914D915C91D397F4
:10341000C301B2010E94A12E6B017C01AC019B0192
:10342000EB85FC8564AD75AD86AD97AD0E94F92F37
:10343000AB85BC85DC966D937D938D939C93DF97D4
:10344000D4962D913D914D915C91D797C301B201D6
:103450000E94A12E6B847C84B0E46B0E711CF3017E
:1034600020813181428153810E94F92F6F837887B7
:1034700089879A87D3016D937D938D939C9313973E
:10348000EB85FC85E859FF4F408051806280738056
:10349000EB85FC85EC59FF4F80819181A281B3813E
:1034A00089839A83AB83BC832B843C8490E5290E6B
:1034B000311CD1012D913D914D915C91C501B4011B
:1034C0000E94F92FA30192010E94A12E4B015C01E1
:1034D000EB85FC85EC5BFF4F20813181428153817C
:1034E00069817A818B819C810E94A12E9B01AC0114
:1034F000C501B4010E94F92FF101608371838283B9
:103500009383AB84BC84F4E5AF0EB11CD5012D913F
:103510003D914D915C91C701B6010E94F92FA30125
:1035200092010E94A12E6B017C01F8012081318162
:103530004281538169817A818B819C810E94A12E75
:103540009B01AC01C701B6010E94F92FD5016D9313
:103550007D938D939C931397EB85FC85E85AFF4FE1
:103560008F819885A985BA8580839183A283B3834F
:103570000E940D04AD81BE816D937D938D939C93CC
:1035800013972C960FB6F894DEBF0FBECDBFDF9118
:10359000CF911F910F91FF90EF90DF90CF90BF9050
:1035A000AF909F908F907F906F905F904F903F90E3
:1035B0002F90089585EEB0CC80913F049091400407
:1035C000A0914104B0914204892B8A2B8B2B09F4E2
:1035D000A9CC0E94B50300913F04109140042091B2
:1035E0004104309142046C197D098E099F09061728
:1035F00017072807390708F095CCCCCC8EE09ECC75
:1036000065E871E090E080E00E949C2C009711F04A
:103610000C94712C60E070E0CB010895E7E6F4E0D3
:103620001382128288EE93E0A0E0B0E08483958359
:10363000A683B78326E531E03183208325EC30E093
:103640003587248724EC30E03787268720EC30E06C
:10365000318B208B21EC30E0338B228B22EC30E05D
:10366000358B248B26EC30E0378B268B118E128E17
:10367000138E148EE4EDF4E013821282848395831A
:10368000A683B78388E691E0918380830895CF93E2
:10369000DF93CDB7DEB7A3970FB6F894DEBF0FBEAA
:1036A000CDBF789484B5826084BD84B5816084BDCB
:1036B00085B5826085BD85B5816085BD80916E00D0
:1036C000816080936E001092810080918100826001
:1036D000809381008091810081608093810080913E
:1036E00080008160809380008091B100846080932D
:1036F000B1008091B00081608093B00080917A0029
:10370000846080937A0080917A00826080937A004E
:1037100080917A00816080937A0080917A0080683D
:1037200080937A001092C100E0917704F0917804C0
:1037300082E08083E0917304F09174041082E09140
:103740007504F091760480E1808310927F04E0910B
:103750007B04F0917C0486E08083E0917904F09111
:103760007A04808180618083E0917904F0917A0409
:10377000808188608083E0917904F0917A0480816F
:1037800080688083E0917904F0917A0480818F7D54
:10379000808310924E0310924D03109244041092B5
:1037A00066040E94980789E194E090934A0380930D
:1037B00049038AE194E090934C0380934B038CE09F
:1037C0008093B8000E94FF0D88E591E00E94ED0A09
:1037D00080910C0490910D04892B11F00E945209E4
:1037E0009E01275F3F4F3B8B2A8B87E694E00E9428
:1037F0007C04892B11F40C94F02A87E694E00E9453
:103800005704E0910B048A3021F08D3011F00C94B4
:10381000E22AEE2351F3F0E0ED52FC4F1082E3ED8B
:10382000F3E0CF0121912032E1F3222309F411C109
:1038300065E871E00E949C2C8C01009709F409C195
:1038400069E971E00E949833892B29F48DE595E0B0
:103850000E94ED0AFEC06FE971E0C8010E94983332
:10386000892B19F48BE095E0F3CF65EA71E0C8018C
:103870000E949833892B19F486E095E0E9CF6AEA33
:1038800071E0C8010E949833892B19F48BEF94E002
:10389000DFCF6EEA71E0C8010E949833892B09F0EE
:1038A0007DC165E871E090E080E00E949C2C8C0175
:1038B000009709F4CEC062EB71E00E949833892B27
:1038C00009F0D6C00E94720E6C010E94720E009721
:1038D00049F48091CF039091D00310E1E12EF12CB7
:1038E000009731F07C014F9718F00EE1E02EF12C9B
:1038F0000091D1031091D2030115110521F180919E
:10390000130190911401C816D90641F48091CF0398
:103910009091D0038E159F0509F49BC0D80119968C
:103920008D919C910E940833F8018681978197FDC3
:1039300003C060E00E946403C8010E940833109233
:10394000D2031092D10386E190E00E946C328C0188
:10395000DC0111961C92119718961C92FC01178697
:10396000108A118A128A81E086878387148692E002
:10397000958780835701AA0CBB1CAE0CBF1CB58277
:10398000A482C5010E946C32D8011A969C938E9332
:103990001997009709F460C0A50170E060E00E94EB
:1039A0009133F801F382E282F801D782C6828181E5
:1039B000882341F061E08C2D0E94640360E08C2D2F
:1039C0000E943603F601E857FA4FE491F0E0EE0F5B
:1039D000FF1FE258FA4F85919491D80154969C9319
:1039E0008E935397F601E456FA4FE4915596EC9373
:1039F00055971093D2030093D10316968D919C9105
:103A000097FD33C061E00E94640360E0F8018681A5
:103A10000E94360381E0D80111968C9360E5C801BD
:103A20000E94F905D80114964D915C91159770E0AC
:103A300060E019968D919C910E949133C8010E947B
:103A40009C06D0921401C0921301F092D003E09230
:103A5000CF0310920B04C9CE15961C921E92149798
:103A600013961C921E9212979FCFF8011182D6CF07
:103A7000E090D103F090D203E114F10451F367EB2D
:103A800071E0C8010E949833892B69F4F7014481E1
:103A9000558170E060E0818592850E949133C70175
:103AA0000E949C06D6CF6DEB71E0C8010E9498334E
:103AB000892BA1F40E94720E0091D1031091D203C0
:103AC0008F3F910519F014F08FEF90E097FD80E0A3
:103AD000682FC8010E94F905C801E2CF64EC71E0CB
:103AE000C8010E949833892B39F50E94720E182F55
:103AF0000E94720EC82E0E94720ED12CF12CE12C65
:103B0000FE2CED2CDC2CCC24E12AC82A10E000E0AD
:103B10002091CF033091D0038091D1039091D203B3
:103B20000217130708F0BCCFA7019601B8010E9445
:103B30003B060F5F1F4FECCF69EC71E0C8010E949C
:103B40009833892B09F085CF0E94720E8C010E9458
:103B5000720EE82E0E94720EF82E0E94720E17FD51
:103B600018C02091CF033091D003021713078CF4B3
:103B70002F2D30E050E040E0542F432F322F2227EA
:103B80004E29282BB8018091D1039091D2030E9435
:103B90003B068091D1039091D20382CF6FEC71E00C
:103BA000C8010E949833892B09F0F0C065E871E0E4
:103BB00090E080E00E949C2C8C01009709F449CF92
:103BC00062EB71E00E949833892B31F565E871E072
:103BD00090E080E00E949C2C70E2F72E009739F074
:103BE00050E040E070E060E00E945A2BF62E0E9408
:103BF000720E8C010E94720E1016110614F000E174
:103C000010E01816190614F082E090E0482F602F9B
:103C10008F2D0E94520D1DCF8091CD039091CE0328
:103C2000892B29F442E060E180E20E94520D67EBAB
:103C300071E0C8010E949833892B39F48091CD033B
:103C40009091CE030E94F10C04CF63ED71E0C801A6
:103C50000E949833892B89F40E94FA0CE091CD03DD
:103C6000F091CE03882339F088E0838760E0CF01AC
:103C70000E94BB09EECE1386F9CF66ED71E0C80154
:103C80000E949833892B09F0E4CE0E94720E8C01B9
:103C90000E94720E5C0168E771E090E080E00E9493
:103CA0009C2C009709F4D5CE7C01DC012C91019667
:103CB0002032D1F3223249F47C0162E270E00E94AA
:103CC000A133009711F0FC011082680117FF02C0B8
:103CD000D12CC12C8501B7FE02C010E000E0402FBE
:103CE0006C2D8091CD039091CE030E94C00CD70122
:103CF0008D917D01882361F1809116018C151D0441
:103D000009F094F40F5F1F4F809115018017110681
:103D1000E9F0E4F0402F60E08091CD039091CE0374
:103D20000E94C00CD12CC12C8091CD039091CE0368
:103D3000DC01ED91FC910190F081E02DD70111970C
:103D40006C910995BFEFCB1ADB0AD1CFD12CC12CD6
:103D5000809115018017110609F00CF47ACE80913C
:103D600016018C151D0409F00CF473CE8091CD035F
:103D70009091CE03DC01ED91FC910190F081E02D5A
:103D800060E20995BFEFCB1ADB0AE9CF6BED71E07A
:103D9000C8010E949833892B09F007C265E871E0D9
:103DA00090E080E00E949C2C8C01009709F451CE99
:103DB00062EB71E00E949833892BE9F465E871E0C9
:103DC00090E080E00E949C2C009799F050E040E049
:103DD00070E060E00E945A2B862F0E94EE090E943C
:103DE000210D882309F435CE0E94410D0E947B0AE3
:103DF00030CE8CE3F2CF0E94210D882309F429CE26
:103E000067EB71E0C8010E949833892B69F366ED76
:103E100071E0C8010E949833892B09F09AC00E9472
:103E2000720E7C010E94720ED82E192F68E771E085
:103E300090E080E00E949C2C009709F40ACE2C01AF
:103E4000FC01208101962032D1F3223249F42C0169
:103E500062E270E00E94A133009711F0DC011C9235
:103E6000C701F7FE02C090E080E0ED2CF12EF7FED6
:103E700002C0F12CE12CEC8A2091CB033091CC03D1
:103E8000BE2DB83068F4F701F695FE2FEE27F795B2
:103E9000E795E20FF31F40E8DF011D924A95E9F72D
:103EA000170143E0220C331C4A95E1F78C0153E0E3
:103EB000000F111F5A95E1F7232B09F4CACDF20127
:103EC00061902F01662011F40C94002B003811052D
:103ED00014F00C94002B862D90EE960D903608F081
:103EE00080E28052990B3C0183E0660C771C8A9536
:103EF000E1F74801F8E08F0E911C85E891E0801B06
:103F0000910B680E791EF301E00FF11FE491D12CA3
:103F1000C12CAE2EB12CC5010C2C02C095958795F5
:103F20000A94E2F780FF07C041E0B1016C0D7D1DEE
:103F3000C8010E9496152FEFC21AD20A38E0C316A4
:103F4000D10449F70F5F1F4F80169106E1F68401F7
:103F5000B6CF69EC71E0C8010E949833892B89F4CF
:103F60000E94720E8C010E94720E7C010E94720EE1
:103F700041E0892B09F440E0B701C8010E94961581
:103F800035CF60EE71E0C8010E949833892B91F41F
:103F90000E94720E8C010E94720E7C010E94720EB1
:103FA0006C010E94720E9C01A601B701C8010E941B
:103FB000C2151CCF65EE71E0C8010E9498334C0118
:103FC000892B09F046C00E94720E6C010E94720E8D
:103FD0005C010E94720E8C010E94720E7C010E9494
:103FE000720E2091CB033091CC03232B09F4FECE2B
:103FF0000C0D1D1D01501109892B81F08E149F0499
:104000000CF0F4CEB501680D791D9B01A801C60125
:104010000E94C2159FEF891A990AF0CF9501A80155
:10402000B501C6010E94C215EA0CFB1CA1E0EA1A08
:10403000F1089701A801B701C6010E94C2159701B6
:10404000A601B501C6010E94C2159701A801B501DC
:10405000ADCF6AEE71E0C8010E9498336C01892BE4
:1040600009F0F7CC0E94720E9D8B8C8B0E94720E11
:10407000998F888F0E94720E7C010E94720E9BA302
:104080008AA38091CB039091CC03892B09F4AECE07
:1040900001E010E00E191F09EC14FD040CF4A6CE8B
:1040A000888C998C8C0C9D1CAC88BD88AE0CBF1C78
:1040B000EC89FD89EE19FF09F9A3E8A3288D398D54
:1040C0002C193D093D8F2C8F488D598D4E0D5F1D4C
:1040D0005F8F4E8F2C883D882C0C3D1C6C887D8812
:1040E0006C187D08488C598C4E185F088AA19BA1DA
:1040F000892B61F19401A501B401CF010E94C21581
:104100002C8D3D8DA501B90188A199A10E94C215F0
:104110002E8D3F8DA101B901C3010E94C2159201EC
:10412000A101B201C3010E94C2159FEFC91AD90AA9
:10413000C60117FD05C0A1E0EA1AF1088E199F0912
:10414000880F991F0196080F191FA6CF41E0B401EF
:10415000C5010E94961541E0B40188A199A10E9471
:10416000961541E06C8D7D8DC5010E94961541E04C
:104170006C8D7D8D88A199A10E94961541E06E8D70
:104180007F8DC1010E94961541E06E8D7F8DC30128
:104190000E94961541E0B201C1010E94961541E0CE
:1041A000B201C3010E949615C0CF61EF71E0C80152
:1041B0000E949833892BE9F465E871E090E080E093
:1041C0000E949C2C8C010E94610EF82E86EF94E0D8
:1041D0000E940C050115110511F401E911E0C80157
:1041E0000E943F0B80E20E9427058F2D0E94A003B2
:1041F0003DC067EF71E0C8010E9498337C01892BB4
:1042000009F037C00E94720E8C0160E00E946403C6
:1042100081EF94E00E940C05C8010E94760B80E2B9
:104220000E94270598013327F901E055FA4F849140
:10423000F901E456FA4F1491F901E857FA4F049145
:10424000002399F081110E940D03E02FF0E0EE0FA2
:10425000FF1FE558FE4FA591B491EC911E2391E00C
:1042600080E009F490E0E92EF82EC7010E94460B89
:10427000F0CB6DEF71E0C8010E949833892B79F47F
:104280000E94720E182F0E94FA0C082F61E0812FF5
:104290000E946403602F812F0E943603DACB64E012
:1042A00072E0C8010E949833892B09F05DC00E941A
:1042B000720E7C010E94720E8C0161E08E2D0E94B4
:1042C000640361E08E2D0E946403101611061CF039
:1042D00060E08E2DE1CF0F3F110514F061E0F9CFC2
:1042E000F701FF27E055FA4FE491E33019F140F46C
:1042F000E130B1F0E230C9F0003811057CF7E8CFC9
:10430000E73011F1E83041F1E430B1F780918000FD
:1043100080628093800010938B0000938A0099CB79
:1043200084B5806884BD07BD94CB84B5806284BDAC
:1043300008BD8FCB809180008068809380001093AF
:1043400089000093880085CB8091B00080688093BD
:10435000B0000093B3007DCB8091B0008062809369
:10436000B0000093B40075CB68E072E0C8010E9411
:104370009833892B09F066C165E871E090E080E030
:104380000E949C2C8C0165E871E090E080E00E9426
:104390009C2C1C01C8010E94610E7C010E97863086
:1043A000910508F088C021E1289F8001299F100D08
:1043B00011240B591C4FF8018081882309F47BC01C
:1043C0008E2D0E94A003BC01990F880B990B0E94AF
:1043D000422E688F798F8A8F9B8FD80119962D91E5
:1043E0003D914D915C911C972C8B3D8B4E8B5F8B3F
:1043F0001196CD90DD90ED90FC901497A701960159
:104400006C897D898E899F890E943B2E81111BC0FA
:10441000F801C580D680E780F0848CEE94E00E949D
:104420000C052114310421F4E4E92E2EE1E03E2EA6
:10443000C1010E943F0B80E20E94270542E050E04C
:10444000C701B60138C2D80115964D905D906D90A8
:104450007C901897A30192011D966D917D918D918D
:104460009C9150970E94F82F4B015C01A701960187
:10447000688D798D8A8D9B8D0E94F82F9B01AC01F0
:10448000C501B4010E94A12E4B015C01A701960158
:104490006C897D898E899F890E94F82F9B01AC01D0
:1044A000C501B4010E94D730A30192010E94F92FE7
:1044B0006B017C01B2CF81012114310411F404E9B4
:1044C00011E06FE072E0C8010E949833892B21F45B
:1044D000C7010E944E15ECCF63E172E0C8010E9453
:1044E0009833892BA9F38E2D0E94A0035C01BC0197
:1044F000990F880B990B0E94422E6B017C0120E0E2
:1045000030E040EA50E40E94A12E20E030EC4FE77A
:1045100054E40E94D7302B013C0164E971E0C801EA
:104520000E949833892B49F420E030E048EC52E4B3
:10453000C301B2010E94A12EBBCF67E172E0C801A6
:104540000E949833892B79F420E030E048EC52E463
:10455000C301B2010E94A12E20E030E048E452E401
:104560000E94F82FA5CF6DE172E0C8010E94983338
:10457000892BB1F5AB2809F45DC0A701960160E075
:1045800070EC8FE794E40E94F82F20E030E44CE1D7
:1045900056E40E94A12EA70196010E94D73020E088
:1045A00030E44CE156E40E94D7300E94B4312CE252
:1045B0003BEB44E859E30E94A12E2FE03FEC4BE592
:1045C0005BE30E94F92F9B01AC0160E070E080E8A2
:1045D0009FE30E94D73023E333E948E853E4C0CF98
:1045E00061E272E0C8010E949833892B39F420E01F
:1045F00030E048EC52E4C701B60113C065E272E056
:10460000C8010E949833892B91F7A701960160E0B9
:1046100070EC8FE794E40E94F82F20E030E048EC43
:1046200052E40E94A12E20E030EC4FE754E40E94B7
:10463000D7303ECFC12CF0E8DF2EF8E8EF2EF3ECB8
:10464000FF2EEBCE6DE272E0C8010E949833892BF9
:1046500009F0C6C065E871E090E080E00E949C2C03
:104660008C01009709F4F5C961E372E00E94983368
:10467000892B79F465E871E090E080E00E949C2C41
:104680000E94610E182F80EE94E00E940C05812F8D
:10469000ADCD65E372E0C8010E949833892B09F023
:1046A00047C065E871E090E080E00E949C2C8C019E
:1046B00065E871E090E080E00E949C2C0E94001B65
:1046C0002B013C010E94001B6C8B7D8B8E8B9F8B82
:1046D0000E94001B4B015C010E94001B6B017C01CE
:1046E000C8010E94610E0E9786309105F0F421E119
:1046F000289FF001299FF00D1124EB59FC4F4182B6
:104700005282638274822C893D894E895F89258318
:1047100036834783508781869286A386B486C58672
:10472000D686E786F08A81E080838DED94E090C89C
:1047300067EB71E0C8010E949833892BC1F465E8EA
:1047400071E090E080E00E949C2C0E94610E0E9728
:104750008630910548F421E1289FF001299FF00D52
:104760001124EB59FC4F10828AED94E071C869E383
:1047700072E0C8010E949833892B29F590E080E00F
:104780000E945F2F813C29F061EC90E080E00E9464
:10479000672F75E6E72E73E0F72E01E010E0D701F2
:1047A000DD907D01C8010E945F2FD81621F06D2D8C
:1047B000C8010E94672F0F5F1F4F0736110579F759
:1047C00087ED94E045C86EE372E0C8010E9498331B
:1047D000892B09F03EC90E94FF0D84ED94E038C892
:1047E00063E472E0C8010E949833892B09F037C155
:1047F00065E871E090E080E00E949C2C7C01892BB0
:1048000009F427C980915703811131C08091630356
:1048100090916403892B01F58CE690E00E946C3244
:1048200024ED34E0FC0131832083EC59FF4F2AE072
:1048300037ED43EA5CE3208331834283538334962C
:1048400028E431EE4AE75FE32083318342835383D8
:104850009093640380936303009163031091640356
:104860000115110559F58FE691E00E94ED0A80913E
:104870006303909164030E940C1767E472E0C70120
:104880000E949833892B09F068C0E0916303F0918E
:10489000640380A091A0A2A0B3A08FEC94E00E943A
:1048A0000C05C7010E943F0B80E20E94270542E0F1
:1048B00050E0C501B4010E947C0CCBC840E069E126
:1048C000C8010E94251540E06AE1C8010E94251533
:1048D00048E06BE1C8010E94251540E06CE1C80189
:1048E0000E94251541E06BE6C8010E942515C8010C
:1048F0000E940C17D801D8961D921D921D921C92F1
:10490000DB97F80114AE15AE16AE17AEE05BFF4FA5
:10491000AC5BBF4F8D919D910D90BC91A02D80837C
:104920009183A283B3833496D801A85BBF4F8D9146
:104930009D910D90BC91A02D80839183A283B38320
:104940000E940D04F801E05AFF4F60837183828357
:10495000938381E0809357038ACF6AE472E0C701B2
:104960000E949833892B49F4E0916303F09164032A
:1049700084A095A0A6A0B7A090CF6DE472E0C70177
:104980000E949833892B49F4E0916303F09164030A
:1049900080A491A4A2A4B3A480CF60E572E0C70173
:1049A0000E949833892B49F4E0916303F0916403EA
:1049B00084A495A4A6A4B7A470CF63E572E0C70150
:1049C0000E949833892B49F4E0916303F0916403CA
:1049D00080A891A8A2A8B3A860CF66E572E0C7013D
:1049E0000E949833892B49F4E0916303F0916403AA
:1049F00084A895A8A6A8B7A850CF69E572E0C7011A
:104A00000E949833892B59F4E0916303F091640379
:104A1000E05BFF4F80809180A280B3803ECF6DE548
:104A200072E0C7010E949833892B39F4E091630347
:104A3000F0916403EC5AFF4FEDCF61E672E0C701DD
:104A40000E949833812C912C5401892B09F025CF99
:104A5000E0916303F0916403E85AFF4FDBCF65E612
:104A600072E0C8010E949833892B09F014C10E949A
:104A7000720E7C010E94720E8C01469711F00BE0C1
:104A800010E08091610390916203009789F020917A
:104A9000100130911101E216F30641F420910E014C
:104AA00030910F012017310709F448C00E940833E4
:104AB00082E190E00E946C326C0186E106311105C2
:104AC00009F08BE0D6011596EC92159716968C930B
:104AD0001697C7019927FC01E456FA4FE4911796FF
:104AE000EC931797FC01E857FA4FE4911896EC9372
:104AF000189720E83EE340E050E01D962D933D934B
:104B00004D935C935097D0926203C092610362E030
:104B10008E2D0E94640320E338EF4FEF5FEFD60144
:104B200019962D933D934D935C931C97F092110130
:104B3000E092100110930F0100930E0100916103A8
:104B400010916203C8010E942F14882341F0F801DC
:104B500086818B3059F018F08551823028F1812CF4
:104B6000912C60ECA62E6FE7B62E08C0628170E033
:104B700090E080E00E94402E4B015C01C8010E9441
:104B80002F14882309F453C0F80186818B30B9F1C2
:104B900020F08551823008F44EC0C12CD12C50EC4D
:104BA000E52E5FE7F52E33C0F2806F2D6F7770E052
:104BB00090E080E00E94422E20E030E040E853E4A4
:104BC0000E94A12E4B015C01D80113966C9170E0FC
:104BD00090E080E00E94422EA50194010E94F92FEE
:104BE0002DEC3CEC4CEC5DE30E94A12E4B015C01F2
:104BF000F7FEC4CFB7FAB094B7F8B094BFCF6081D6
:104C000070E090E080E00E94402E6B017C01A501E5
:104C10009401C501B4010E940032811108C0A701AE
:104C20009601C701B6010E940032882329F18FEB5B
:104C300094E00C94281C608170E090E080E00E9479
:104C4000402E20E030E040E853E40E94A12E6B01AA
:104C50007C01D80111966C9170E090E080E00E9498
:104C6000422EA70196010E94F92F2DEC3CEC4CEC52
:104C70005DE30E94A12EC9CF86EB94E00E940C0553
:104C800041E0C501B4010E94A40B80E20E94270507
:104C900041E050E0D5CB69E672E0C8010E9498334C
:104CA0006C01892B09F030C265E871E090E080E08A
:104CB0000E949C2C4C010E94610E5C010E94720EAD
:104CC000782E692E80915F0390916003009771F0B8
:104CD00020910C0130910D01A216B30609F49EC17A
:104CE0000E9408331092600310925F038091550375
:104CF00090915603009711F00E9408338EE090E0E7
:104D00000E946C327C0160E08A2D0E946403C50120
:104D10009927FC01E456FA4FE491D701EC93FC018A
:104D2000E857FA4FE491F0E0EE0FFF1FE558FE4F11
:104D300085919491F7019283818313861586148659
:104D4000F0925603E092550384E190E00E946C32A9
:104D50008C01DC011796FC92EE92169714961C9229
:104D6000149715961C9215971C9289E011968C93B6
:104D7000119781E012968C93129713968C93139748
:104D800053961C921E9252971093600300935F03F8
:104D9000F7011286118610861782168215821482F8
:104DA0001382EE24E394BE016F5F7F4FD801169605
:104DB0008D919C910E945016882309F469C067E088
:104DC000CE0101960E94011298858913ECCFF8015B
:104DD0008081811124C0868197810E94BE12BE010C
:104DE0006F5F7F4FD80116968D919C910E949F1204
:104DF00040E064EBF801868197810E946B12D80134
:104E000016968D919C910E941812F82EF8018681B9
:104E100097810E94BE12F11002C0D801EC92F801F5
:104E2000F1808981803109F440C4BE016F5F7F4FFA
:104E3000C8010E94BD138F15C8F4D80111968C913A
:104E4000F801818384818F5F84838981883231F086
:104E5000C8F4803119F0823209F0A5CFD801159637
:104E60008C9115978F5F15968C939DCF898180319A
:104E700011F48CE0E5CFBE016F5F7F4FC8010E9447
:104E8000BD13DECF8B3351F3823409F08CCFE6CFE4
:104E90008CE0F80181838FE5E82E9FE7592E2FE102
:104EA000422E3FE3332ED80114968C918C151D04AD
:104EB00009F00CF4AAC04C2DBE01665F7F4FC801FB
:104EC0000E94D016F801F180FCE0FF1550F5BCE01F
:104ED000FB2E8A85803159F1BE01665F7F4FC80184
:104EE0000E94BD13F81609F488C0AE014F5F5F4FF2
:104EF000BE01665F7F4FC8010E945D13882309F4DD
:104F00007CC08A85803109F478C03BE0F31609F44F
:104F100078C04CE0F41669F05AE0F51274C03D8296
:104F200009C029E0F216A8F6A9E0FA2ED2CF8CE04B
:104F3000D9CF5D82D80116968D919C910E94BE12A8
:104F4000BE01665F7F4FF801868197810E949F12A4
:104F500040E06EE4D80116968D919C910E946B12F0
:104F600040E06B81F801868197810E946B1240E0DE
:104F70006C81D80116968D919C910E946B128A8546
:104F8000803139F040E06D81F801868197810E947F
:104F90006B12D80116968D919C910E94BE12BE0193
:104FA000665F7F4FF801868197810E949F12D8012A
:104FB0004C9168E416968D919C910E946B1264E16D
:104FC00070E080E090E00E94DA03F801808188239D
:104FD00031F06AE070E080E090E00E94DA03D801EE
:104FE00016968D919C910E94BE12F80181818F15B9
:104FF00008F48F2DD80111968C93BFEFCB1ADB0AE2
:1050000052CFED8297CF4D8295CFC8010E94F61204
:10501000F8011282B0920D01A0920C0100915F0381
:1050200010916003472DBE01665F7F4FC8010E944B
:10503000D01681111FC0C12CD12CFEEFEF2EF2EC47
:10504000FF2EC8010E94F6128EEA94E00E940C0521
:105050008114910421F421E9822E21E0922EC401D1
:105060000E943F0B8FE50E942705872D962D0E94F9
:10507000760B0BCEAE014F5F5F4FBE01665F7F4F79
:10508000C8010E945D138823B1F26A8170E0762F17
:105090006627770F770F770F2981F8E02F9F900110
:1050A0001124262B372B8A858031D1F4688570E056
:1050B0008F81AB01481B5109CA019695982F88270B
:1050C000979587950E943332CB014097B90153E001
:1050D000660F771F5A95E1F760789C01260F371FFE
:1050E000213854EE35070CF4A6CFB901330F880BE5
:1050F000990B0E94422E20E030E040E05CE30E94E9
:10510000A12E6B017C019DCF61E772E0C8010E9476
:105110009833892B09F0A0C00E94720EB82E0E940D
:10512000720E8C0184EA94E00E940C0561E08B2DE4
:105130000E94640360E0802F0E9464030E940D04BB
:105140002B013C01C0900801D0900901E0900A01B8
:10515000F0900B0120E030E0A901C701B6010E94E8
:105160009F3187FD15C08091510390915203A0910A
:105170005303B0915403A3019201281B390B4A0B2E
:105180005B0BDA01C901CC97A105B10508F480CD0C
:105190004092510350925203609253037092540311
:1051A00060E08B2D0E94360383E090E00197F1F7D9
:1051B00061E08B2D0E94360383E290E00197F1F7C6
:1051C00060E08B2D0E9436031127F801E456FA4F58
:1051D0006491F801E857FA4FE491F0E0EE0FFF1FF9
:1051E000E558FE4F8591949108EA11E620E030E001
:1051F000462F0E94C610611571058105910551F079
:105200006F5F7F4F8F4F9F4F9F70611571058105B5
:10521000910549F4C0900801D0900901E0900A017D
:10522000F0900B0135CD0E94402E28E23EE74CE085
:105230005DE30E94A12E20E030E040E05FE30E94A9
:10524000A12E6B017C01C0920801D0920901E0926D
:105250000A01F0920B011CCD67E772E0C8010E94C1
:105260009833892B09F0A2C00E94720E7C010E9423
:10527000720E8C01C0900C04D0900D04C114D104A6
:10528000A9F08091060190910701E816F90641F412
:1052900080910401909105010817190709F453C082
:1052A000C6010E945D11C6010E9408338FE190E0A3
:1052B0000E946C326C01DC0113961C921E921297B4
:1052C00028EE33E040E050E014962D933D934D934B
:1052D0005C93179784E491E011969C938E93579674
:1052E0001C921E92569759961C921E9258975B9646
:1052F0001C921E925A975D961C921E925C975E9627
:105300008C915E978E7F8D7F5E968C93602FC60109
:105310000E9434116E2DC6010E940B11D0920D0413
:10532000C0920C04C6010E94A611F0920701E092FF
:105330000601109305010093040168E270E080E02B
:1053400090E00E94DA0380910C0490910D04892B67
:1053500011F00E9452098BE994E00E940C056091C3
:105360005D0370915E0390E080E04AE00E94FB0ADA
:1053700080E20E94270560915B0370915C0390E0DE
:1053800080E04AE00E94FB0A80E20E9427056091CB
:10539000590370915A0390E080E04AE00E94FB0AB2
:1053A00086E791E00E94E00A0C94291D6BE772E009
:1053B000C8010E949833892B09F0FCC00E94720E2C
:1053C0007C010E94720E8C01C0904F03D09050035C
:1053D000C114D104A9F08091020190910301E81653
:1053E000F90641F480910001909101010817190715
:1053F00009F443C0C6010E945D11C6010E94083332
:105400008FE190E00E946C326C01FC0113821282E9
:1054100028EE33E040E050E0248335834683578311
:1054200084E491E091838083178A168A118E108E0E
:10543000138E128E158E148E868D8E7F8D7F868FA5
:10544000602FC6010E9434116E2DC6010E940B11FF
:10545000D0925003C0924F03C6010E94A611F09251
:105460000301E0920201109301010093000168E240
:1054700070E080E090E00E94DA0382E994E00E940C
:105480000C0580914F03909150030FEF1FEF009791
:1054900009F441C00E94751180914F03909150030F
:1054A000DC01ED91FC910084F185E02D0995A0913E
:1054B0004F03B0915003ED91FC911197892B31F07E
:1054C0000284F385E02DCD010995E6CF0280F381BA
:1054D000E02D49E050E067E371E0CD0109950E94BD
:1054E0000D046B017C0110E001C0192F0E940D0416
:1054F0006C197D098E099F096C32714081059105F7
:1055000068F00FEF1FEF80910C0490910D0400974D
:1055100011F00E947511C8010C94362180914F033F
:1055200090915003DC01ED91FC910084F185E02D18
:105530000995892BD9F280914F0390915003DC019A
:10554000ED91FC910284F385E02D0995111105C0C0
:105550008F3F61F6898311E0C9CF113049F4863855
:1055600019F48A8312E0C2CF8F3F09F0BCCFBECFBF
:1055700091E0910FE1E0F0E0EC0FFD1FE10FF11D74
:105580008083993009F0B1CFFE01329680E091918D
:10559000890F2A893B89E217F307C9F78195998515
:1055A0008913AFCF0B8110E0102F00278C81080FDB
:1055B000111DA9CF85E894E00E940C05C8010E9446
:1055C000E00AEECEE73310F00C94F51B91E09E0F4D
:1055D00090930B04F0E0ED52FC4F80830C94F51B8C
:1055E00080E090E0892B11F40C94E81B0E94890460
:1055F000882311F40C94E81B0E9400000C94E81B13
:105600003C89383010F00C94291D80915803811189
:1056100004C0809112010E94EE098C89806B0E9467
:10562000D10982E00E94D10980E10E94D109FF24C2
:10563000F694FE2CEE24F794E794870100581F4F50
:10564000BB24B394E016F10611F40C94291D80914B
:105650001201B092430480936504109244041092A6
:10566000660460E470E084ED94E00E94B409D12CFB
:10567000C12CE091CB03F091CC03EC0DFD1DEE0DA0
:10568000FF1D608184ED94E00E941D094FEFC41A54
:10569000D40A50E1C516D10461F784ED94E00E946C
:1056A0004C0980E1E80EF11CCDCF4CE04F1508F419
:1056B000C4CBDFCBB0E0A0E0E0E6FBE20C94B32F7C
:1056C0005C016B017A016115710519F0FB01918391
:1056D0008083E114F10451F0C7010297839730F001
:1056E00040E030E020E090E072C05E01E5012196EC
:1056F000F5011081812F90E00E94932C892BA9F74E
:105700001D3201F52196F501118101E0E114F1044A
:1057100009F4DAC0F0E1EF16F10409F082C01033A9
:1057200059F488818F7D883509F076C019812296D9
:105730000260F0E1EF2EF12C812C912CA12C88E05D
:10574000B82E8CC01B3221F4E5012296F50111819F
:1057500000E0DCCFEAE0EE16F10409F4BBC0F0E1B2
:10576000EF16F10409F06DC0E7CF78E0E72EF12CD9
:10577000812C912CA12C60E1B62E70C03FE9310F35
:105780003A3128F439EA332E80C021E09AC0302F14
:105790003170C114D10431F0222309F12197F601AF
:1057A000D183C08327FF21C060E070E080E090E8F3
:1057B000311104C06FEF7FEF8FEF9FE722E230E0FF
:1057C0003093E3042093E204462F372F282F642FD1
:1057D000732F822FCDB7DEB7E1E10C94CF2F01FFFD
:1057E00004C02297F601D183C083332341F0909502
:1057F0008095709561957F4F8F4F9F4FE5CF97FFB5
:10580000E3CF82E290E09093E3048093E2046FEFB1
:105810007FEF8FEF9FE7D8CF10E3E114F10409F495
:10582000A4CF28E0E216F10409F4A2CF0CF092CF45
:10583000812C912CA12CE0E4BE2E82E0E816F1042C
:1058400069F060E070E080E090E897010F2C000CB8
:10585000440B550B0E94852F49015A0120E060E05E
:1058600070E0CB0127010F2C000C66087708FE01C1
:1058700050ED352E310E39E0331540F43FEB310F4A
:105880003A3108F07BCF49EC342E310E3E141F0420
:105890000CF07DCF27FD15C086169706A806B90621
:1058A00078F0A30192010E94752F630D711D811D77
:1058B000911D61307105810520E8920708F465CFDC
:1058C0002FEF21961081D3CF103309F42ACF2AE08D
:1058D000E22EF12C9CEC892E982CA82C9CE0B92E61
:1058E000BDCF662777270C94D02CFC0188279927F9
:1058F000E89421912032E9F3293010F02E30C8F3DA
:105900002B3241F02D3239F4689404C00E94C82C27
:10591000820F911D219120532A30C0F31EF49095DF
:1059200081959F4F089591110C94202E803219F08B
:1059300089508550C8F7089540EE54E00E94A12C8C
:105940000895FA01A191B081009719F41097E1F040
:10595000CD01DC01CD010D90002011F4C00113C078
:10596000FB012191222319F02015D9F7F3CFFB0178
:105970002191201519F41E92119606C02223C1F719
:105980000D900020A1F7D001FA01A193B0830895F2
:105990007AE0979F902D879F802D910D1124089577
:1059A000B0E0A0E0E6EDFCE20C94B82F5C017B01D6
:1059B0006115710519F0DB018D939C9385010F5FD3
:1059C0001F4FF501D0818D2F90E00E94932C6C0128
:1059D000892BB9F5DD32B9F50F5F1F4FD50111964F
:1059E000DC91C1E05801F1E0AF1AB10843E050E0AA
:1059F00068EF70E0C5010E94232E892B69F56801CC
:105A000082E0C80ED11C45E050E063EF70E0C601B3
:105A10000E94232E892B21F4680197E0C90ED11C26
:105A2000E114F10419F0D701CD92DC9260E070E04E
:105A300080E89FEFC111FFC060E070E080E89FE761
:105A4000FAC05801BBCFDB3229F485010E5F1F4F2E
:105A5000F501D181C0E0C6CF43E050E060EF70E0D7
:105A6000C5010E94232E892BE9F0F80110E000E027
:105A700020E030E0A9015F01B0ED8B2E8D0E89E0B2
:105A80008815C8F19C2E689491F88C2F8870C2FFFD
:105A900016C0811102C00F5F1F4F3196D501DC91F6
:105AA000C92DE9CFE114F10429F00E5F1F4FF70172
:105AB0001183008360E070E080EC9FE7BCC0882326
:105AC00011F001501109A5E0B0E00E94A72F9B0141
:105AD000AC01220F331F441F551F280D311D411DDE
