:100000000C94A2030C94CA030C94CA030C94CA0364
:100010000C94CA030C94CA030C94CA030C94CA032C
:100020000C94CA030C94CA030C94CA030C94C90C14
:100030000C94CA030C94CA030C94CA030C94CA030C
:100040000C94190C0C94CA030C94890C0C94630C3A
:100050000C94CA030C94CA030C94CA030C94CA03EC
:100060000C94850D0C94CA03084AD73B3BCE016E15
:1000700084BCBFFDC12F3D6C74319ABD56833DDAFF
:100080003D00C77F11BED9E4BB4C3E916BAAAABE0E
:10009000000000803F004E414E494E495459494EA0
:1000A00046CDCCCC3D0AD7233C17B7D13877CC2BE3
:1000B000329595E6241FB14F0A000020410000C888
:1000C0004200401C4620BCBE4CCA1B0E5AAEC59D09
:1000D00074657272206F6C65645F6F6F6D0065721E
:1000E00072206D70755F6F6F6D00005EBCE2613FE6
:1000F000DD83C29C7E20A3FD1F41009D23BE46DB05
:1001000065F88C11AF32CA57E97452454144592001
:10011000626F6172643D756E6F2066773D312E307F
:10012000002C457869742050482043616C696272E4
:100130006174696F6E204D6F64653C3C3C003E3ECF
:100140003E43616C6962726174696F6E20466169D9
:100150006C6564003E3E3E43616C69627261746925
:100160006F6E205375636365737366756C003E3EF6
:100170003E42756666657220536F6C7574696F6E6A
:10018000204572726F722054727920416761696EE6
:100190003C3C3C002C53656E642045584954504803
:1001A00020746F205361766520616E642045786904
:1001B000743C3C3C003E3E3E427566666572205390
:1001C0006F6C7574696F6E3A342E30002C53656E07
:1001D000642045584954504820746F205361766517
:1001E00020616E6420457869743C3C3C003E3E3E94
:1001F00042756666657220536F6C7574696F6E3AEE
:10020000372E30003E3E3E506C6561736520707540
:1002100074207468652070726F626520696E746FF7
:100220002074686520342E30206F7220372E3020E5
:100230007374616E646172642062756666657220B3
:10024000736F6C7574696F6E3C3C3C003E3E3E457E
:100250006E7465722050482043616C6962726174EB
:10026000696F6E204D6F64653C3C3C003E3E3E43F2
:100270006F6D6D616E64204572726F723C3C3C0024
:10028000000000000000000000005F00000000000F
:100290000003000003000000147F147F140000001E
:1002A000242A7F2A12000000231308646200000041
:1002B00036495522500000000005030000000000F0
:1002C0001C2241000000000041221C000000000030
:1002D00014083E081400000008083E08080000004A
:1002E0000050300000000000080808080800000066
:1002F0000060600000000000201008040200000000
:100300003E5149453E00000000427F400000000091
:1003100042615149460000002141454B3100000037
:100320001814127F100000002745454539000000D1
:100330003C4A4949300000000171090503000000F2
:100340003649494936000000064949291E00000087
:1003500000363600000000000056360000000000A5
:1003600008142241000000001414141414000000AA
:10037000004122140800000002015109060000009B
:10038000324979413E0000007E1111117E000000CB
:100390007F494949360000003E41414122000000AA
:1003A0007F4141221C0000007F4949494100000073
:1003B0007F090901010000003E4141513200000067
:1003C0007F0808087F00000000417F410000000016
:1003D0002040413F010000007F081422410000003E
:1003E0007F404040400000007F0204027F00000088
:1003F0007F0408107F0000003E4141413E000000A4
:100400007F090909060000003E4151215E000000FD
:100410007F0919294600000046494949310000007A
:1004200001017F01010000003F4040403F0000000B
:100430001F2040201F0000007F2018207F000000A8
:100440006314081463000000030478040300000030
:100450006151494543000000007F41410000000018
:1004600002040810200000000041417F000000004D
:10047000040201020400000040404040400000002F
:1004800000010204000000002054545478000000D1
:100490007F484444380000003844444420000000B1
:1004A000384444487F000000385454541800000079
:1004B000087E0901020000000C5252523E0000006A
:1004C0007F0804047800000000447D400000000024
:1004D0002040443D000000007F1028440000000040
:1004E00000417F40000000007C04180478000000F8
:1004F0007C080404780000003844444438000000BC
:100500007C14141408000000081414187C00000067
:100510007C080404080000004854545420000000E3
:10052000043F4440200000003C4040207C0000008C
:100530001C2040201C0000003C4030403C000000DB
:1005400044281028440000000C5050503C0000008B
:100550004464544C44000000000836410000000090
:1005600000007F000000000000413608000000008D
:100570000201020402000000000000000000000070
:1005800065727220756E6B6E6F776E2000617220DF
:1005900000647220004F4B004F4B004F4B004F4BFD
:1005A0000063616C72617720004F4B0070687620A9
:1005B00000706820004F4B004F4B006878726561F7
:1005C00064792000776569676874200077656967DA
:1005D0006874202D31006A6F7920006779726F206E
:1005E00000616363656C200064735F006468745F1E
:1005F0006820006468745F742000766F6C746167B3
:1006000065200063757272656E7420007475726285
:1006100069646974792000646973742000312E3034
:10062000007665722000706F6E6700434150532062
:100630007267622C6C617365722C62757A7A65726E
:100640002C736572766F2C736572766F75732C766A
:100650006962726174652C66616E2C6E656F2C66C2
:100660006E642C6C63642C6F6C65642C6468742CF1
:10067000776174657274656D702C646973742C7421
:1006800075726269646974792C63757272656E74CF
:100690002C766F6C746167652C63616C2C70682CB0
:1006A00068783731312C6A6F792C6C696768742CE3
:1006B0006B6E6F622C6D69632C616363656C2C6774
:1006C00079726F2C64772C64722C61722C617700C4
:1006D000524541445920626F6172643D756E6F20CE
:1006E00066773D312E300000000000240027002AEC
:1006F0000000000000250028002B0000000000235F
:100700000026002900040404040404040402020274
:100710000202020303030303030102040810204042
:1007200080010204081020010204081020000000CB
:1007300008000201000003040700000000000000A0
:100740000000121F11241FBECFEFD8E0DEBFCDBFC7
:1007500012E0A0E0B1E0E6E0F6E702C005900D92FD
:10076000A23FB107D9F725E0A2EFB2E001C01D9288
:10077000AB31B207E1F713E0C2EAD3E004C021973E
:10078000FE010E949239C13AD107C9F70E94BA1FEF
:100790000C94013B0C940000E0910E05EC3088F5C0
:1007A00040910F05509110052DE730E0241B350BCB
:1007B000220F331F220F331F8217930784F04091BB
:1007C00011055091120522EE34E0241B350B220F47
:1007D000331F220F331F821793070CF49C01225002
:1007E0003109220F331F4FB7F8948E2F90E0FC0190
:1007F000EE0FFF1FE80FF91FE653FB4F32832183F3
:100800004FBF0895833081F028F4813099F0823011
:10081000A9F008958730A9F08830C9F08430B1F488
:10082000809180008F7D03C0809180008F778093BE
:100830008000089584B58F7784BD089584B58F7D39
:10084000FBCF8091B0008F778093B00008958091A6
:10085000B0008F7DF9CF1F93CF93DF93282F30E027
:10086000F901E35DF84F8491F901E75EF84FD49107
:10087000F901EB5FF84FC491CC23A9F0162F811139
:100880000E940204EC2FF0E0EE0FFF1FEF50F94F33
:10089000A591B4918FB7F894EC91111108C0D0953F
:1008A000DE23DC938FBFDF91CF911F910895DE2B64
:1008B000F8CFCF93DF9390E0FC01E75EF84F2491EF
:1008C0008B5F984FFC0184918823C9F090E0880FDA
:1008D000991FFC01E951F94FA591B491FC01EF502A
:1008E000F94FC591D49161110DC09FB7F8948C91C7
:1008F000209582238C938881282328839FBFDF91B2
:10090000CF910895623051F49FB7F8943C91822FB3
:10091000809583238C93E8812E2BEFCF8FB7F894AB
:10092000EC912E2B2C938FBFEACF1F93CF93DF93A5
:10093000182FEB0161E00E945904209739F460E020
:10094000812FDF91CF911F910C942B04CF3FD105C4
:1009500011F461E0F5CFE12FF0E0E35DF84FE491B1
:10096000E33031F140F4E130B1F0E230E1F0C03891
:10097000D1057CF7E4CFE73029F1E83059F1E430D4
:10098000B1F780918000806280938000D0938B00CB
:10099000C0938A0004C084B5806884BDC7BDDF9160
:1009A000CF911F91089584B5806284BDC8BDF7CFF3
:1009B00080918000806880938000D0938900C093EC
:1009C0008800EDCF8091B00080688093B000C09324
:1009D000B300E5CF8091B00080628093B000C093F7
:1009E000B400DDCF3FB7F8948091FD039091FE03F2
:1009F000A091FF03B091000426B5A89B05C02F3F2E
:100A000019F00196A11DB11D3FBFBA2FA92F982F34
:100A10008827BC01CD01620F711D811D911D42E02F
:100A2000660F771F881F991F4A95D1F7089508957B
:100A30000895AF92BF92CF92DF92EF92FF920F9301
:100A40001F93CF93DF936C017B018B01040F151F64
:100A5000EB015E01AE18BF08C017D10759F06991CC
:100A6000D601ED91FC910190F081E02DC601099530
:100A7000892B79F7C501DF91CF911F910F91FF90DD
:100A8000EF90DF90CF90BF90AF900895FC01538D11
:100A9000448D252F30E0842F90E0821B930B541758
:100AA00010F04F96089501970895FC01918D828D65
:100AB000981779F0A28DAE0FBF2FB11D5D962C91C6
:100AC000828D8F5F60E30E945E39928F822F90E06B
:100AD00008958FEF9FEF0895FC01918D828D9817F7
:100AE00031F0828DE80FF11D858D90E008958FEF34
:100AF0009FEF0895FC01918D228D892F90E0C09683
:100B0000821B910960E370E00E946A39089581E5D3
:100B100094E00E947A0521E0892B09F420E0822FDD
:100B2000089580E090E0892B29F00E9487058111CB
:100B30000C9400000895FC01A48DA80FB92FB11DDD
:100B4000A35BBF4F2C91848D90E001968F71992704
:100B5000848FA689B7892C93A089B1898C918370E1
:100B600080648C93938D848D981306C00288F389DA
:100B7000E02D80818F7D80830895EF92FF920F9307
:100B80001F93CF93DF93EC0181E0888F9B8D8C8D39
:100B900098131AC0E889F989808185FF15C09FB72D
:100BA000F894EE89FF896083E889F98980818370F0
:100BB000806480839FBF81E090E0DF91CF911F919F
:100BC0000F91FF90EF900895F62E0B8D10E00F5FC0
:100BD0001F4F0F711127E02E8C8D8E110CC00FB698
:100BE00007FCFACFE889F989808185FFF5CFCE012E
:100BF0000E949B05F1CFEB8DEC0FFD2FF11DE35B08
:100C0000FF4FF0829FB7F8940B8FEA89FB898081B0
:100C10008062CFCF0F931F93CF93DF938C01D0E0EF
:100C2000C0E0F801EC0FFD1F6491662341F081E5FF
:100C300094E00E94BD05892B11F02196F2CFCE01E0
:100C4000DF91CF911F910F910895CF93DF93EC0126
:100C5000888D8823B9F0AA89BB89E889F9898C91A4
:100C600085FD03C0808186FD0DC00FB607FCF7CF60
:100C70008C9185FFF2CF808185FFEDCFCE010E9460
:100C80009B05E9CFDF91CF91089508950895FF92D4
:100C90000F931F93CF93DF93EC01FF24F394F60E91
:100CA00028852F1581F109851A85215041F16F3F63
:100CB000E1F430E050E040E06FEF7FEF80E090E063
:100CC0000E942237B901F8014C815D81CF01801B60
:100CD000910B84179507B0F44081469FC001479F50
:100CE000900D112490833196EFCF8F2D90E0982FA7
:100CF00088270197622F70E00E946A39E4CF70E084
:100D000060E0E1CFF886DF91CF911F910F91FF90C6
:100D100008958F929F92AF92BF92CF92DF92EF92FF
:100D2000FF92CF93DF93FC0182819381681779074B
:100D3000D8F54A01AA24BB24C32ED42EE52EFF24C5
:100D4000DC2DC22F8085982D882391F0C82FD0E00C
:100D5000C89DD001C99DB00DD89DB00D11249B2F09
:100D60008C9D60011124DD2D829F90011124C32FE1
:100D7000A685218532858385A81321C0AB01440F48
:100D8000551F640F751F620F731FA385A60FB72F22
:100D9000B11D9C93A485A60FB72FB11DDC9385854B
:100DA000680F711DFB01C083DF91CF91FF90EF9021
:100DB000DF90CF90BF90AF909F908F900895660F77
:100DC000771F660F771F620F731FA60FB72FB11D16
:100DD0001C92DBCFCF92DF92EF92FF920F931F9383
:100DE000CF93DF93CDB7DEB729970FB6F894DEBF68
:100DF0000FBECDBF8C01DC0119968D919C91892B82
:100E000009F473C00E94F204F801C784D088E18815
:100E1000F2886C157D058E059F0520F46787708B21
:100E2000818B928BF801C784D088E188F2886C1995
:100E30007D098E099F096C3271408105910510F37F
:100E4000F894D80114968D919C9115979A83898373
:100E50001996ED91FC917F01BFEFEB1AFB0A80819F
:100E60008987F80190810388F489E02DD80155968F
:100E70008C91992309F448C09081982B9887908190
:100E8000809589238F838F818C8388E08B8358851D
:100E90006F8149853B812C8189819A81D70150835B
:100EA00047FD252F3A952083262F39F0441F00C097
:100EB00000006083000000C0F2CF38E04D916083F5
:100EC0000000019761F7D8015496FC93EE93539775
:100ED00049873B832C839A83898378940E94F20408
:100EE000F8016787708B818B928B29960FB6F894E7
:100EF000DEBF0FBECDBFDF91CF911F910F91FF904D
:100F0000EF90DF90CF9008959081982B98879081F3
:100F1000809589238F838F818E8388E08D83588588
:100F20006F8149853D812E8189819A81D7015083C6
:100F300047FD252F00C000C0208300C000C000C0B6
:100F400000C000C060830000262F3A9541F0441F86
:100F5000000000C000C000C000C000C0E8CF38E002
:100F60004D9100C0608300C0019709F7D8015496E5
:100F7000FC93EE93539749873D832E83ACCF20910A
:100F80001503260F3327331F21323105ECF420914E
:100F90002704FC0190E080E0243069F082E00895AD
:100FA000A09115032191AC014B505D4FA40FB52FBB
:100FB000B11D2C930196861798F380911503680F45
:100FC0006093150380E0089581E00895109227044E
:100FD00081E0809326041092010461E082E10E9486
:100FE0002B0461E083E10E942B04E9EBF0E08081B7
:100FF0008E7F808380818D7F808388E48093B8009A
:1010000085E48093BC000895CF93DF9391E09093A3
:10101000F4028823B9F0C091B800D091BA00809151
:10102000BC008A7B8093BC0060E082E10E942B04BC
:1010300060E083E10E942B040E94E607D093BA008F
:10104000C093B800DF91CF9108958F929F92AF9295
:10105000BF92CF92DF92EF92FF920F931F93CF93A5
:10106000DF93D0915004D13208F0D7C0182FC0912F
:101070004F040E94F2046B017C01809127048111CE
:101080006BC082E080932704109326048FEF809337
:10109000250410922404D0932304AFE2B4E0E3E0EB
:1010A000F4E080E0D81391C0109202048091020411
:1010B000CC0FC82BC093020480910104813009F049
:1010C00088C0109201040E94F2046B017C0180919F
:1010D00002048093BB008091290490912A04A0917E
:1010E0002B04B0912C04892B8A2B8B2BA1F00E940E
:1010F000F2040091290410912A0420912B043091CC
:101100002C046C197D098E099F09061717072807FB
:10111000390708F442C08091BC0083FDD8CF85EC2C
:101120008093BC000E94F2046B017C018091270433
:10113000823009F450C0809125048F3F09F46FC0BC
:1011400080912504803209F46CC08091250480339D
:1011500009F469C084E026C08091290490912A0492
:10116000A0912B04B0912C04892B8A2B8B2B09F492
:1011700084CF0E94F2048090290490902A04A090C9
:101180002B04B0902C046C197D098E099F098616DA
:101190009706A806B90608F070CF809128040E942F
:1011A000040885E010922E041092500410922D0431
:1011B000DF91CF911F910F91FF90EF90DF90CF9033
:1011C000BF90AF909F908F9008959D9191938F5F66
:1011D00069CF85EEA5CF8091290490912A04A09132
:1011E0002B04B0912C04892B8A2B8B2B09F49ECFD6
:1011F0000E94F2040091290410912A0420912B04EA
:1012000030912C046C197D098E099F090617170768
:101210002807390708F08ACFC0CF81E0C3CF80E02C
:10122000C1CF82E0BFCF83E0BDCF0895E0915E03E0
:1012300080915D03E81730F4F0E0E75CFC4F8081BB
:1012400090E008958FEF9FEF089590915E03809155
:101250005D032FEF3FEF981748F4E92FF0E0E75CCC
:10126000FC4F208130E09F5F90935E03C901089599
:1012700080915D0390915E03891B990B0895CF9235
:10128000DF92EF92FF920F931F93CF93DF937C0136
:10129000CB018A0120912D04222389F0EB016B01FF
:1012A000C40ED51ECC15DD0569F06991D701ED910D
:1012B000FC910190F081E02DC7010995F3CF642FD7
:1012C0000E94BF07C801DF91CF911F910F91FF903E
:1012D000EF90DF90CF900895CF93DF931F92CDB71B
:1012E000DEB7698320912D042223F9F02091500468
:1012F000203258F021E030E0FC013383228390E07B
:1013000080E00F90DF91CF91089580912E04E82F17
:10131000F0E0E15DFB4F998190838F5F80932E0415
:101320008093500481E090E0ECCF61E0CE01019623
:101330000E94BF07F7CF81E00C94250890E080E081
:101340000895CF92DF92EF92FF921F93CF93DF9396
:10135000EC0120910601309107012817390729F483
:101360008091F202861709F497C090910E0537FD1F
:101370000CC0292F30E0F901EE0FFF1FE20FF31F21
:10138000E653FB4F80818F7B8083E4ECEE2EE9E017
:10139000FE2EF4EFCF2EDD24D394611108C050E669
:1013A000E52E59E0F52E70E2C72E72E0D72E162FEB
:1013B0009C3008F06BC061E08C2F0E945904809132
:1013C0000E05282F30E0F901EE0FFF1FE20FF31F8B
:1013D000E653FB4F9081907C2C2F2F73922B9083A0
:1013E00024EF31E02C193D0937FF02C02D5F3F4F3C
:1013F00035952795359527953093100520930F0542
:1014000028E833E12E193F0935952795359527951D
:1014100030931205209311052CE0622F0E945E3953
:10142000829FB001112430E020E0AB01420F531F36
:10143000FA01EE0FFF1FE40FF51FE653FB4F9081FB
:1014400096FD16C02F5F3F4F2C30310571F781118B
:101450000FC01092800082E080938100109285007E
:1014600010928400B19A80916F00826080936F0027
:10147000E0910E058E2F90E0FC01EE0FFF1FE80FAC
:10148000F91FE653FB4F808180648083D09307016E
:10149000C09306011093F202DF91CF911F91FF904C
:1014A000EF90DF90CF900895DC01ED91FC910190D9
:1014B000F081E02D0994FC01248131E030932D046A
:1014C00020934F0410922E04109250048385682BB1
:1014D00070E08EEB94E00E94540A8EEB94E00C9442
:1014E0009B090F931F93CF938C01C62F0E945B0A19
:1014F0006C2F6460C8010E945B0A6C2F6B7FC8016F
:101500000E945B0A83EC90E00197F1F7CF911F9165
:101510000F9108950F931F93CF93DF938C01D62FD4
:10152000C42F607F642B0E94710A80E1D89FB001B4
:1015300011246C2BC801DF91CF911F910F910C9456
:10154000710A41E00E948A0A81E090E00895FC015E
:1015500001900020E9F73197AF01481B590BBC01FE
:1015600081E594E00C94190587E791E00C94A70AB3
:10157000CF93DF930E940A06EC010E94B40A8C0FFD
:101580009D1FDF91CF910895CF93DF9366E871E0BF
:1015900090E080E00E940D34EC010097A9F067EF25
:1015A00071E00E94C43A892BA1F062E872E0CE019A
:1015B0000E94C43A892B69F068E871E0CE010E946C
:1015C000C43A21E0892B09F020E0822FDF91CF91EE
:1015D000089521E0FACF66E871E090E080E00E9493
:1015E0000D34009711F00C94E63390E080E00895FC
:1015F0000C94343ACF92DF92EF92FF920F931F93A5
:10160000CF93DF937C016115710549F46091BD03AF
:101610007091BE0300E110E06115710531F08B019E
:101620006F31710510F00EE110E0C091BB03D09155
:10163000BC03209709F18091190190911A018E1530
:101640009F0541F48091BD039091BE0380179107DF
:1016500009F481C089859A850E94343A8E819F81E0
:1016600097FD03C060E00E945904CE010E94343A05
:101670001092BC031092BB0386E190E00E9498395F
:10168000EC01198218861F86188A198A1A8A81E045
:101690008E878B871C8692E09D8788836801CC0C9F
:1016A000DD1CC00ED11EDD82CC82C6010E9498399D
:1016B0009A878987009709F457C0A60170E060E017
:1016C0000E94BD3A1B830A83FF82EE8289818823B0
:1016D00041F061E08E2D0E94590460E08E2D0E9441
:1016E0002B04F701EB5FF84FE491F0E0EE0FFF1FE2
:1016F000EF50F94F859194919C8B8B8BF701E75EAE
:10170000F84FE491ED8BD093BC03C093BB038E8163
:101710009F8197FD2EC061E00E94590460E08E8198
:101720000E942B0481E0898360E5CE010E94470678
:101730004C815D8170E060E089859A850E94BD3AA8
:10174000CE010E94EA06F0921A01E092190110936C
:10175000BE030093BD03DF91CF911F910F91FF90C6
:10176000EF90DF90CF9008951D821C821B821A8219
:10177000ABCF1982D9CF0F931F93CF93DF9384E61A
:1017800090E00E94DA36823C69F010926803109271
:10179000790310928A0310929B03DF91CF911F91DE
:1017A0000F91089508E613E0C5E6D0E0CE010E944F
:1017B000DA36F80181938F012196C93AD105B1F744
:1017C000ECCF85ED8093BC008091290490912A0490
:1017D000A0912B04B0912C040796A11DB11D23E00C
:1017E000B695A795979587952A95D1F72091BC0036
:1017F00024FD03C0109227040895409129045091BC
:101800002A0460912B0470912C04452B462B472B06
:1018100069F30097A105B10541F02AE22A95F1F795
:1018200000C00197A109B109E1CF809128040C946F
:1018300004081F920F920FB60F9211242F933F931B
:101840008F939F93AF93BF938091F9039091FA0385
:10185000A091FB03B091FC033091F80323E0230F28
:101860002D3758F50196A11DB11D2093F8038093E3
:10187000F9039093FA03A093FB03B093FC038091C8
:10188000FD039091FE03A091FF03B0910004019627
:10189000A11DB11D8093FD039093FE03A093FF0350
:1018A000B0930004BF91AF919F918F913F912F9181
:1018B0000F900FBE0F901F90189526E8230F0296E9
:1018C000A11DB11DD2CF1F920F920FB60F921124FE
:1018D0002F933F934F935F936F937F938F939F9338
:1018E000AF93BF93EF93FF9381E594E00E949B0534
:1018F000FF91EF91BF91AF919F918F917F916F91E8
:101900005F914F913F912F910F900FBE0F901F90BD
:1019100018951F920F920FB60F9211242F935F9379
:101920006F937F938F939F93AF93BF93EF93FF93A7
:10193000E0916104F09162048081E0916704F0918C
:10194000680482FD24C0208180916A0490E00196A1
:1019500060E370E00E946A3990916B04981741F03F
:10196000E0916A04F0E0EF5AFB4F258F80936A0400
:10197000FF91EF91BF91AF919F918F917F916F9167
:101980005F912F910F900FBE0F901F90189580813F
:10199000EFCF1F920F920FB60F9211242F933F9308
:1019A0004F935F936F937F938F939F93AF93BF9367
:1019B000CF93DF93EF93FF9380913803C091EE04B0
:1019C000D0E087FF24C0109285001092840080919F
:1019D00038038F5F8093380380913803082E000C02
:1019E000990B8C179D0724F4809138038C30C4F137
:1019F0008091840090918500049680349C4908F47D
:101A00007AC08091840090918500049676C0809180
:101A10003803082E000C990B8C179D07C4F6E09133
:101A200038038E2FEE0F990BFC01EE0FFF1FE80F0E
:101A3000F91FE653FB4F808186FFC9CFE091380341
:101A40008E2FEE0F990BFC01EE0FFF1FE80FF91F11
:101A5000E653FB4F808160E08F730E942B04B7CF69
:101A60002091840030918500E09138038E2FEE0F95
:101A7000990BFC01EE0FFF1FE80FF91FE653FB4F18
:101A800081819281820F931F9093890080938800B7
:101A9000E09138038E2FEE0F990BFC01EE0FFF1F24
:101AA000E80FF91FE653FB4F808186FF11C0E091DC
:101AB00038038E2FEE0F990BFC01EE0FFF1FE80F7E
:101AC000F91FE653FB4F808161E08F730E942B0466
:101AD000FF91EF91DF91CF91BF91AF919F918F9146
:101AE0007F916F915F914F913F912F910F900FBE1A
:101AF0000F901F90189580E49CE990938900809343
:101B000088008FEF80933803E3CF1F920F920FB6B8
:101B10000F9211242F933F934F935F936F937F9373
:101B20008F939F93AF93BF93EF93FF938091B900EF
:101B3000887F803609F44AC0F0F5883209F4A7C0DE
:101B400018F5803109F49BC0B8F4882309F4F9C072
:101B5000883009F494C0FF91EF91BF91AF919F91AC
:101B60008F917F916F915F914F913F912F910F9046
:101B70000FBE0F901F901895883109F488C08032ED
:101B800051F78093250414C0803409F49DC040F4BB
:101B90008033B9F38833F9F68093250485ECB0C01F
:101BA000803509F485C0883509F496C0883499F6E3
:101BB0000E94E10BD0CF883909F48CC038F5883702
:101BC00029F050F4883611F0803729F683E08093AD
:101BD00027041092370357C0883809F47BC0803936
:101BE00019F0803809F0B7CF80913703803208F0C0
:101BF00071C0E091370381E08E0F809337038091AD
:101C0000BB00F0E0E95EFC4F80833DC0803B39F0D3
:101C1000E0F4803A09F479C0883A09F09CCF84E076
:101C2000809327041092160310921503E091590334
:101C3000F0915A0309958091150381110FC081E03D
:101C4000809315031092F50209C0803C09F4A6CFD9
:101C5000883C09F4A3CF883B09F07DCFE0911603BF
:101C600081E08E0F80931603F0E0EB50FD4F8081F2
:101C70008093BB00909116038091150329C0809139
:101C800002048093BB0085EC8093BC0064CF9091EC
:101C9000240480912304981758F5E091240481E0EE
:101CA0008E0F80932404F0E0ED5FFB4F8081E9CF3D
:101CB000E091240481E08E0F809324048091BB0086
:101CC000F0E0ED5FFB4F808390912404809123042A
:101CD0009817C8F285E8D8CFE091240481E08E0FF0
:101CE000809324048091BB00F0E0ED5FFB4F808384
:101CF0008091260481115CCF81E08093010484EA05
:101D00008093BC001092270426CF85EC8093BC0002
:101D10001092270480913703803230F4E09137032A
:101D2000F0E0E95EFC4F10826091370370E0E091D3
:101D30005B03F0915C0387E193E009951092370310
:101D40000ACF1092250434CFCF92DF92EF92FF9208
:101D50000F931F93E82FF92F05C001501109210996
:101D6000310961F1908196239417B9F305C00150B0
:101D700011092109310911F1908196239413F7CFAC
:101D8000C12CD12CE12CF12C0AC08FEFC81AD80A33
:101D9000E80AF80A0C151D052E053F0579F080812B
:101DA0008623841791F36C2D7D2D8E2D9F2D1F91F1
:101DB0000F91FF90EF90DF90CF90089560E070E07A
:101DC00080E090E01F910F91FF90EF90DF90CF9017
:101DD00008958230910538F0880F991F880F991F58
:101DE00005970197F1F70895CF93DF93282F30E0FF
:101DF000F901E35DF84F8491F901E75EF84FD49162
:101E0000F901EB5FF84FC491CC23A1F081110E943E
:101E10000204EC2FF0E0EE0FFF1FE550F94FA59103
:101E2000B491EC91ED2381E090E009F480E0DF9142
:101E3000CF91089580E090E0FACF8E3008F08E5078
:101E40008770806480937C0080917A0080648093A6
:101E50007A0080917A0086FDFCCF80917800909185
:101E6000790008958F929F92AF92BF92CF92DF92A6
:101E7000EF92FF926B017C010E94F2044B015C0126
:101E8000C114D104E104F104B9F00E94F20468190C
:101E900079098A099B09683E73408105910580F3A1
:101EA00021E0C21AD108E108F10888EE880E83E02B
:101EB000981EA11CB11CE4CFFF90EF90DF90CF9053
:101EC000BF90AF909F908F9008952FB7F894609136
:101ED000F9037091FA038091FB039091FC032FBFEB
:101EE0000895682F81E594E00C94BD05DC0180E045
:101EF000615090F09D919827E92FEF70F0E0E65146
:101F0000FF4F2491E92FE295EF70F0E0E650FF4F8C
:101F1000E491822F8E27ECCF0895DC012C9111964D
:101F2000ED91FC91F8948181822B81839281322FF3
:101F300030959323928387E090E00197F1F78181B8
:101F40008323818383E290E00197F1F79081789475
:101F5000EFECF0E03197F1F7922381E009F480E0B3
:101F60000895FC0190810180F281E02D292F2095B8
:101F700060FF14C0F8948281822382838181892B3F
:101F80008183A3E2B0E01197F1F78281982B9283CD
:101F9000789487ED90E00197F1F70895F8948281A5
:101FA000822382838181892B8183AFEFB0E01197F7
:101FB000F1F78281982B928378948FE090E0EBCFB9
:101FC000DF92EF92FF920F931F93CF93DF93EC0179
:101FD000D62EE42E08E010E0FF24F39461E08D2D6E
:101FE0008F2109F460E0CE010E94B10FFF0C015077
:101FF0001109A1F7E11010C0F894E981FA819181EB
:102000008881809589238183E981FA819281888101
:102010008095892382837894DF91CF911F910F91CE
:10202000FF90EF90DF900895EF92FF920F931F9330
:10203000CF93DF938C017B0140E065E50E94E00FC8
:10204000E70188E0E80EF11C699140E0C8010E94B8
:10205000E00FCE15DF05C1F7DF91CF911F910F91F2
:10206000FF90EF900895FC0190810180F281E02DB6
:10207000F8948181292F20958223818378943DE7EC
:1020800043E050E0315029F1DA011197F1F78081F6
:102090008923C1F3F8948281822382838181892BF1
:1020A00081837894ABE7B7E01197F1F7F8948181D9
:1020B00082238183A3E1B1E01197F1F78081982316
:1020C00081E009F080E07894E3E6F6E03197F1F7FB
:1020D000089580E008958F929F92AF92BF92CF9221
:1020E000DF92EF92FF920F931F93CF93DF938C01B8
:1020F0007A01FC01868197810E94141040E06EEB0A
:10210000F801868197810E94E00FE7015701F9E00D
:10211000AF0EB11CF8018680978088E0C82ED12CC4
:10212000F12CEE24E394C4010E948D0F8111FE284E
:10213000EE0CF1E0CF1AD108B1F7F992AC16BD065A
:1021400049F7F801868197810E94331091E0813030
:1021500009F090E0892FDF91CF911F910F91FF90AF
:10216000EF90DF90CF90BF90AF909F908F900895A9
:10217000EF92FF920F931F93CF93DF93CDB7DEB70C
:1021800029970FB6F894DEBF0FBECDBF8C017B013F
:10219000FC01868197810E943310811102C080E08A
:1021A00020C0AE014F5F5F4FB701C8010E946B10A6
:1021B0008823A9F368E0CE0101960E94760F9985E5
:1021C0008913EDCF8D818F33C9F020F48F3139F72A
:1021D00089E007C08F3521F08F3709F78CE001C007
:1021E0008BE029960FB6F894DEBF0FBECDBFDF910E
:1021F000CF911F910F91FF90EF9008958AE0F1CF5A
:102200008F929F92AF92BF92CF92DF92EF92FF9206
:10221000CF93DC011796CC91179750E061115C2F9A
:1022200018962C91189730E0220F331F2550394F04
:1022300060E070E0CB01F901E590F490F701408196
:102240004C23451315C04B015C01FFEF8F1A9F0A09
:10225000AF0ABF0A1D96CD90DD90ED90FC9050978F
:102260006C157D058E059F0568F060E070E0CB0180
:10227000CF91FF90EF90DF90CF90BF90AF909F9065
:102280008F900895C501B401D6CF8F929F92AF92DF
:10229000BF92CF92DF92EF92FF920F931F93CF9353
:1022A000DF93CDB7DEB7C054D1400FB6F894DEBF90
:1022B0000FBECDBF8C010E94650FF801C184D2848E
:1022C000E384F4849B01AC012C193D094E095F099C
:1022D00069017A0130EDC31637E0D306E104F10459
:1022E000A8F48189C05CDE4F0FB6F894DEBF0FBE44
:1022F000CDBFDF91CF911F910F91FF90EF90DF90B5
:10230000CF90BF90AF909F908F9008956187728714
:10231000838794871482138212821182108261E073
:1023200085810E942B046AEF70E080E090E00E94BB
:10233000320F61E0F80185810E94590460E0F801E4
:1023400085810E942B0464E170E080E090E00E94AF
:10235000320FF89461E0F80185810E942B048BE92B
:1023600090E00197F1F762E0F80185810E9459043D
:1023700083E290E00197F1F760E0C8010E9400114C
:10238000672B682B692B29F4F801118A789480E077
:10239000A9CF61E0C8010E940011672B682B692B4F
:1023A00099F39E012F5F3F4F79015E013FEBA31A26
:1023B0003EEFB30A670160E0C8010E940011F60118
:1023C000608371838283938361E0C8010E9400115E
:1023D000F6016483758386839783F8E0CF0ED11C62
:1023E000CA14DB0441F7789430E020E0F7018080E4
:1023F0009180A280B3804481558166817781811468
:102400009104A104B10429F041155105610571053C
:1024100019F4F801118ABBCFF90183E0F595E7952E
:102420008A95E1F7E00FF11F8081880F84169506E9
:10243000A606B706F0F080832F5F3F4FF8E0EF0E5F
:10244000F11C2832310591F6F80144812081818107
:10245000280F3327331F8281280F311D8381820F7C
:10246000932F911D99274817190699F681E0818BC2
:1024700039CF8160E0CFFC01838194810C94E90E17
:10248000EF92FF920F931F93CF93DF93EC01062FF0
:1024900018E061E088810E945904CE010E943B123D
:1024A000E02EF12C60E000FF61E089810E94590478
:1024B000CE010E943B1260E088810E945904CE0147
:1024C0000E943B12F594E7940E2D115011F761E034
:1024D00088810E94590460E089810E945904CE01DC
:1024E0000E943B1260E088810E945904CE010E9444
:1024F0003B1289810E94F40E182F811104C061E003
:1025000089810E945904CE010E943B1261E08881BA
:102510000E945904CE010E943B1281E0111101C0BA
:1025200080E0DF91CF911F910F91FF90EF90089580
:10253000CF93DF93EC0161E089810E945904CE01C1
:102540000E943B1260E088810E945904CE010E94E3
:102550003B1260E089810E945904CE01DF91CF9146
:102560000C943B12CF93DF93EC0161E089810E94D0
:102570005904CE01DF91CF910C943B12EF92FF9260
:102580000F931F93CF93DF93EC017B010E94B21254
:1025900060E4CE010E944012CE010E949812CE014A
:1025A0000E94B21260ECCE010E944012870184E0CA
:1025B000E80EF11CF80161918F01CE010E944012DA
:1025C0000E151F05B9F7CE010E949812CE010E9488
:1025D000B2126A816F706058CE010E944012CE0123
:1025E000DF91CF911F910F91FF90EF900C94981273
:1025F0007F928F929F92AF92BF92CF92DF92EF9293
:10260000FF920F931F93CF93DF9300D000D0CDB7ED
:10261000DEB75C01FA0130E067FF02C0619531E08E
:102620003097E9F419821A821B828FE38C83BE01F2
:102630006F5F7F4FC5010E94BE120F900F900F90E9
:102640000F90DF91CF911F910F91FF90EF90DF904E
:10265000CF90BF90AF909F908F907F900895CE01C4
:1026600001966C014E0193E0891A91088601E62ECD
:10267000660FFF0880E4782ECF01B7010E946A3907
:10268000AC01982F81110BC0309749F4D8011396F3
:102690001C92332379F0F801738230E00BC04D5B5C
:1026A0005E4FDA018C91D80113968C93911102C080
:1026B000EF2B79F3FB010150110980169106E1F629
:1026C000222309F4B4CF41E050E04C0F5D1F4C5F72
:1026D0005F4FD6019D916D01FD013197822F80786A
:1026E000892B8083220FA417B50799F7A0CF1F93DA
:1026F000CF93DF93EC01142F8881998121E02093FF
:102700002D0428E620934F0410922E0410925004BA
:10271000DC01ED91FC910190F081E02D099588811B
:102720009981DC01ED91FC910190F081E02D612F08
:10273000099588819981DF91CF911F910C949B0914
:102740004F925F926F927F928F929F92AF92BF92C1
:10275000CF92DF92EF92FF92CF93DF93CDB7DEB7A8
:102760002A970FB6F894DEBF0FBECDBF4D835E83B0
:102770006F83788721E1289FA001299F500D1124A4
:1027800048595C4F5A874987DA0119968D919D9176
:102790000D90BC91A02D89839A83AB83BC83FA01F1
:1027A00081809280A380B480C580D680E780F08449
:1027B000A5019401BC01CD010E94B6358823A1F189
:1027C000A7019601A985BA851D966D917D918D9180
:1027D0009C9150970E949A372B013C01A5019401CE
:1027E0006D817E818F8198850E949A379B01AC0113
:1027F000C301B2010E941C362B013C01A5019401CA
:1028000069817A818B819C810E949A379B01AC01FE
:10281000C301B2010E9479389B01AC01C701B60126
:102820000E949B376B017C01C701B6012A960FB647
:10283000F894DEBF0FBECDBFDF91CF91FF90EF9038
:10284000DF90CF90BF90AF909F908F907F906F90D0
:102850005F904F900895E091B503F091B6033097E3
:1028600011F180389105F8F460347105E0F4DB0172
:10287000A770BB2721E030E001C0220FAA95EAF73C
:1028800033E0759567953A95E1F77695762F66274B
:1028900077956795860F971FE80FF91F808144236E
:1028A00019F0282B2083089520952823FBCF2F9201
:1028B0003F924F925F926F927F928F929F92AF92D0
:1028C000BF92CF92DF92EF92FF920F931F93CF931D
:1028D000DF9300D000D0CDB7DEB77C017C836B8363
:1028E0004A0139018091B5039091B603892B09F40F
:1028F00055C08A010E191F0917FF03C011950195D4
:10290000110944244A94542CE814F9041CF4442476
:102910004394512C63012B813C81C21AD30AD7FE08
:1029200003C0D194C194D108882799278C199D0997
:102930009A8389832B813C8122242A94322C261568
:1029400037051CF422242394312C5801AC18BD08FF
:1029500041E06B817C81C7010E942B14E814F904CB
:1029600029F48B819C8186159705C1F0C501880FDC
:10297000991F29813A81821793073CF0AC18BD0852
:10298000E40CF51C081719071CF3A00EB11E8B816F
:102990009C81820D931D9C838B83DACF0F900F90C7
:1029A0000F900F90DF91CF911F910F91FF90EF90BB
:1029B000DF90CF90BF90AF909F908F907F906F905F
:1029C0005F904F903F902F900895CF93C82F8091A4
:1029D0000E0191E090932D0480934F0410922E04E9
:1029E0001092500470E060E08EEB94E00E94540A74
:1029F0006C2F8EEB94E00E946C098EEB94E0CF91EB
:102A00000C949B090F931F93CF93DF93811101C007
:102A10008CE380930E0162E370E080E090E00E941E
:102A2000320F8EEA0E94E51485ED0E94E51480E8DD
:102A30000E94E51488EA0E94E5148FE30E94E514E1
:102A400083ED0E94E51480E00E94E51480E40E947A
:102A5000E5148DE80E94E51484E10E94E51481EA02
:102A60000E94E51488EC0E94E5148AED0E94E514AA
:102A700082E10E94E51481E80E94E5148FE70E943C
:102A8000E51489ED0E94E51481EF0E94E5148BEDB9
:102A90000E94E51480E40E94E51484EA0E94E51493
:102AA00086EA0E94E5148EE20E94E51481E080939C
:102AB0006703C0E001E08C2F806B0E94E51482E088
:102AC0000E94E51480E10E94E514D0E080910E019F
:102AD00000932D0480934F0410922E041092500402
:102AE00060E470E08EEB94E00E94540A10E160E034
:102AF0008EEB94E00E946C091150C9F78EEB94E0C4
:102B00000E949B09D05FD03809F7CF5FC83099F693
:102B10008FEADF91CF911F910F910C94E514CF9222
:102B2000DF92EF92FF920F931F93CF93DF938091E9
:102B3000B5039091B603892B09F44DC080916703CA
:102B4000811104C080910E010E940215D0E0C0E006
:102B5000D12CCC24C3948D2D806B0E94E51482E08F
:102B60000E94E51480E10E94E5148E0100581F4F79
:102B7000C017D10761F180910E01C0922D0480939E
:102B80004F0410922E041092500460E470E08EEB1B
:102B900094E00E94540AF12CE12CE091B503F091ED
:102BA000B603EE0DFF1DEC0FFD1F60818EEB94E070
:102BB0000E946C098FEFE81AF80A80E1E816F10428
:102BC00061F78EEB94E00E949B096096D1CFD3947D
:102BD00088E0D812C0CFDF91CF911F910F91FF9065
:102BE000EF90DF90CF900895FF920F931F93CF93B4
:102BF000DF93F82E062FC7E0D0E010E061E0802FD1
:102C00000E942B048F2D0E94F40E0C2E01C0880F01
:102C10000A94EAF7182B60E0802F0E942B0421977A
:102C200068F7812FDF91CF911F910F91FF90089549
:102C3000CF92DF92FF920F931F93CF93DF93EC011C
:102C40008B810E94F40E892BD9F76A818B810E94B7
:102C5000F415082F6A818B810E94F415182F6A8160
:102C60008B810E94F415F82ED12CC12C8C818C15EF
:102C70001D0469F060F061E08A810E942B0460E02D
:102C80008A810E942B048FEFC81AD80AEFCFD02F69
:102C9000D095C12FC0954F2D40952FEFD7FD09C07E
:102CA000DF37F1F4CF3FE1F421E04F3F09F020E0BE
:102CB00021956C2F70E090E080E0982F872F762F81
:102CC00066278D2B642B922B6F5F7F4F8F4F9F4F0B
:102CD000DF91CF911F910F91FF90DF90CF900895DA
:102CE00020E0E7CFBF92CF92DF92EF92FF920F9357
:102CF0001F93CF93DF93EC01B62EC72E8D858111E4
:102D000005C0CE010E94331081110EC01B861D86A6
:102D10001C8680E0DF91CF911F910F91FF90EF9083
:102D2000DF90CF90BF90089540E060EFCE010E9409
:102D3000E00F01E0E12CD12C11E0CE010E948D0FBB
:102D4000F82ECE010E948D0F91E0F91218C081304B
:102D500099F51134D8F2DB86D11002C081E08D875D
:102D60008B81882399F22396EB2DFC2DCF010896B9
:102D700029912193E817F907D9F781E0CBCFEE2D00
:102D8000F0E0F8120FC08B851817A0F4DE01AE0F2B
:102D9000BF1F13968C91802379F4F12C193008F41D
:102DA0001C87D12EEC0FFD1F8381902F90958923D6
:102DB00083830AC08113F1CFFE01EE0DF11D8381E3
:102DC000802B8383FF24F3946F2DCE010E94B10FDB
:102DD0001F5F000F11F4E39401E087E08E1508F007
:102DE000ACCFB7CFCF93DF93CDB7DEB728970FB671
:102DF000F894DEBF0FBECDBF28E0E1E2F1E0DE01D6
:102E0000119601900D922A95E1F7FC012185241776
:102E100010F44FEF420F50E0440F551F21E030E017
:102E20002C0F3D1F420F531FFA012081620F606873
:102E300040E028960FB6F894DEBF0FBECDBFDF91FD
:102E4000CF910C948A0A40E061E00E948A0A8BE3E9
:102E50009FE10197F1F708958F929F92AF92BF92F1
:102E60000F931F93CF93DF93CDB7DEB7A1970FB624
:102E7000F894DEBF0FBECDBF19A2423008F44AE07D
:102E80008E010F5D1F4F842E912CB12CA12CA5011A
:102E900094010E940037E62FB901CA01EA30F4F428
:102EA000E05DD801EE938D01232B242B252B79F7A0
:102EB00090E080E0109719F0CD010E94A70AA1963A
:102EC0000FB6F894DEBF0FBECDBFDF91CF911F913B
:102ED0000F91BF90AF909F908F900895E95CE1CFE4
:102EE000CF92DF92EF92FF92CF93DF936C01990F15
:102EF000EE08FF08F7FE1BC08DE20E94710FEC0187
:102F000066277727CB016C197D098E099F094AE056
:102F10000E942C17C80FD91F0E94B40A8C0F9D1F46
:102F2000DF91CF91FF90EF90DF90CF9008954AE02E
:102F3000C701B6010E942C17EC01EECFCF92DF92B1
:102F4000EF92FF92CF93DF936C01990FEE08FF0889
:102F5000F7FE17C08DE20E94710FEC0166277727FC
:102F6000CB016C197D098E099F094AE00E942C173C
:102F70008C0F9D1FDF91CF91FF90EF90DF90CF904E
:102F800008954AE0C701B601DF91CF91FF90EF901D
:102F9000DF90CF900C942C17009711F00C94A70A97
:102FA00090E080E008954F925F926F927F928F92AF
:102FB0009F92AF92BF92CF92DF92EF92FF920F93C8
:102FC0001F93CF936B017C01742EAC019B010E9477
:102FD0005939882399F08AE791E0CF911F910F9199
:102FE000FF90EF90DF90CF90BF90AF909F908F9029
:102FF0007F906F905F904F900C94A70A4601570105
:10300000E894B7F82FEF3FEF4FE75FE7C501B40152
:103010000E94593981110DC02FEF3FEF4FE75FE755
:10302000C501B4010E94B63518161CF48EE791E074
:10303000D4CF2FEF3FEF4FE75FE4C701B6010E9407
:10304000483918161CF482E891E0C7CF2FEF3FEF04
:103050004FE75FECC701B6010E94B63587FDF3CF9D
:1030600020E030E0A901C701B6010E94B63510E0AA
:1030700000E087FF08C08DE20E94710F8C01F7FA13
:10308000F094F7F8F094C0E060E070E080E09FE337
:103090007C1641F020E030E040E251E40E947938B3
:1030A000CF5FF6CFA70196010E949B372B013C0111
:1030B0000E94F2384B015C014AE00E942C177C010F
:1030C000E00EF11ECC23B1F1C501B4010E94BB3565
:1030D0009B01AC01C301B2010E949A374B015C0114
:1030E0008EE20E94710FE80EF91EC15018F120E027
:1030F00030E040E251E4C501B4010E941C362B01CE
:103100003C010E94F2384B01B12CA12C4AE0C501D0
:10311000B4010E942C17E80EF91EC501B4010E94EB
:10312000BB359B01AC01C301B2010E949A374B0130
:103130005C01DBCFC701CF911F910F91FF90EF9002
:10314000DF90CF90BF90AF909F908F907F906F90C7
:103150005F904F900895CF93DF930E94D317EC01B7
:103160000E94B40A8C0F9D1FDF91CF9108950097A4
:1031700061F0FC0120812F7D213429F401960E9409
:10318000E6330E9608950C94E6338EE090E00895B1
:103190008F929F92AF92BF92DF92EF92FF920F9326
:1031A0001F93CF93DF93C091AD03D091AE03181658
:1031B00019061CF41616170634F081E0CD2B09F021
:1031C00074C080E072C0209779F0209102013091A4
:1031D00003012817390741F42091000130910101C2
:1031E0002617370709F460C08B017C01D82E60E0F8
:1031F0000E94590461E0802F0E94590460E0802FF2
:103200000E942B040E94650F4B015C018D2D0E94D2
:10321000F40E019761F40E94650F681979098A0913
:103220009B09613971408105910580F3CACF2097D0
:1032300039F0E881F9810280F381E02DCE01099512
:103240008DE090E00E949839EC018DE291E0998345
:1032500088830A83EB8261E0802F0E94590460E03A
:103260008B810E94590481E08C8360E08A810E94F6
:103270002B04CE010E941816D093AE03C093AD0369
:10328000F0920301E092020110930101009300010A
:103290008091130190911401A0911501B091160134
:1032A00089879A87AB87BC8781E0DF91CF911F9197
:1032B0000F91FF90EF90DF90BF90AF909F908F9015
:1032C00008958091B5039091B603892BC1F480E0F5
:1032D00094E00E9498399093B6038093B5030097C9
:1032E00031F481ED90E00E94B80A80E0089520E07A
:1032F00034E0FC01A901119241505040E1F781E016
:1033000008950E946119882361F0E091B503F0915E
:10331000B60380E094E0DF019C011D922150304013
:10332000E1F70895FF920F931F93CF93DF93182F28
:10333000F62E042F8091B7039091B803009711F0F7
:103340000E94343A8CE090E00E949839EC011B8294
:103350001A8285E391E0998388831C83F886098724
:103360001A8618E01B87D093B803C093B703F09276
:1033700018010093170110925E0310925D031092E2
:103380002E04109250040E94E60787E195E0909386
:103390005A038093590388E195E090935C038093EE
:1033A0005B031D828985823008F01D839A859923ED
:1033B00029F0813019F48D8184608D8362E370E09F
:1033C00080E090E00E94320F6B85CE010E945B0A84
:1033D00068EE73E080E090E00E94320F60E3CE017F
:1033E0000E94710A0BE416E4C8010197F1F760E34B
:1033F000CE010E94710AC8010197F1F760E3CE0186
:103400000E94710A83E592E00197F1F760E2CE0134
:103410000E94710A6D81606240E0CE010E948A0ABA
:1034200084E08E8340E06CE0CE010E948A0ACE01E7
:103430000E94231782E08F8340E066E0CE010E9465
:103440008A0A40E062E0CE010E948A0A8BE39FE193
:103450000197F1F78091B7039091B80328E0FC0140
:10346000238760E00E945B0A8091B7039091B803C4
:10347000DF91CF911F910F91FF900C9423170F9321
:103480001F93CF93DF938C018091B3039091B4038A
:10349000009749F020910401309105012017310770
:1034A00091F10E94343A82E190E00E949839EC0157
:1034B0000D838BE08E83C8019927FC01E75EF84FEE
:1034C000E491EF83FC01EB5FF84FE491E88780E83B
:1034D0009EE3A0E0B0E08D879E87AF87B88BD09346
:1034E000B403C093B30362E0802F0E94590480E3C9
:1034F00098EFAFEFBFEF89879A87AB87BC871093B0
:10350000050100930401DF91CF911F910F91089560
:103510000C94DA362F923F924F925F926F927F9285
:103520008F929F92AF92BF92CF92DF92EF92FF92D3
:103530000F931F93CF93DF93CDB7DEB72C970FB6C2
:10354000F894DEBF0FBECDBF9C878B87DC018D91C9
:103550009C9121E020932D0428E620934F041092A3
:103560002E04109250046BE370E00E94540A80E035
:103570000E9425080E94F2046B017C0180912704BF
:10358000811165C081E080932704809326049FEF1A
:1035900090932504109224049DE09093230480933B
:1035A000020480910204806D8093020480910104E2
:1035B000813009F07DC3109201040E94F2046B0176
:1035C0007C01809102048093BB008091290490913A
:1035D0002A04A0912B04B0912C04892B8A2B8B2BCD
:1035E000A1F00E94F2040091290410912A04209174
:1035F0002B0430912C046C197D098E099F09061744
:1036000017072807390708F443C08091BC0083FDE1
:10361000D8CF85EC8093BC000E94F2046B017C0142
:1036200080912704813009F445C3809124048E30B1
:1036300008F062C380912404E3E0F4E0A9E3B3E07E
:1036400090E0981751F121912D939F5FFACF8091CF
:10365000290490912A04A0912B04B0912C04892B69
:103660008A2B8B2B09F48ACF0E94F2040091290443
:1036700010912A0420912B0430912C046C197D099F
:103680008E099F09061717072807390708F076CF14
:10369000809128040E94040880E010925E038093C9
:1036A0005D03EB85FC8580819181DC01ED91FC91CE
:1036B0000284F385E02D0995182FEB85FC85808128
:1036C0009181DC01ED91FC910284F385E02D099557
:1036D00020E0822B912BEB85FC8593838283808174
:1036E0009181DC01ED91FC910284F385E02D099537
:1036F000182FEB85FC8580819181DC01ED91FC9197
:103700000284F385E02D099520E0822B912BEB8537
:10371000FC859583848380819181DC01ED91FC910E
:103720000284F385E02D0995182FEB85FC858081B7
:103730009181DC01ED91FC910284F385E02D0995E6
:1037400020E0822B912BEB85FC85978386838081FB
:103750009181DC01ED91FC910284F385E02D0995C6
:10376000182FEB85FC8580819181DC01ED91FC9126
:103770000284F385E02D099520E0822B912BEB85C7
:10378000FC859187808780819181DC01ED91FC919E
:103790000284F385E02D0995182FEB85FC85808147
:1037A0009181DC01ED91FC910284F385E02D099576
:1037B00020E0822B912BEB85FC859387828780818B
:1037C0009181DC01ED91FC910284F385E02D099556
:1037D000182FEB85FC8580819181DC01ED91FC91B6
:1037E0000284F385E02D099520E0822B912BEB8557
:1037F000FC859587848780819181DC01ED91FC9126
:103800000284F385E02D0995182FEB85FC858081D6
:103810009181DC01ED91FC910284F385E02D099505
:1038200020E0312F1901282A392AEB85FC853786BB
:10383000268660857185072E000C880B990B0E94E7
:10384000BD3520E030EF41E456E40E949B3720E094
:1038500030E04AEA53E40E947938AB85BC855C9637
:103860006D937D938D939C935F9712966D917C9150
:10387000072E000C880B990B0E94BD3520E030E02C
:1038800040E858E30E941C364B015C01EB85FC8547
:1038900080A291A2A2A2B3A264817581072E000C1E
:1038A000880B990B0E94BD3520E030E040E858E3DA
:1038B0000E941C366B017C01AB85BC859496CD9231
:1038C000DD92ED92FC92979716966D917C91072E62
:1038D000000C880B990B0E94BD3520E030E040E8D9
:1038E00058E30E941C362B013C01EB85FC8540A669
:1038F00051A662A673A620E030E0A901C501B4017B
:103900000E944839A501940118160CF05058C301C3
:10391000B2010E949B379B01AC01C701B6010E9416
:103920001A380B851C850C5B1F4F20E030E044EB00
:1039300053E40E941C3620E030E040E05FE30E9448
:103940001C362BED3FE049E450E40E947938D80161
:103950006D937D938D939C93139720E030E0A901A4
:10396000C701B6010E944839181624F0F7FAF094FE
:10397000F7F8F094A7019601C301B2010E949B37AA
:103980009B01AC01C501B4010E941A380B851C854E
:10399000085B1F4F20E030E044EB53E40E941C36EC
:1039A00020E030E040E05FEB0E941C362BED3FE072
:1039B00049E450E40E947938F8016083718382837E
:1039C0009383AB85BC851C966D917C91072E000C72
:1039D000880B990B0E94BD3520E030E043E852E4AB
:1039E0000E9479386B017C01EB85FC8562857385CB
:1039F000072E000C880B990B0E94BD3520E030E0AB
:103A000043E852E40E947938AB85BC8550962D91ED
:103A10003D914D915C9153970E949A37EB85FC85BF
:103A200064A775A786A797A72489358946895789EA
:103A3000C701B6010E949A37AB85BC85D0966D93BD
:103A40007D938D939C93D397B101330C880B990B85
:103A50000E94BD3520E030E043E852E40E9479380E
:103A6000EB85FC85208D318D428D538D0E949A37D8
:103A7000AB85BC85D4966D937D938D939C93D7979E
:103A80000E94650FEB85FC85E05AFF4FFE83ED83B6
:103A9000C080D180E280F3806C197D098E099F0976
:103AA0000E94BB352FE632E143E85AE30E941C3600
:103AB0002B013C01EB85FC85E45AFF4F408251828B
:103AC00062827382AB85BC859C962D913D914D9110
:103AD0005C919F970E941C364B015C01AC019B01DD
:103AE000EB85FC8560AD71AD82AD93AD0E949B37D7
:103AF000AB85BC85D8966D937D938D939C93DB9716
:103B0000D0962D913D914D915C91D397C301B20117
:103B10000E941C366B017C01AC019B01EB85FC858E
:103B200064AD75AD86AD97AD0E949B37AB85BC8506
:103B3000DC966D937D938D939C93DF97D4962D9116
:103B40003D914D915C91D797C301B2010E941C3603
:103B50006B847C84B0E46B0E711CF3012081318195
:103B6000428153810E949B376F83788789879A8728
:103B7000D3016D937D938D939C931397EB85FC8577
:103B8000E859FF4F4080518062807380EB85FC854F
:103B9000EC59FF4F80819181A281B38189839A83FF
:103BA000AB83BC832B843C8490E5290E311CD1016E
:103BB0002D913D914D915C91C501B4010E949B37BF
:103BC000A30192010E941C364B015C01EB85FC8530
:103BD000EC5BFF4F208131814281538169817A8181
:103BE0008B819C810E941C369B01AC01C501B401F4
:103BF0000E949B37F1016083718382839383AB843E
:103C0000BC84F4E5AF0EB11CD5012D913D914D91D1
:103C10005C91C701B6010E949B37A30192010E94EB
:103C20001C366B017C01F801208131814281538176
:103C300069817A818B819C810E941C369B01AC0139
:103C4000C701B6010E949B37D5016D937D938D937B
:103C50009C931397EB85FC85E85AFF4F8F819885DD
:103C6000A985BA8580839183A283B3830E94650F5F
:103C7000AD81BE816D937D938D939C9313972C960C
:103C80000FB6F894DEBF0FBECDBFDF91CF911F916D
:103C90000F91FF90EF90DF90CF90BF90AF909F90EB
:103CA0008F907F906F905F904F903F902F900895EE
:103CB00085EEB0CC8091290490912A04A0912B0428
:103CC000B0912C04892B8A2B8B2B09F4A9CC0E9450
:103CD000F2040091290410912A0420912B043091C0
:103CE0002C046C197D098E099F09061717072807F0
:103CF000390708F095CCCCCC8EE09ECCCF93DF93E7
:103D00008091F30281117DC08091AF039091B00347
:103D1000892B01F58CE690E00E9498392EEB34E077
:103D2000FC0131832083EC59FF4F4AE057ED63EAF1
:103D30007CE34083518362837383349648E451EE7D
:103D40006AE77FE340835183628373839093B00378
:103D50008093AF03C091AF03D091B003209731F4AB
:103D60008EED90E0DF91CF910C94B80A40E069E1CC
:103D7000CE010E94771340E06AE1CE010E947713E2
:103D800048E06BE1CE010E94771340E06CE1CE0188
:103D90000E94771341E06BE6CE010E947713CE01BB
:103DA0000E948A1A18AE19AE1AAE1BAE1CAE1DAE1A
:103DB0001EAE1FAEFE01E05BFF4FDE01AC5BBF4FEE
:103DC0008D919D910D90BC91A02D80839183A283B4
:103DD000B3833496DE01A85BBF4F8D919D910D900A
:103DE000BC91A02D80839183A283B3830E94650F31
:103DF000C05ADF4F688379838A839B8381E08093F5
:103E0000F302DF91CF91089566E871E090E080E0E1
:103E10000E940D34009711F00C94E23360E070E0E2
:103E2000CB010895109254041092530488EE93E04D
:103E3000A0E0B0E08093550490935604A0935704FB
:103E4000B093580427E531E0309352042093510495
:103E500025EC30E030935E0420935D0424EC30E0E8
:103E60003093600420935F0420EC30E030936204D0
:103E70002093610421EC30E03093640420936304C8
:103E800022EC30E0309366042093650426EC30E0A9
:103E9000309368042093670410926A0410926B04B4
:103EA00010926C0410926D041092C1041092C00420
:103EB0008093C2049093C304A093C404B093C50438
:103EC00089E691E09093BF048093BE048091EE0454
:103ED0008C3008F04BC091E0980F9093EE048093E3
:103EE0000E0590E0FC01EE0FFF1FE80FF91FE653EF
:103EF000FB4F88EB9BE09283818380E090E0A8EC0D
:103F0000B1E48093FF0490930005A0930105B09362
:103F1000020580E090E0A0EEB0E48093EF0490937F
:103F2000F004A093F104B093F20484E19EE0AEEFBC
:103F3000B4E48093F3049093F404A093F504B09355
:103F4000F60480E090E8ABEBB4E48093F704909340
:103F5000F804A093F904B093FA048093FB049093BF
:103F6000FC04A093FD04B093FE0408958FEF8093AA
:103F70000E05C3CFCF93DF93CDB7DEB7C455D109BC
:103F80000FB6F894DEBF0FBECDBF789484B58260C3
:103F900084BD84B5816084BD85B5826085BD85B5ED
:103FA000816085BD80916E00816080936E0010926B
:103FB00081008091810082608093810080918100E6
:103FC0008160809381008091800081608093800077
:103FD0008091B10084608093B1008091B0008160D5
:103FE0008093B00080917A00846080937A00809101
:103FF0007A00826080937A0080917A008160809359
:104000007A0080917A00806880937A001092C100D3
:10401000E0916104F091620482E08083E0915D04AC
:10402000F0915E041082E0915F04F091600480E101
:10403000808310926904E0916504F091660486E043
:104040008083E0916304F0916404808180618083C7
:10405000E0916304F0916404808188608083E09142
:104060006304F0916404808180688083E09163043C
:10407000F091640480818F7D808310925E031092A2
:104080005D0310922E04109250040E94E60787E10F
:1040900095E090935A038093590388E195E09093BB
:1040A0005C0380935B038CE08093B8000E94BB0BA1
:1040B0008AE091E00E94B80A81E594E00E947A05C6
:1040C000892B11F40C945D3281E594E00E94550532
:1040D000E091F7038A3021F08D3011F00C944F32CB
:1040E000EE2351F3F0E0E154FC4F1082EFEBF3E0EC
:1040F000CF0121912032E1F3222309F4A1C066E827
:1041000071E00E940D347C01009709F499C06DE8BC
:1041100071E00E94C43A892B29F480ED96E00E9458
:10412000B80A8EC063E971E0C7010E94C43A892BC6
:1041300019F48BE296E0F3CF69E971E0C7010E94C0
:10414000C43A892B19F486E296E0E9CF6EE971E072
:10415000C7010E94C43A892B39F481E296E00E949B
:104160000A068DE196E0DBCF62EA71E0C7010E94AA
:10417000C43A892B09F04FC00E94EB0AF82E0E9426
:10418000EB0A082F0E94EB0A182F0E94EB0A982EC8
:10419000A92E0E94EB0AB82EC92E0E94EB0AD82E37
:1041A000E92E61E08F2D0E94590461E0802F0E946A
:1041B000590461E0812F0E945904692D7A2D6F3FC7
:1041C000710519F014F06FEF70E077FF02C070E036
:1041D00060E08F2D0E9495046B2D7C2D6F3F710543
:1041E00019F014F06FEF70E077FF02C070E060E04C
:1041F000802F0E9495046D2D7E2D6F3F710519F063
:1042000014F06FEF70E077FF02C070E060E0812F84
:104210000E94950415C066EA71E0C7010E94C43A85
:10422000892B89F40E94EB0A182F0E94C40A082FD8
:1042300061E0812F0E945904602F812F0E942B047E
:104240001092F70339CF6CEA71E0C7010E94C43ABB
:10425000892B09F087C00E94EB0A6C0166E871E0C7
:1042600090E080E00E940D348C010D2C000CEE08D3
:10427000FF08009769F063EB71E00E94C43A892B54
:1042800039F067EB71E0C8010E94C43A892B19F438
:1042900060E08C2DD3CF9C2CC8010E94E6335C01DA
:1042A0000E94EB0A8C011A141B0494F718161906C5
:1042B00014F008EC10E0B50190E080E00E94BB35FE
:1042C0009B01AC0160E074E284E799E40E947938D4
:1042D0000E94EB38072E000C880B990B0E94BD350D
:1042E0002B013C0120E030E040E05FE30E941C36FF
:1042F0000E94EB385B0161E08C2D0E945904B801EB
:10430000110F880B990B0E94BB3520E030E04AE783
:1043100054E40E941C36A30192010E9479386B017B
:104320007C0101E010E0B801012E000C880B990B14
:104330000E94BD35A70196010E94B63518160CF4EF
:104340007FCF61E0892D0E942B04C5010E94E90EF8
:1043500060E0892D0E942B04C5010E94E90E0F5FC9
:104360001F4FE1CF69EB71E0C7010E94C43A892B6E
:1043700009F074C066E871E090E080E00E940D34BE
:104380008C01009709F45CCF6FEB71E00E94C43A96
:10439000892BD9F40E94EB0A8C010E94EB0A7C0164
:1043A00061E0C8010E94A109C70125ECE21629E0DD
:1043B000F20614F084EC99E0843F31E0930714F4A2
:1043C00084EF91E00E94CC033BCFC8010E94E6330A
:1043D0008C010E94EB0A5C0160E0C8010E94A10907
:1043E00080910F0590911005FDE7CF2ED12CC81AB2
:1043F000D90ACC0CDD1CCC0CDD1C0D2C000CEE08FD
:10440000FF08809111059091120522EE34E0281BDF
:10441000390B220F331F220F331F032E000C440BC6
:10442000550B2C193D094E095F09D501A53BB10576
:1044300014F0A4EBB0E0B7FF02C0B0E0A0E00E942F
:104440004C3724EB30E040E050E00E942237DA01A4
:10445000C9018C0D9D1DAE1DBF1DB4CF62EC71E076
:10446000C7010E94C43A892B71F40E94EB0A182FED
:104470000E94EB0AF82E092F61E0812F0E94590457
:104480006F2D702FBACE6AEC71E0C7010E94C43A5A
:10449000892B09F054C00E94EB0AE82E0E94EB0A17
:1044A000F82E66E871E090E080E00E940D348C0107
:1044B00061E08E2D0E94590461E08F2D0E94590405
:1044C0000115110571F06EEC71E0C8010E94C43A4B
:1044D000892B39F063EB71E0C8010E94C43A892B43
:1044E00041F470E060E08E2D0E94950470E060E081
:1044F00022C0C8010E94E6338C018F3F910519F05C
:1045000014F00FEF10E017FF02C010E000E066E8C3
:1045100071E090E080E00E940D34009771F063ED4F
:1045200071E00E94C43A892B41F070E060E08E2D6A
:104530000E949504B8018F2D6BCEB801D4CF66EDE3
:1045400071E0C7010E94C43A892B09F0BCC00E94E7
:10455000EB0A7C0166E871E090E080E00E940D3497
:104560008C01009709F46CCE6AED71E00E94C43AA8
:10457000892B39F40E94EB0ABC01C7010E94FA0A98
:104580005FCE6091BD037091BE036115710539F076
:104590008091190190911A01E816F90611F060E175
:1045A00070E0C7010E94FA0A6FED71E0C8010E9435
:1045B000C43A892BA1F40091BB031091BC03D8012C
:1045C00014964D915C91159770E060E019968D916D
:1045D0009C910E94BD3AC8010E94EA0631CE65EE68
:1045E00071E0C8010E94C43A892B99F40E94EB0A39
:1045F0000091BB031091BC038F3F910519F014F09B
:104600008FEF90E097FD80E0682FC8010E94470679
:10461000E2CF6CEE71E0C8010E94C43A892B39F5F3
:104620000E94EB0A182F0E94EB0AC82E0E94EB0A88
:10463000D12CF12CE12CFE2CED2CDC2CCC24E12A0D
:10464000C82A10E000E02091BD033091BE038091A4
:10465000BB039091BC030217130708F0BDCFA7015D
:104660009601B8010E9489060F5F1F4FECCFC80169
:104670000E94E6338C010E94EB0AE82E0E94EB0AAE
:10468000F82E0E94EB0A682F17FD18C08091BB031B
:104690009091BC032091BD033091BE030217130714
:1046A0006CF42F2D30E050E040E0542F432F322F98
:1046B00022274E29262BB8010E9489068091BB0330
:1046C0009091BC0389CF60EF71E0C7010E94C43AAA
:1046D000892B09F0CFC00E94EB0A6C010E94EB0A03
:1046E0005C0166E871E090E080E00E940D347C019E
:1046F000892B09F4A5CD8091B9039091BA03009755
:1047000081F02091110130911201C216D30639F4C3
:1047100020910F0130911001A216B30691F10E9471
:10472000343A85E090E00E9498398C01FC01C08207
:10473000A18284E690E09483838360E08C2D0E94C4
:10474000590460E0D80111968C910E94590460E0F0
:10475000F80180810E942B0460E0D80111968C91B1
:104760000E942B041093BA030093B9038DE0F80163
:104770008283D0921201C0921101B0921001A092D6
:104780000F016FED71E0C7010E94C43A892B71F4EB
:104790008091B9039091BA0319821A821B821C82FC
:1047A000BE016F5F7F4F0E94BE124ACD65EE71E081
:1047B000C7010E94C43A892BB9F40E94EB0AE09128
:1047C000B903F091BA038830910514F087E090E0C6
:1047D00097FD80E08860828320E050E040E06AE05E
:1047E000CF010E94F8122CCD64EF71E0C7010E9446
:1047F000C43A892B91F40E94EB0AE091B903F0913D
:10480000BA03AC0197FF04C044275527481B590B36
:1048100066EF97FF6AE020E4E3CF6AEF71E0C7013B
:104820000E94C43A892B91F40E94EB0AE091B903EB
:10483000F091BA03AC0197FF04C044275527481BE9
:10484000590B66EF97FF6AE020E0CACF0091B903E9
:104850001091BA03C7010E94E633AC0197FF04C070
:1048600044275527481B590B66EF97FF6AE020E065
:10487000C801B7CF6FEF71E0C7010E94C43A892B1E
:1048800009F0EFC066E871E090E080E00E940D342E
:104890008C01009709F4D4CC6AED71E00E94C43A0F
:1048A000892B31F566E871E090E080E00E940D34DC
:1048B00050E2F52E009739F050E040E070E060E003
:1048C0000E94CB32F62E0E94EB0A8C010E94EB0A6A
:1048D0001016110614F000E110E01816190614F075
:1048E00082E090E0482F602F8F2D0E949219A8CC73
:1048F0008091B7039091B803892B29F442E060E1DD
:1049000080E20E9492196FED71E0C8010E94C43AE2
:10491000892B39F48091B7039091B8030E94231733
:104920008FCC63E072E0C8010E94C43A892B89F4FD
:104930000E94C40AE091B703F091B803882339F0CC
:1049400088E0838760E0CF010E945B0A79CC138600
:10495000F9CF66E072E0C8010E94C43A892B09F0E1
:104960006FCC0E94EB0A8C010E94EB0A5C0169E7A4
:1049700071E090E080E00E940D34009709F460CC73
:104980007C01DC012C9101962032D1F3223249F4D2
:104990007C0162E270E00E94DC3A009711F0FC01B9
:1049A0001082680117FF02C0D12CC12C8501B7FE0F
:1049B00002C010E000E0402F6C2D8091B703909171
:1049C000B8030E94F216D7018C91882361F180917F
:1049D00018018C151D0409F094F40F5F1F4F80918E
:1049E000170180171106E9F0E4F0402F60E0809194
:1049F000B7039091B8030E94F216D12CC12C80917C
:104A0000B7039091B803DC01ED91FC910190F08126
:104A1000E02DD7016D917D010995BFEFCB1ADB0A1F
:104A2000D2CFD12CC12C809117018017110609F02B
:104A30000CF406CC809118018C151D0409F00CF4BF
:104A4000FFCB8091B7039091B803DC01ED91FC910D
:104A50000190F081E02D60E20995BFEFCB1ADB0AEF
:104A6000E9CF6BE072E0C7010E94C43A892B09F0DC
:104A700052C266E871E090E080E00E940D348C0143
:104A8000009709F4DDCB6AED71E00E94C43A892BEE
:104A9000E9F466E871E090E080E00E940D34009750
:104AA00099F050E040E070E060E00E94CB32862F49
:104AB0000E9402150E946119882309F4C1CB0E944B
:104AC00081190E948F15BCCB8CE3F2CF0E94611933
:104AD000882309F4B5CB6FED71E0C8010E94C43A98
:104AE000892B69F366E072E0C8010E94C43A892B01
:104AF00009F09BC00E94EB0A7C010E94EB0AD82EB1
:104B0000192F69E771E090E080E00E940D34009772
:104B100009F496CB2C01FC01208101962032D1F3BF
:104B2000223249F42C0162E270E00E94DC3A0097E4
:104B300011F0DC011C92C701F7FE02C090E080E09A
:104B4000ED2CF12EF7FE02C0F12CE12C2696EFAEF3
:104B500026972091B5033091B603BE2DB83068F486
:104B6000F701F695FE2FEE27F795E795E20FF31F75
:104B700040E8DF011D924A95E9F71701B3E0220CE6
:104B8000331CBA95E1F78C0183E0000F111F8A9561
:104B9000E1F7232B09F454CBF20181902F018820F7
:104BA00011F40C946D320038110514F00C946D3230
:104BB000882D90EE980D903608F080E28052990B87
:104BC0004C01A3E0880C991CAA95E1F73801F8E0A4
:104BD0006F0E711C80E892E0801B910B880E991E6D
:104BE000F401E00FF11FE491D12CC12CAE2EB12CB9
:104BF000C5010C2C02C0959587950A94E2F780FFB9
:104C000007C041E0B1016C0D7D1DC8010E942B144D
:104C10002FEFC21AD20A38E0C316D10449F70F5F4A
:104C20001F4F06151705E1F6B7CF60E172E0C80126
:104C30000E94C43A892B89F40E94EB0A8C010E94DD
:104C4000EB0A7C010E94EB0A41E0892B09F440E069
:104C5000B701C8010E942B1434CF66E172E0C8018D
:104C60000E94C43A892B91F40E94EB0A8C010E94A5
:104C7000EB0A7C010E94EB0A6C010E94EB0A9C018A
:104C8000A601B701C8010E9457141BCF6BE172E067
:104C9000C8010E94C43A4C01892B09F046C00E9409
:104CA000EB0A6C010E94EB0A5C010E94EB0A8C018A
:104CB0000E94EB0A7C010E94EB0A2091B50330911F
:104CC000B603232B09F4FDCE0C0D1D1D0150110957
:104CD000892B81F08E149F040CF0F3CEB501680D82
:104CE000791D9B01A801C6010E9457149FEF891AE4
:104CF000990AF0CF9501A801B501C6010E94571489
:104D0000EA0CFB1CA1E0EA1AF1089701A801B7011F
:104D1000C6010E9457149701A601B501C6010E9461
:104D200057149701A801B501ADCF60E272E0C80148
:104D30000E94C43A6C01892B09F082CA0E94EB0AD6
:104D400027969FAF8EAF27970E94EB0A2B969FAFB7
:104D50008EAF2B970E94EB0A7C010E94EB0A6596AE
:104D60009FAF8EAF65978091B5039091B603892B65
:104D700009F4A7CE01E010E00E191F09E3E0F0E00E
:104D80006396FFAFEEAF6397EC14FD040CF499CE7D
:104D90002B968EAC9FAC2B978C0C9D1C2796AEACA3
:104DA000BFAC2797AE0CBF1C27964EAD5FAD2797C3
:104DB0004E195F092D965FAF4EAF2D972B968EAD96
:104DC0009FAD2B978C199D0961969FAF8EAF619710
:104DD0002B96AEADBFAD2B97AE0DBF1D2F96BFAFBF
:104DE000AEAF2F9727962EAC3FAC27972C0C3D1CCF
:104DF00027966EAC7FAC27976C187D082B964EAC2F
:104E00005FAC2B974E185F086596EEADFFAD6597CA
:104E1000EF2BD1F19401A501B4012D968EAD9FAD7C
:104E20002D970E94571461962EAD3FAD6197A50155
:104E3000B9012D968EAD9FAD2D970E9457142F96D8
:104E40002EAD3FAD2F97A101B901C3010E945714A8
:104E50009201A101B201C3010E945714FFEFCF1AC2
:104E6000DF0A17FF4CC063962EAD3FAD6397020F6C
:104E7000131F63962EAD3FAD63972E5F3F4F639632
:104E80003FAF2EAF639780CF41E0B401C5010E94D0
:104E90002B1441E0B4012D968EAD9FAD2D970E944D
:104EA0002B1441E061966EAD7FAD6197C5010E9404
:104EB0002B1441E061966EAD7FAD61972D968EAD5E
:104EC0009FAD2D970E942B1441E02F966EAD7FADC4
:104ED0002F97C1010E942B1441E02F966EAD7FAD3C
:104EE0002F97C3010E942B1441E0B201C1010E941F
:104EF0002B1441E0B201C3010E942B14AFCF31E06B
:104F0000E31AF108C6018E199F09880F991F0196AF
:104F1000080F191FAECF67E272E0C7010E94C43AC2
:104F2000892B09F081C566E871E090E080E00E947D
:104F30000D348C01009709F483C96BE272E00E9482
:104F4000C43A892B09F0A4C00E94EB0AB82E0E9433
:104F5000EB0A8C0187E196E00E940A0661E08B2D46
:104F60000E94590460E0802F0E9459040E94650F3E
:104F70002B013C01C0900A01D0900B01E0900C0184
:104F8000F0900D0120E030E0A901C701B6010E94B8
:104F9000483987FD15C08091630390916403A09107
:104FA0006503B0916603A3019201281B390B4A0BDC
:104FB0005B0BDA01C901CC97A105B10508F44AC021
:104FC000409263035092640360926503709266039B
:104FD00060E08B2D0E942B0483E090E00197F1F7B5
:104FE00061E08B2D0E942B0483E290E00197F1F7A2
:104FF00060E08B2D0E942B041127F801E75EF84F2B
:105000006491F801EB5FF84FE491F0E0EE0FFF1FC1
:10501000E550F94F8591949108EA11E620E030E0DF
:10502000462F0E94A40E611571058105910551F06E
:105030006F5F7F4F8F4F9F4F9F7061157105810587
:10504000910569F4C0900A01D0900B01E0900C0129
:10505000F0900D0141E050E0C701B601FCC00E9494
:10506000BB3528E23EE74CE05DE30E941C3620E0C1
:1050700030E040E05FE30E941C366B017C01C0928F
:105080000A01D0920B01E0920C01F0920D01E2CFE7
:1050900060E372E0C8010E94C43A892B09F09EC007
:1050A00066E871E090E080E00E940D340E94B7183D
:1050B000B82E8CE096E00E940A06AE014F5F5F4F6B
:1050C0006A017E015DE3E50EF11C86018B2D0E94D5
:1050D0001D0FD6018D939D936D01AE15BF05B1F7E0
:1050E000DE01139690E04D915D91892F282F082EB7
:1050F000000C330BF901EE0FFF1FE00FF11F608171
:105100007181F90131964617570744F4EE0FFF1FDE
:10511000E00FF11F71836083815040F7E82F880F03
:10512000FF0B3196EE0FFF1FE00FF11F51834083FD
:105130009F5F9D31C1F66D8D7E8D8F8D98A1680F1B
:10514000791F072E000C880B990B0E94BD3520E0BB
:1051500030E040E05FE30E941C3620E030E040EAAF
:1051600050E40E941C3620E030E040E85AE30E9400
:105170001C366B017C01AC019B016DEC7CEC84E87E
:1051800090E40E949A3720E030E040E05FE30E9424
:1051900048391816FCF420E030E040E250E4C70142
:1051A000B6010E949A3720E030E84DEE54E40E94A8
:1051B0001C369B01AC0160E070E088E494E40E943E
:1051C0009A376B017C0120E030E0A9010E94B635DE
:1051D00087FF40CFC12CD12C76013CCF6AE372E02F
:1051E000C8010E94C43A892B09F04AC066E871E000
:1051F00090E080E00E940D340E94B7187C0183E0AB
:1052000096E00E940A0687010E501109043011052C
:1052100010F00FEF1FEF8E2D0E941D0F6C01990FE4
:10522000EE08FF080F3F1007D1F0C701B6010E943A
:10523000BD35AB01BC0181E1809FF001819FF00D84
:105240001124E859FC4F8081882349F0C8010E944D
:10525000A01343E050E00E94AB180C942021C7013A
:10526000B6010E94BD3520E030E040E054E40E94E9
:105270009A3720E030E040E05BE30E941C36E9CF43
:1052800062E472E0C8010E94C43A892B09F047C069
:1052900066E871E090E080E00E940D340E94B7184B
:1052A0007C018AEF95E00E940A0687010E501109E1
:1052B0000430110510F00FEF1FEF8E2D0E941D0F0F
:1052C0006C01990FEE08FF080F3F1007B9F0C701F6
:1052D000B6010E94BD35AB01BC0181E1809FF001A8
:1052E000819FF00D1124E859FC4F8081882331F013
:1052F000C8010E94A01342E050E0ADCFC701B60143
:105300000E94BD3520E030E048EC51E40E941C369C
:1053100020E030EC4FE754E40E947938ECCF6AE4A7
:1053200072E0C8010E94C43A892B09F067C00E944C
:10533000EB0A0E943F1A0091B3031091B403C80115
:105340000E944511882351F0D80116968C9116972A
:105350008B3059F018F08551823028F1C12CD12CB6
:1053600050ECE52E5FE7F52E09C0F801628170E090
:1053700090E080E00E94BB356B017C0183EF95E0FB
:105380000E940A06A7019601C701B6010E94593979
:10539000882309F45FCEC12C30ECD32E39E7E32EFD
:1053A00034ECF32E57CE1296BC906B2D6F7770E0D5
:1053B00090E080E00E94BD3520E030E040E853E41A
:1053C0000E941C366B017C01F801638170E090E063
:1053D00080E00E94BD35A70196010E949B372DEC0D
:1053E0003CEC4CEC5DE30E941C366B017C01B7FE8B
:1053F000C5CFF7FAF094F7F8F094C0CF60E572E00B
:10540000C8010E94C43A892B09F04AC00E94EB0AE5
:105410000E943F1A0091B3031091B403C8010E9487
:105420004511882351F0D80116968C9116978B3030
:1054300059F018F08551823098F0C12CD12C40ECF5
:10544000E42E4FE7F42E09C0F801608170E090E08F
:1054500080E00E94BB356B017C018CEE95E090CF23
:105460006C9170E090E080E00E94BB3520E030E07D
:1054700040E853E40E941C366B017C01F801618115
:1054800070E090E080E00E94BD35A70196010E9487
:105490009B372DEC3CEC4CEC5DE30E941C36DBCFE3
:1054A00066E572E0C8010E94C43A4C01892B09F0FC
:1054B000FAC166E871E090E080E00E940D345C0182
:1054C0000E94B7186C0166E871E090E080E00E94ED
:1054D0000D34009719F00E94E6334C018091B1031E
:1054E0009091B203009771F0209108013091090169
:1054F000C216D30609F4DCC00E94343A1092B203FB
:105500001092B1038091610390916203009711F0B2
:105510000E94343A8EE090E00E9498397C0160E06D
:105520008C2D0E945904C6019927FC01E75EF84FB3
:10553000E491D701EC93FC01EB5FF84FE491F0E0CC
:10554000EE0FFF1FE550F94F85919491F70192837B
:105550008183138615861486F0926203E0926103BC
:1055600084E190E00E9498398C01DC011796FC924E
:10557000EE92169714961C92149715961C921597F6
:105580001C9289E011968C93119781E012968C936E
:10559000129713968C93139753961C921E925297C0
:1055A0001093B2030093B103F7011286118610869F
:1055B00017821682158214821382EE24E394BE01B0
:1055C0006F5F7F4FD80116968D919C910E94721645
:1055D000882309F469C067E0CE0101960E94760F26
:1055E00098858913ECCFF8018081811124C08681D0
:1055F00097810E943310BE016F5F7F4FD8011696CE
:105600008D919C910E94141040E064EBF80186811A
:1056100097810E94E00FD80116968D919C910E946F
:105620008D0FF82EF801868197810E943310F110BA
:1056300002C0D801EC92F801F1808981803109F42F
:10564000A5C7BE016F5F7F4FC8010E94B8108F15BC
:10565000C8F4D80111968C91F801818384818F5F01
:1056600084838981883231F0C8F4803119F0823224
:1056700009F0A5CFD80115968C9115978F5F1596D7
:105680008C939DCF8981803111F48CE0E5CFBE01F0
:105690006F5F7F4FC8010E94B810DECF8B3351F38C
:1056A000823409F08CCFE6CFD0920901C092080174
:1056B0000091B1031091B203F801868197810E9495
:1056C000331040E06CECD80116968D919C910E94AD
:1056D000E00FF801408164E4868197810E94E00F29
:1056E000D80112968C911297882399F11196EC911A
:1056F000E9508EEEC82E82E0D82EE33038F4F0E088
:10570000EE0FFF1FE35CFE4FC080D180F801838164
:10571000882309F457C08081811154C00E94650F0D
:105720002B013C010D2C000CEE08FF08D801169649
:105730008D919C910E948D0F813059F00E94650FD0
:105740006C197D098E099F096415750586059705F5
:1057500068F3E82CD8011696ED91FC911386158616
:10576000148612861186108617821682158214827C
:105770001382F12CBE01635C7F4FF8018681978113
:105780000E947216811125C0C12CD12CAEEFEA2ED9
:10579000A2ECFA2E88EE95E00E940A06A114B1044C
:1057A00021F467E9A62E61E0B62EC5010E94CC1750
:1057B0008FE50E94710FC4010E949E1780E20E9433
:1057C000710F48CCB601DD0C880B990B0E94320F8B
:1057D000C0CFEF1421F0F394EF1460F6D5CF67E05B
:1057E000CE01CD960E94760F25969FAD2597891301
:1057F000F2CFF801868197810E943310882321F22D
:10580000AE014F5F5F4FBE01635C7F4FC8010E94D6
:105810006B10882309F4B8CF68E0CE0101960E948E
:10582000760F99858913B0CF6A8170E0762F66274D
:10583000770F770F770F2981F8E02F9F90011124C0
:10584000262B372B8DAD8031D1F4688570E08F81A8
:105850006B01C81AD108C6019695982F882797958D
:1058600087950E947E39CB014097B901F3E0660F1E
:10587000771FFA95E1F760789C01260F371F2138D2
:1058800044EE34070CF480CFB901330F880B990B29
:105890000E94BD3520E030E040E05CE30E941C3611
:1058A0006B017C0177CF60E672E0C8010E94C43AC8
:1058B000892B89F50E947E1E8091AF039091B003E1
:1058C0000E948A1A81EE95E00E940A06E091AF03D9
:1058D000F091B00360A171A182A193A142E00E9466
:1058E000D31780E20E94710FE091AF03F091B003F3
:1058F00064A175A186A197A142E00E94D31780E21E
:105900000E94710FE091AF03F091B00360A571A503
:1059100082A593A5F0CC66E672E0C8010E94C43A65
:10592000892B89F50E947E1E8091AF039091B00370
:105930000E948A1A8BED95E00E940A06E091AF035F
:10594000F091B00364A575A586A597A542E00E94D5
:10595000D31780E20E94710FE091AF03F091B00382
:1059600060A971A982A993A942E00E94D31780E29D
:105970000E94710FE091AF03F091B00364A975A983
:1059800086A997A9B8CC6BE672E0C8010E94C43A18
:10599000892B71F061E772E0C8010E94C43A892B3B
:1059A00039F066E772E0C8010E94C43A892B89F495
:1059B00066E871E090E080E00E940D340E94B71824
:1059C000F82EC8010E94CC1780E20E94710F8F2D23
:1059D00028C06AE772E0C8010E94C43A892B11F01E
:1059E0000C94202166E871E090E080E00E940D3484
:1059F0000E94B718082F66E871E090E080E00E94EE
:105A00000D340E94B718182F86ED95E00E940A0603
:105A1000802F0E941D0F0E949E1780E20E94710F2E
:105A2000812F0E941D0F83C06EE772E0C7010E94A4
:105A3000C43A892B09F0F9C066E871E090E080E093
:105A40000E940D348C01009711F40C94202164E81D
:105A500072E00E94C43A892B09F045C00E94EB0A0B
:105A60008C010E94EB0ABC01C8010E94C818811178
:105A700004C08CEC95E00C948F2084EC95E00E949F
:105A80000A060091AD031091AE0355E0B52EC12C6E
:105A9000D12C7601C8010E941816C60ED71EE81E2A
:105AA000F91EBA94B110F6CFC701B60125E030E077
:105AB00040E050E00E942237F80185819681A7815D
:105AC000B08569017A01C81AD90AEA0AFB0AC70136
:105AD000B6010E94BD35D80119962D913D914D9189
