:100000000C949B020C94C3020C94C3020C949C2E7F
:100010000C949C2E0C949C2E0C94C3020C94C30242
:100020000C94C3020C94C3020C94C3020C94C3023C
:100030000C94C3020C94C3020C94C3020C94C3022C
:100040000C94EC2D0C94C3020C945C2E0C94362E64
:100050000C94C3020C94C3020C94C3020C94C3020C
:100060000C94142F0C94C302084AD73B3BCE016E6C
:1000700084BCBFFDC12F3D6C74319ABD56833DDAFF
:100080003D00C77F11BED9E4BB4C3E916BAAAABE0E
:10009000000000803F07634236B79BD8A71A396833
:1000A0005618AEBAAB558C1D3CB7CC5763BD6DED41
:1000B000FD753EF6177231BF000000803F0800005A
:1000C00000BE922449123EABAAAA2ABECDCCCC4C8B
:1000D0003E00000080BEABAAAAAA3E00000000BFFE
:1000E000000000803F0000000000084178D3BB43BF
:1000F00087D1133D190E3CC3BD4282AD2B3E68EC47
:100100008276BED98FE1A93E4C80EFFFBE01C4FFCD
:100110007F3F0000000000006F6B006572722000DE
:10012000626D705F696E69740073645F696E697493
:100130000062745F61742000746F662063616C5F9D
:1001400073617665642000000000000000005F001D
:10015000000007000700147F147F14242A7F2A124E
:10016000231308646236495522500005030000003D
:100170001C2241000041221C00082A1C2A080808F1
:100180003E080800503000000808080808006060B9
:10019000000020100804023E5149453E00427F40C5
:1001A0000042615149462141454B311814127F10DC
:1001B00027454545393C4A4949300171090503360F
:1001C00049494936064949291E003636000000567D
:1001D000360000000814224114141414144122148F
:1001E00008000201510906324979413E7E11111180
:1001F0007E7F494949363E414141227F4141221C8F
:100200007F494949417F090901013E414151327FFE
:100210000808087F00417F41002040413F017F08DE
:100220001422417F404040407F0204027F7F040847
:10023000107F3E4141413E7F090909063E4151215F
:100240005E7F09192946464949493101017F01016B
:100250003F4040403F1F2040201F7F2018207F63E9
:100260001408146303047804036151494543007F73
:1002700041410002040810200041417F00040201B6
:100280000204404040404000010204002054545405
:10029000787F484444383844444420384444487FB4
:1002A0003854545418087E0901020C5252523E7FB1
:1002B0000804047800447D40002040443D007F1045
:1002C00028440000417F40007C041804787C080426
:1002D000047838444444387C14141408081414185E
:1002E0007C7C080404084854545420043F444020B3
:1002F0003C4040207C1C2040201C3C4030403C4482
:10030000281028440C5050503C4464544C4400087D
:1003100036410000007F0000004136080008040854
:10032000100800000000002C646D6D002C74432C3C
:100330007050612C616D002C61782C61792C617A90
:100340002C616E782C616E792C616E7A0074696D07
:10035000655F7300636D64006C6F675F7375620047
:100360006C6F6720006C6F675F6D61736B006C6F03
:10037000675F7375620062745F7375620062745FB9
:100380006E616D650062745F7375620073645F73A4
:1003900075620073645F656E6400736420726561EA
:1003A00064200073645F6F70656E0073645F7061DA
:1003B00074680073645F72656D6F76650073645F67
:1003C000706174680073645F737562006F6C65645C
:1003D0005F737562006F6C65645F73756200746F44
:1003E000665F737562003F00746F662000746F660D
:1003F0005F6765745F6B657900746F665F63616CDE
:100400005F72616E676500746F665F73756200622C
:100410006D705F737562003F00626D702000626DE9
:10042000705F6765745F6B657900626D70206361F2
:100430006C5F73617665642000626D705F737562D6
:10044000006D70755F737562003F006D7075200000
:100450006D70755F6765745F6B6579006D70755F52
:1004600073756200302E390066772000706F6E67FA
:100470000043415053206D70752C626D702C746F69
:10048000662C6F6C65642C73642C62742C6C6F67C3
:1004900000524541445920626F6172643D64736C3F
:1004A0006D696E692066773D302E39007C3C3E5E7A
:1004B0002B3D3F2F5B5D3B2C2A225C005245414483
:1004C0005920626F6172643D64736C6D696E69205E
:1004D00066773D302E390000000000240027002AF6
:1004E00000000000080002010000030407000000F3
:1004F000000000000000000000230026002900008A
:10050000000000250028002B000404040404040457
:1005100004020202020202030303030303010204B2
:100520000810204080010204081020010204081075
:1005300020006F311E3511241FBECFEFD8E0DEBF83
:10054000CDBF27E0A2E8B2E001C01D92AE3DB207E8
:10055000E1F712E0A0E0B1E0E8EDFBE702C00590B2
:100560000D92A238B107D9F712E0CAE9D2E004C06F
:100570002197FE010E945E3CC939D107C9F70E944C
:1005800073320C94DF3D0C94000091E09093EB05E6
:1005900080930D061092EC0510920E0608950895B2
:1005A000089590E0FC01EF51FB4F2491FC01E35EC4
:1005B000FA4F3491FC01E75FFA4FE491EE23C9F062
:1005C000222339F0233001F1A8F4213019F122302F
:1005D00029F1F0E0EE0FFF1FE150FB4FA591B49120
:1005E0008FB7F894EC91611126C030953E233C936F
:1005F0008FBF08952730A9F02830C9F0243049F77B
:10060000809180008F7D03C0809180008F778093E0
:100610008000DFCF84B58F7784BDDBCF84B58F7D3D
:10062000FBCF8091B0008F778093B000D2CF8091C4
:10063000B0008F7DF9CF3E2BDACFCF93DF9390E0E0
:10064000FC01E35EFA4F2491875F9A4FFC0184918D
:100650008823D1F090E0880F991FFC01E952FB4FED
:10066000A591B491FC01E150FB4FC591D49161116A
:100670000EC09FB7F8948C91E22FE0958E238C9357
:100680002881E223E8839FBFDF91CF9108958FB740
:10069000F894EC91E22BEC938FBFF6CF3FB7F89430
:1006A0008091C0039091C103A091C203B091C30394
:1006B00026B5A89B05C02F3F19F00196A11DB11DBD
:1006C0003FBFBA2FA92F982F8827BC01CD01620FF9
:1006D000711D811D911D42E0660F771F881F991FB4
:1006E0004A95D1F708958F929F92AF92BF92CF9281
:1006F000DF92EF92FF924B015C010E944E036B016F
:100700007C010E944E036C197D098E099F09683E89
:10071000734081059105A8F321E0821A9108A10890
:10072000B10888EEC80E83E0D81EE11CF11C8114CC
:100730009104A104B10429F7FF90EF90DF90CF90CE
:10074000BF90AF909F908F9008952FB7F8946091CD
:10075000BC037091BD038091BE039091BF032FBF76
:100760000895DC01ED91FC910190F081E02D099458
:10077000EF92FF920F931F93CF93DF938C017B0136
:10078000D0E0C0E0F701EC0FFD1F6491662361F03B
:10079000D801ED91FC910190F081E02DC8010995FF
:1007A000892B11F02196EECFCE01DF91CF911F91D1
:1007B0000F91FF90EF900895AF92BF92CF92DF928A
:1007C000EF92FF920F931F93CF93DF936C017B0106
:1007D0008B01040F151FEB015E01AE18BF08C01797
:1007E000D10759F06991D601ED91FC910190F0810A
:1007F000E02DC6010995892B79F7C501DF91CF91CD
:100800001F910F91FF90EF90DF90CF90BF90AF902E
:100810000895FC01538D448D252F30E0842F90E006
:10082000821B930B541710F04F960895019708956B
:10083000FC01918D828D981779F0A28DAE0FBF2F9C
:10084000B11D5D962C91828D8F5F60E30E94673AA7
:10085000928F822F90E008958FEF9FEF0895FC0113
:10086000918D828D981731F0828DE80FF11D858D65
:1008700090E008958FEF9FEF0895FC01918D228DF8
:10088000892F90E0C096821B910960E370E00E947E
:10089000733A08958BE596E00E943D0421E0892B90
:1008A00009F420E0822F089580E090E0892B29F060
:1008B0000E944A0481110C9400000895FC01A48D4B
:1008C000A80FB92FB11DA35BBF4F2C91848D90E071
:1008D00001968F719927848FA689B7892C93A08957
:1008E000B1898C91837080648C93938D848D9813DF
:1008F00006C00288F389E02D80818F7D8083089572
:10090000EF92FF920F931F93CF93DF93EC0181E05F
:10091000888F9B8D8C8D98131AC0E889F989808106
:1009200085FF15C09FB7F894EE89FF896083E88939
:10093000F98980818370806480839FBF81E090E02B
:10094000DF91CF911F910F91FF90EF900895F62EB8
:100950000B8D10E00F5F1F4F0F711127E02E8C8D54
:100960008E110CC00FB607FCFACFE889F989808197
:1009700085FFF5CFCE010E945E04F1CFEB8DEC0F29
:10098000FD2FF11DE35BFF4FF0829FB7F8940B8FB3
:10099000EA89FB8980818062CFCFCF93DF93EC011E
:1009A000888D8823B9F0AA89BB89E889F9898C9157
:1009B00085FD03C0808186FD0DC00FB607FCF7CF13
:1009C0008C9185FFF2CF808185FFEDCFCE010E9413
:1009D0005E04E9CFDF91CF9108958FB7F8948091AD
:1009E0000D038FBF089561E0FC0184810E94D10254
:1009F00080910C03811110920C0308958EBD0000AC
:100A00000DB407FEFDCF8EB508958FEF0C94FE0454
:100A10000F931F93CF93DF93EC010E94A5038B01EB
:100A20000E9405058F3F69F00E94A503601B710BB2
:100A30006C177D07A8F380E0DF91CF911F910F9194
:100A4000089581E0F9CF8CBD9DBD0895CF93DF93CC
:100A5000EC0180910C03811109C081E080930C03AB
:100A60008091C8069091C9060E94230560E08C81A0
:100A7000DF91CF910C94D1028F929F92AF92BF924F
:100A8000FF920F931F93CF93DF93EC01F62E490152
:100A90005A018E81882389F08F8198859C012F5F70
:100AA0003F4F38872F838230924018F40E9405050B
:100AB000F3CFCE010E94F3041E82CE010E942605D0
:100AC0008CE291E00E9408058F2D80640E94FE0454
:100AD00008E110E0D501C401002E04C0B695A79529
:100AE000979587950A94D2F70E94FE040850110941
:100AF000083F8FEF180771F785E9FF2021F028E004
:100B000087E8F2128FEF0E94FE0410E00E940505B4
:100B10008A8787FF04C01F3F11F01F5FF7CFDF9167
:100B2000CF911F910F91FF90BF90AF909F908F90AA
:100B30000895AF92BF92CF92DF92EF92FF920F9300
:100B40001F93CF93DF93EC016901C801820F931FBC
:100B50008130924050F58E81882379F08881998187
:100B6000AA81BB8184179507A607B70731F48F8147
:100B70009885C816D90608F042C0488359836A830D
:100B80007B838B85833039F089E0440F551F661FC6
:100B9000771F8A95D1F79A01AB0161E1CE010E94DE
:100BA0003C05882389F083E08D83CE010E94F30405
:100BB00080E0DF91CF911F910F91FF90EF90DF9038
:100BC000CF90BF90AF9008950E94A5035B010E9453
:100BD00005058A878F3F69F40E94A5036A197B097E
:100BE0006D327140A0F38FE08D83CE010E94F3043B
:100BF000DCCF8E3F89F418861F8281E08E838F813F
:100C000098858C159D0550F40E9405058F81988567
:100C1000019698878F83F3CF8DE0E6CF6701E00ED2
:100C2000F11E0E940505F60181936F01EE15FF0587
:100C3000C1F78F819885080F191F18870F83898541
:100C4000882319F001151240A0F08E81882389F0C5
:100C50008F8198859C012F5F3F4F38872F8382308B
:100C6000924018F40E940505F3CFCE010E94F304D0
:100C70001E8281E09ECFCF92DF92EF92FF920F9380
:100C8000CF93DF93EC01690182E1411551056105C4
:100C9000710599F08B85833039F089E0440F551F39
:100CA000661F771F8A95D1F79A01AB0168E1CE01E3
:100CB0000E943C05882319F084E08D832DC08EEFBF
:100CC0000E94FE0476018EEFD81AF70181917F0110
:100CD0000E94FE04EC14FD04C1F78FEF0E94FE0495
:100CE0008FEF0E94FE040E9405058A878F71853070
:100CF00071F4011116C0CE010E94F30481E0DF916E
:100D0000CF910F91FF90EF90DF90CF90089581E108
:100D10008D83CE010E94F304CE010E94F30480E093
:100D2000EECF88E592E00E940805811102C085E1BE
:100D3000C4CF20E030E0A9016DE0CE010E943C0567
:100D4000882311F084E1B9CF0E9405058111FACF03
:100D5000D2CF0F9340910F03509110036091110374
:100D600070911203411551056105710599F0082F25
:100D700029EC33E08091C9059091CA050E943B0699
:100D8000882349F010920F03109210031092110360
:100D90001092120381E00F9108950F93CF93C82F03
:100DA00080910E03811105C0C1E08C2FCF910F916E
:100DB00008954091020150910301609104017091E6
:100DC00005010C2F29EC33E08091C9059091CA05EB
:100DD0000E943B06811102C0C0E0E7CFCC2321F383
:100DE00081E00E94A9068823B9F310920E03DDCF9B
:100DF0008F929F92AF92BF92EF92FF920F931F93A9
:100E0000CF934B015C01C42F8091020190910301AB
:100E1000A0910401B091050188159905AA05BB05AB
:100E200051F181E00E94CD0681110BC080E0CF918D
:100E30001F910F91FF90EF90BF90AF909F908F9078
:100E4000089589ECE82E83E0F82E00E012E030E00F
:100E500020E0B501A4018091C9059091CA050E94C6
:100E60009905882319F38092020190920301A092C0
:100E70000401B092050140910E034C2B40930E03E8
:100E800081E0D5CF8F929F92AF92BF92CF92DF92A7
:100E9000EF92FF92CF932AEC36E03093CA0520936D
:100EA000C905882309F46DC040E060E070E0CB0123
:100EB0000E94F80681110BC080E0CF91FF90EF9067
:100EC000DF90CF90BF90AF909F908F9008958091CA
:100ED00087058F7789F78091930590919405A0916C
:100EE0009505B091960584369105A105B10520F3CD
:100EF000C0908F05D0909005E0909105F0909205FC
:100F0000C114D104E104F104B9F240E0C701B60113
:100F10000E94F806882381F28091D4039091D50332
:100F20008115924049F6A091D903AA2329F2609134
:100F3000D7037091D8036115710509F4BDCF2091D5
:100F4000D603222309F4B8CFA093E8062093DA064B
:100F500090E080E030E0E1E0F0E0C82FAF01082E43
:100F600002C0440F551F0A94E2F72417350769F0B1
:100F700041E0480F01968930910579F74093E306E7
:100F80009BCFC12CD12C7601C0CF8093E30620915A
:100F9000DF033091E00350E040E02115310541F4DA
:100FA0002091ED033091EE034091EF035091F00357
:100FB0002093DB063093DC064093DD065093DE067B
:100FC00046015701860E971EA11CB11C8092E906AE
:100FD0009092EA06A092EB06B092EC06E091DA035A
:100FE000F091DB03F093EF06E093EE06B0E00E9491
:100FF000C83ADC01CB01880D991DAA1DBB1D809349
:10100000F0069093F106A093F206B093F30625E064
:10101000EE0FFF1F2A95E1F7E150FE4FEF2FFF275C
:10102000E6958E0F9F1FA11DB11D8093E40690933E
:10103000E506A093E606B093E7068090DC03909067
:10104000DD03B12CA12C8114910441F48090E903BB
:101050009090EA03A090EB03B090EC03C81AD90A71
:10106000EA0AFB0AC80CD91CEA1CFB1C04C0F69453
:10107000E794D794C794CA95D2F7C092DF06D0926E
:10108000E006E092E106F092E20685EFC8168FE0F6
:10109000D806E104F10428F48CE08093ED0681E0A9
:1010A0000CCF80E125EFC2162FEFD206E104F10448
:1010B000A0F38091F5039091F603A091F703B0910E
:1010C000F8038093F0069093F106A093F206B09394
:1010D000F30680E2E2CFCF93DF93EC016E857F854C
:1010E0008889998941E00E94F806882351F08A890D
:1010F00020E2829FC001112487539C4FDF91CF9142
:10110000089590E080E0FACF4F925F926F927F92C5
:101110008F929F92AF92BF92CF92DF92EF92FF9207
:101120000F931F93CF93DF93EC014230510561057C
:10113000710590F480E0DF91CF911F910F91FF90A6
:10114000EF90DF90CF90BF90AF909F908F907F9067
:101150006F905F904F90089589859A85AB85BC8587
:101160000196A11DB11D84179507A607B70710F3B7
:10117000CB88DC88ED88FE888F89803109F042C0F9
:10118000BB27A72F962F852F480159012A013B0124
:10119000C80ED91EEA1EFB1E809102019091030128
:1011A000A0910401B0910501C816D906EA06FB0614
:1011B00099F58F898031C1F5B301A20155276627C2
:1011C0007727440F551F47535C4FFA019182808265
:1011D00080910E03816080930E038A89823080F0B3
:1011E0008D819E81AF81B8858C0D9D1DAE1DBF1D6B
:1011F00080930F0390931003A0931103B0931203F5
:1012000081E099CFDB01CA01E7E0B695A7959795F4
:101210008795EA95D1F7B8CF40E0C701B6010E94A3
:10122000F8068111C6CF86CFB301A2014F775527AB
:1012300066277727440F551F440F551F47535C4FB0
:10124000FA0180829182A282B382C2CF8F929F9252
:10125000AF92BF92CF92DF92EF92FF920F931F93C4
:10126000CF93DF93FC0181859285A385B485019698
:10127000A11DB11D84179507A607B70770F480E07C
:10128000DF91CF911F910F91FF90EF90DF90CF9062
:10129000BF90AF909F908F90089583889488A58881
:1012A000B6888789803189F5BB27A72F962F852F90
:1012B000E9016A017B018F01BC01CD01680D791D37
:1012C0008A1D9B1D8090020190900301A090040153
:1012D000B090050186169706A806B90601F5F80133
:1012E0008789803111F5DD24EE24FF24F601EE0F0D
:1012F000FF1FE753FC4F80819181B0E0A0E088831D
:101300009983AA83BB8381E0BBCFDB01CA01C7E01D
:10131000B695A79597958795CA95D1F7C9CF40E01F
:101320000E94F8068111DBCFAACFE894C7F8DD242C
:10133000EE24FF24F601EE0FFF1FEE0FFF1FE75311
:10134000FC4F80819181A281B381BF70D8CF4F9231
:101350005F926F927F92AF92BF92CF92DF92EF92A5
:10136000FF920F931F93CF93DF9300D000D0CDB7A0
:10137000DEB78C0149835A836B837C835901C12C6E
:10138000D12C7601412C82E0582E612C712C4981A0
:101390005A816B817C819E012F5F3F4FC8010E9463
:1013A0002609882339F1F8018585A301920104C03B
:1013B000220F331F441F551F8A95D2F7DA01C90146
:1013C000C80ED91EEA1EFB1E49815A816B817C81A1
:1013D0008789803111F188EF9FEFAFEFBFE04817A9
:1013E00059076A077B0798F2F501C082D182E28231
:1013F000F38281E00F900F900F900F90DF91CF91CB
:101400001F910F91FF90EF90DF90CF90BF90AF9022
:101410007F906F905F904F90089588EF9FEFA0E0CE
:10142000B0E0DDCFCF93DF93FC012581222321F0B3
:1014300080E0DF91CF910895EC018091ED0680313D
:1014400059F582E08583178A108E118E128E809155
:10145000EE069091EF06B0E0A0E025E0880F991F1E
:10146000AA1FBB1F2A95D1F7838B948BA58BB68BB4
:1014700086ED96E09C8F8B8F81E08C831E821F828D
:10148000188619861A861B861C861D861E861F8650
:10149000188A198A1A8ACDCF803251F683E0858363
:1014A0004091F0065091F1066091F2067091F306BA
:1014B000478B508F618F728F9F012D5E3F4F86ED5E
:1014C00096E00E94A7098111D3CFB2CF8F929F924D
:1014D000AF92BF92CF92DF92EF92FF920F931F9342
:1014E000CF93DF93EC018D8181110EC080E0DF91FD
:1014F000CF911F910F91FF90EF90DF90CF90BF9011
:10150000AF909F908F9008950B891C892D893E89FB
:10151000041715072607370748F34A015B01823095
:1015200031F48A869B86AC86BD8681E0E0CF81144B
:101530009104A104B10449F41E821F821886198601
:101540001A861B861C861D86F0CF0A851B852C8576
:101550003D85EB8DFC8D858590E00996B901A8014C
:101560004150510961097109082E04C076956795AB
:10157000579547950A94D2F775016401E1E0CE1AB8
:10158000D108E108F10804C0F694E794D794C79411
:101590008A95D2F7C416D506E606F70620F0012B89
:1015A000022B032B11F58F89988DA98DBA8D8E830F
:1015B0009F83A887B9878E010A5F1F4FC114D1048A
:1015C000E104F10409F4ADCF4E815F81688579852E
:1015D00098018B8D9C8D0E94260991E0C91AD10833
:1015E000E108F1088111EACF81CFC41AD50AE60AD1
:1015F000F70AE1CF3F924F925F926F927F928F9264
:101600009F92AF92BF92CF92DF92EF92FF920F9391
:101610001F93CF93DF93CDB7DEB72C970FB6F89417
:10162000DEBF0FBECDBF5C01DC015B968D909C9050
:101630005C9716964D905D906D907C901997411433
:1016400051046104710409F468C0BFEF4B1A5B0ACE
:101650006B0A7B0A312CF40181859285A385B485C0
:101660009C01AD012F5F3F4F4F4F5F4F29873A8756
:101670004B875C87730162011D821E821F82188660
:10168000F40181859285A385B4852D813E814F81AA
:101690005885281739074A075B0708F056C089851F
:1016A0009A85AB85BC858C159D05AE05BF0550F4AC
:1016B00082E0C82ED12CE12CF12C92E0492E512C45
:1016C000612C712C9E012F5F3F4FB701A601C40111
:1016D0000E9426098823C9F189819A81AB81BC8146
:1016E000892B8A2B8B2B09F1260137019FEF491A91
:1016F000590A690A790A2D813E814F8158852F5FE9
:101700003F4F4F4F5F4F2D833E834F8358873FEFAF
:10171000C31AD30AE30AF30AB3CFF401408051801D
:10172000628073803324339496CFC414D504E604C6
:10173000F70409F70FEF1FEF2FEF3FE0B701A60106
:10174000C4010E948408811119C080E02C960FB654
:10175000F894DEBF0FBECDBFDF91CF911F910F91E7
:10176000FF90EF90DF90CF90BF90AF909F908F90C1
:101770007F906F905F904F903F900895D50116969F
:101780004D915D916D917C911997411551056105C0
:10179000710539F097018601C4010E9484088823ED
:1017A000A1F2D5011696CD92DD92ED92FC92199799
:1017B000332051F0D701C6010196A11DB11DF401DE
:1017C00080839183A283B383F5018789908DA18D56
:1017D000B28D892B8A2B8B2B39F48481C78AD08ECA
:1017E000E18EF28E80688483F50184818062848337
:1017F00081E0ACCF1F93CF93DF93FC01258122239F
:1018000071F1162FEC01848187FF1EC0CF010E9469
:101810006B08FC01892B19F18D81823040F48B8992
:101820009C89AD89BE89848F958FA68FB78F8F894C
:10183000988D938F828F8F89988DA98DBA8DB58B56
:10184000A48B8C818F778C83111103C08C818F7E48
:101850008C83812FDF91CF911F910C94CD0680E076
:10186000DF91CF911F910895FF920F931F93CF9314
:10187000DF93EC018D81813041F090E080E0DF91D9
:10188000CF911F910F91FF9008958C8181FFF5CF2B
:1018900082FD1BC00091C9051091CA05C8010E94B4
:1018A00026050E940505F82EC8010E94F3048FEF5B
:1018B000F812E3CF8C8185FF1BC060E0CE010E944F
:1018C000FA0B8C818F7D8C83D8CF4B895C896D8995
:1018D0007E898A859B85AC85BD8584179507A6077B
:1018E000B707C1F2CE010E94660A8111D3CFC5CFDE
:1018F00040910F03509110036091110370911203F6
:10190000452B462B472B21F080E00E94A906B5CF3E
:1019100080618C832A853B85317080E092E0821B58
:10192000930BADCFCF93DF93EC0161E00E94FA0BF4
:10193000882311F01D8281E0DF91CF9108952F92CD
:101940003F924F925F926F927F928F929F92AF924F
:10195000BF92CF92DF92EF92FF920F931F93CF939C
:10196000DF9300D000D01F92CDB7DEB77C015B01C2
:10197000342E5D83DC0115968C911597813009F02A
:10198000CEC014962C9021FECAC022FCB4C0C32C39
:10199000DD8022947FE027222094B22DB1702B2E7F
:1019A000D7011A964D915D916D917C911D97C1144F
:1019B000D10409F428C15B968D919C915C97FC0140
:1019C00074807A948A019B0169E036952795179572
:1019D00007956A95D1F770228A011170711020C0A5
:1019E00001151105E9F416964D915D916D917C916B
:1019F0001997411551056105710509F099C0579670
:101A00008D919D910D90BC91A02D0097A105B105E0
:101A100009F0B0C0C7010E94FA0A882309F47FC008
:101A200080E092E0801B910B46018C159D0508F427
:101A30004C01D7015B964D915C915C9716968D9108
:101A40009D910D90BC91A02D0297A109B109FA01B9
:101A5000258504C0880F991FAA1FBB1F2A95D2F79E
:101A60004685578560897189840F951FA61FB71F0A
:101A70009C01AD01270D311D411D511D29013A0168
:101A8000811432E0930609F07BC0809102019091AD
:101A90000301A0910401B091050184159505A605E7
:101AA000B70559F48FEF9FEFDC018093020190930B
:101AB0000301A0930401B0930501022D9501B30128
:101AC000A2018091C9059091CA050E943B06882316
:101AD00031F19EEFB91AC818D908F70182859385AC
:101AE000A485B585880D991DA11DB11D8287938799
:101AF000A487B58755CFF7014389548965897689CD
:101B000082859385A485B585481759076A077B07A1
:101B100009F43DCFC7010E94660A811138CF81E0E8
:101B200090E0D70113969C938E93129780E007C0A4
:101B30009E012F5F3F4F0E942609811102C090E055
:101B400079C089819A81AB81BC81F701238D348D65
:101B5000F901278948EF5FEF60E070E0203121F064
:101B600048EF5FEF6FEF7FE084179507A607B70791
:101B700008F050CFF70186839783A087B18750CFB5
:101B80000115110599F5D7011A964D915D916D9149
:101B90007C911D9753968D919D910D90BC91A02D98
:101BA000481759076A077B0708F181E00E94CD06B4
:101BB000882309F4B4CF409202015092030160924D
:101BC00004017092050180910E03816080930E03E1
:101BD000C80187539C4FD5019C01280D391DFC017C
:101BE0002E173F0759F04D914193FACF41E0C301C1
:101BF000B2010E94F8068111EBCF91CF281B390B5F
:101C0000A20EB31E68CFF70183899489A589B6898E
:101C100084179507A607B70738F48481438B548B44
:101C2000658B768B80688483F701848183FD1AC07D
:101C3000832D9D810F900F900F900F900F90DF914B
:101C4000CF911F910F91FF90EF90DF90CF90BF90B9
:101C5000AF909F908F907F906F905F904F903F904C
:101C60002F90089561E0C7010E94FA0B882309F4C0
:101C700056CFDECFCF93DF931F92CDB7DEB7698308
:101C800041E050E0BE016F5F7F4F0E949F0C0F90BC
:101C9000DF91CF910895FC01DB0112968D919C910B
:101CA0001397938382838CE491E0918380831496CD
:101CB0008C911497848315968C911597858316962D
:101CC0004D915D916D917C91199746835783608703
:101CD00071871A964D915D916D917C911D97428708
:101CE0005387648775871E964D915D916D917C91A8
:101CF000519746875787608B718B52968C9152977C
:101D0000828B53964D915D916D917C915697438B4B
:101D1000548B658B768B57964D915D916D917C912F
:101D20005A97478B508F618F728F5B968D919C91E4
:101D3000948F838F08950895FC01818D928D009773
:101D400019F061E00C94FA0B0895DC015996ED91BD
:101D5000FC913097B9F083899489A589B689428529
:101D6000538564857585841B950BA60BB70B811570
:101D700020E89207A105B10538F08FEF9FE7A0E0BA
:101D8000B0E0089590E080E00895DC0159968D91CF
:101D90009C91009739F0DC01ED91FC910480F58174
:101DA000E02D099490E080E00895CF93DF93EC015B
:101DB000E98DFA8D309749F481E090E09B838A8326
:101DC00090E080E0DF91CF91089513821282898D97
:101DD0009A8D0E949F0CE98DFA8D22813381232BED
:101DE00059F7F0CFCF93DF931F92CDB7DEB769835A
:101DF000DC01ED91FC910280F381E02D41E050E0A7
:101E0000BE016F5F7F4F09950F90DF91CF910895CD
:101E10002F923F924F925F926F927F928F929F92FA
:101E2000AF92BF92CF92DF92EF92FF920F931F93E8
:101E3000CF93DF9300D01F92CDB7DEB7FC01858131
:101E4000811118C08FEF9FEF0F900F900F90DF91CF
:101E5000CF911F910F91FF90EF90DF90CF90BF90A7
:101E6000AF909F908F907F906F905F904F903F903A
:101E70002F900895848180FFE5CF43895489658937
:101E8000768982859385A485B585312C212C4817C8
:101E900059076A077B0719F022242394312C6F011C
:101EA0002101CE0101963C01DF011696BB83AA8376
:101EB0004114510409F4C5C0F60142855385648577
:101EC00075854A01F1E09F22D6015B968D919C9128
:101ED0005C978A019B01E9E0369527951795079550
:101EE000EA95D1F71596EC91E230E9F5FC01628DA7
:101EF000738D848D958D600F711F821F931FA12C90
:101F000022E0B22EA818B9084A145B0408F4520162
:101F1000F601248126FD04C0A114F2E0BF0671F48D
:101F200000910201109103012091040130910501FB
:101F3000061717072807390709F05EC040E00E941E
:101F4000F806882309F47ECFC40187539C4FD30140
:101F50009C012A0D3B1DFC012E173F0709F46CC0A4
:101F600041914D93F9CFDC011496BC90BA94B02204
:101F70008114910479F4B1100DC0452B462B472BE9
:101F800069F5F6018789908DA18DB28D868397833F
:101F9000A087B187D6015B96ED91FC915C97169670
:101FA0006D917D918D919C91199762507109810974
:101FB0009109258504C0660F771F881F991F2A95F0
:101FC000D2F70685178520893189600F711F821F1E
:101FD000931F6B0D711D811D911D91CFD60116961A
:101FE0004D915D916D917C9119972A813B810E9461
:101FF00026098111CFCF26CF730185019401AB0152
:10200000BC018091C9059091CA050E949905882359
:1020100009F418CF6A0C7B1CF60182859385A48590
:10202000B5858A0D9B1DA11DB11D82879387A4874D
:10203000B5874A185B083CCF281B390B620E731E0C
:10204000EBCF2A94232809F0FDCE898190E0FCCEC5
:10205000FC01818D928D009711F00C94080F8FEF89
:102060009FEF08950F931F93CF93DF93EC01898D1A
:102070009A8D10E000E0009799F00E94080F8C0103
:102080000F3F100769F0898D9A8DFC0142855385B9
:102090006485758541505109610971090E94660A7C
:1020A000C801DF91CF911F910F9108952091C7032F
:1020B0003091C8032817390771F49091C5038091B6
:1020C000C603981741F0E091C503F0E0E453FD4FDB
:1020D000808190E008958FEF9FEF08950895EF922B
:1020E000FF920F931F93CF93DF93DC015C96ED90EB
:1020F000FC905D97E114F10479F481E090E013968F
:102100009C938E93129790E080E0DF91CF911F9186
:102110000F91FF90EF9008955196ED91FC91529799
:1021200050968C915097982F90950FB75E962C9162
:102130005E97122F127021FD6095F8942081112373
:1021400019F1282B2083E7012197F1F728E0462F8A
:1021500050E0308160FF1AC0382B3083E7012197AF
:10216000F1F7BA0175956795215089F7112381F030
:102170008081892380830FBF5C968D919C9101970C
:10218000F1F781E090E0C1CF2923DCCF3923E5CFFF
:102190009081892BEFCF2091C7033091C803281776
:1021A000390761F48091C6032091C50390E0805CFB
:1021B0009F4F821B91098F739927089590E080E0CB
:1021C00008952091C7033091C80328173907B9F43F
:1021D0009091C5038091C603981789F0E091C503DB
:1021E000F0E0E453FD4F80812091C50330E02F5F84
:1021F0003F4F2F7333272093C50390E008958FEF4F
:102200009FEF0895E091C703F091C803E817F9071D
:1022100069F4A389B4899C918589809589238C93DD
:102220001092C8031092C70381E0089580E00895DA
:102230009B01AC0110922E0710922D0710922C07D3
:1022400010922B0710922A071092290760E079E07C
:102250008DE390E00E94A93AB901C90103972430A7
:10226000310510F481E090E09093300780932F07C0
:1022700090911F07963108F05FC0F901F695E79538
:10228000E431F10508F483C07397F0932A07E093D3
:1022900029076630710508F47DC0B90165507109E0
:1022A00070932C0760932B07B901660F771F260FD9
:1022B000371F36952795369527952D30310508F42B
:1022C0006CC02C50310930932E0720932D0720919C
:1022D000680084E0983048F031E09E3008F430E047
:1022E00081E001C0880F3A95EAF7822B809368005D
:1022F0002DE630E0983050F02BE630E09E3030F0A4
:102300002CE630E0963110F030E020E030932707E3
:1023100020932607292F30E0983008F041C081E053
:1023200001C0880F9A95EAF78093280780912F07BC
:10233000909130070197F1F780912D0790912E072A
:10234000892B21F18091C7039091C80327E0833145
:102350009207E1F0009711F00E940211809131077D
:102360008E7F809331071092C6031092C50383E1DC
:1023700097E09093C8038093C703E0912607F091FC
:102380002707808190912807892B80830895E1E0B9
:10239000F0E07BCF61E070E083CF21E030E093CFCD
:1023A0009E3040F42850310981E001C0880F2A9501
:1023B000EAF7BACF2E503109F7CF8091C4038823B2
:1023C00089F08091190190911A01A0911B01B0919F
:1023D0001C0180389542A105B105C9F083E197E061
:1023E0000E94021160E875E280E090E00E941811FE
:1023F00080E895E2A0E0B0E08093190190931A0183
:10240000A0931B01B0931C0181E08093C403089545
:102410002091A902260F3327331F21323105ECF416
:1024200020915506FC0190E080E0243069F082E0C4
:102430000895A091A9022191AC0147575D4FA40FC7
:10244000B52FB11D2C930196861798F38091A902A0
:10245000680F6093A90280E0089581E008951092CA
:10246000550681E08093340610922F0661E082E1E8
:102470000E94D10261E083E10E94D102E9EBF0E029
:1024800080818E7F808380818D7F808388E48093AC
:10249000B80085E48093BC000895CF93DF9391E06A
:1024A000909388028823B9F0C091B800D091BA0007
:1024B0008091BC008A7B8093BC0060E082E10E9436
:1024C000D10260E083E10E94D1020E942F12D093DA
:1024D000BA00C093B800DF91CF910895CF92DF92F8
:1024E000EF92FF920F931F93CF93DF93D82FC62FB6
:1024F000613208F098C00E944E036B017C0180910C
:10250000550681116BC081E0809355068093340697
:102510009FEF90933306109232069C0F90933106F2
:102520008093300680913006DD0FD82BD093300693
:1025300080912F06813009F078C010922F060E94FA
:102540004E036B017C01809130068093BB0080912B
:10255000570690915806A0915906B0915A06892BBA
:102560008A2B8B2BA1F00E944E03009157061091ED
:1025700058062091590630915A066C197D098E092A
:102580009F09061717072807390708F448C08091E4
:10259000BC0083FDD8CF85EC8093BC000E944E0325
:1025A0006B017C0180915506813009F440C0809117
:1025B00032068C1710F4C0913206EFE0F6E0A5E386
:1025C000B6E080E08C1355C08C2FDF91CF911F9126
:1025D0000F91FF90EF90DF90CF9008958091570674
:1025E00090915806A0915906B0915A06892B8A2BD2
:1025F0008B2B09F484CF0E944E0300915706109153
:1026000058062091590630915A066C197D098E0999
:102610009F09061717072807390708F070CF809120
:1026200056060E944D12C0E0CFCF85EEB5CF809107
:10263000570690915806A0915906B0915A06892BD9
:102640008A2B8B2B09F4AECF0E944E0300915706C4
:10265000109158062091590630915A066C197D093F
:102660008E099F09061717072807390708F09ACF20
:10267000D6CF91919D938F5FA5CF8F929F92AF926E
:10268000BF92CF92DF92EF92FF920F931F93CF935F
:10269000DF93D0910E06D13208F0D7C0182FC09129
:1026A0000D060E944E036B017C018091550681113D
:1026B0006BC082E080935506109334068FEF8093B1
:1026C000330610923206D0933106ADEEB5E0EFE05E
:1026D000F6E080E0D81391C0109230068091300669
:1026E000CC0FC82BC093300680912F06813009F0A3
:1026F00088C010922F060E944E036B017C018091CE
:1027000030068093BB008091570690915806A091A7
:102710005906B0915A06892B8A2B8B2BA1F00E9467
:102720004E0300915706109158062091590630919A
:102730005A066C197D098E099F0906171707280785
:10274000390708F442C08091BC0083FDD8CF85ECE6
:102750008093BC000E944E036B017C018091550662
:10276000823009F450C0809133068F3F09F46FC066
:1027700080913306803209F46CC080913306803337
:1027800009F469C084E026C08091570690915806EC
:10279000A0915906B0915A06892B8A2B8B2B09F4EC
:1027A00084CF0E944E038090570690905806A090C8
:1027B0005906B0905A066C197D098E099F09861634
:1027C0009706A806B90608F070CF809156060E94B9
:1027D0004D1285E01092EC0510920E061092EB055A
:1027E000DF91CF911F910F91FF90EF90DF90CF90ED
:1027F000BF90AF909F908F9008959D9191938F5F20
:1028000069CF85EEA5CF8091570690915806A0918B
:102810005906B0915A06892B8A2B8B2B09F49ECF2F
:102820000E944E03009157061091580620915906B8
:1028300030915A066C197D098E099F0906171707F2
:102840002807390708F08ACFC0CF81E0C3CF80E0E6
:10285000C1CF82E0BFCF83E0BDCFE091EA05809198
:10286000E905E81730F4F0E0EB5CF94F808190E087
:1028700008958FEF9FEF08959091EA058091E90503
:102880002FEF3FEF981748F4E92FF0E0EB5CF94F9A
:10289000208130E09F5F9093EA05C90108958091FF
:1028A000E9059091EA05891B990B0895CF92DF9273
:1028B000EF92FF920F931F93CF93DF937C01CB0195
:1028C0008A012091EB05222389F0EB016B01C40EF4
:1028D000D51ECC15DD0569F06991D701ED91FC910C
:1028E0000190F081E02DC7010995F3CF642F0E947C
:1028F0000812C801DF91CF911F910F91FF90EF90C7
:10290000DF90CF900895CF93DF931F92CDB7DEB7BE
:1029100069832091EB052223F9F020910E062032E5
:1029200058F021E030E0FC013383228390E080E026
:102930000F90DF91CF9108958091EC05E82FF0E0A2
:10294000E351FA4F998190838F5F8093EC058093D8
:102950000E0681E090E0ECCF61E0CE0101960E948E
:102960000812F7CF81E00C943D130F931F93CF9380
:10297000DF93082F162F88E60E94C502CCE6D7E029
:1029800088819981DC01ED91FC910190F081E02D2D
:10299000602F099588819981DC01ED91FC9101906E
:1029A000F081E02D612F099588819981DF91CF9188
:1029B0001F910F910C94B214CF93DF93D82FC62F91
:1029C0008091CF050E94C5026D2F80E697E00E949E
:1029D00083146C2F80E697E00E94831480E697E0D2
:1029E000DF91CF910C94B21490E080E00895DC0167
:1029F000ED91FC910190F081E02D0994CF93C82FC7
:102A0000809101010E94C50270E060E080E697E0DD
:102A10000E94F7146C2F80E697E00E94831480E6F2
:102A200097E0CF910C94B214CF93DF93806B0E9408
:102A3000FE1482E00E94FE1480E10E94FE14C0E0B9
:102A4000809101010E94C50260E470E080E697E099
:102A50000E94F714D0E160E080E697E00E948314C2
:102A6000D150C9F780E697E00E94B214C05FC03829
:102A700039F7DF91CF910895CF93C0E0809186021E
:102A8000882319F08C2F0E941415CF5FC430B1F742
:102A9000CF9108950E946E121092EA058093E90585
:102AA0000895CF93DF93D82FC091CF058C2F0E942C
:102AB000C5026D2F80E697E00E94831480E697E0C0
:102AC0000E94B21461E08C2F0E944A1580E697E0C4
:102AD0000E943C14DF91CF9108958F929F92AF9204
:102AE000BF92CF92DF92EF92FF92CF93DF93F82EB7
:102AF000C4E3D7E088810E94C5026F2D80E697E08D
:102B00000E94831480E697E00E94B21463E08881FB
:102B10000E944A1580E697E00E943C14092E000CA2
:102B2000AA0BBB0B8824982EA92EBA2E80E697E01C
:102B30000E943C14092E000CAA0BBB0B6C017D01FA
:102B4000C828D928EA28FB28FE2CED2CDC2CCC2424
:102B500080E697E00E943C14BC01990F880B990B0A
:102B60006C297D298E299F29DF91CF91FF90EF90CD
:102B7000DF90CF90BF90AF909F908F9008958F92ED
:102B80009F92AF92BF92CF92DF92EF92FF920F93FC
:102B90001F9380915F07882309F480C08AEF0E9409
:102BA0006D1500913E0710913F0730E020E0C72EE1
:102BB000D82EE92EFF24E7FCFA94C01AD10AE20AC3
:102BC000F30A57E095958795779567955A95D1F7CC
:102BD000000F111F221F331F4B015C01801A910A45
:102BE000A20AB30AA5019401A0914007B091410740
:102BF0000E94D33A4B015C01FBE0B594A7949794F3
:102C00008794FA95D1F7A7019601C701B6010E94F2
:102C1000573A9B01AC01ACE0559547953795279500
:102C2000AA95D1F7A0914207B09143070E94D33AE9
:102C30009B01AC01BEE05595479537952795BA9510
:102C4000D1F7280D391D4A1D5B1D209335073093A0
:102C500036074093370750933807A5E0B0E00E944D
:102C6000C83A60587F4F8F4F9F4F672F782F892F1B
:102C7000992787FD9A950E94593720E030E048EC6B
:102C800052E40E94B0361F910F91FF90EF90DF90B9
:102C9000CF90BF90AF909F908F90089560E070E0CC
:102CA000CB01F1CF2F923F924F925F926F927F9222
:102CB0008F929F92AF92BF92CF92DF92EF92FF924C
:102CC0000F931F93CF93DF93CDB7DEB76B970FB6FC
:102CD000F894DEBF0FBECDBF0E94BF1587EF0E94E4
:102CE0006D156E8B7F8B888F998F809135079091B2
:102CF0003607A0913707B09138076C017D01FF0CB2
:102D0000CC08DC2C76019C01AD016C2D7C2D8C2D2A
:102D10009C2D345F41405109610971098109910974
:102D200029873A874B87652E762E872E982E9B8F84
:102D30005901C42ED52EE62EF72E082F192F0E94EA
:102D4000DB3A322E232E488B598B6A8B7B8B8C8BF4
:102D50009D8B3091470720914607932F990F990B30
:102D6000492F592F692F792F892F0E94DB3A0CE0C8
:102D70000E940A3C29833C874A8F5D876E877F8744
:102D8000582E492E3091490720914807932F990FCB
:102D9000990BA32CB22CC888D988EA88FB880C89A7
:102DA0001D89492F592F692F792F892F0E94DB3ACE
:102DB00008E00E94233CA980BC84CA8CDD84EE8498
:102DC000FF84052D142D0E94403C70588F4F9F4F5B
:102DD000E0914407F09145075F01D12CC12CE12C13
:102DE000F12C8701E983BA82CB82DC82ED82FE82FC
:102DF0000F831887C12CD12CE12CF12C00E010E0BE
:102E00000E94DB3A01E20E94233C2A8F532E498321
:102E10005C876D877E878F87492EA0E00E94523C99
:102E200009F436C130914F0720914E07932F990F27
:102E3000990BA32CB22CC888D988EA88FB880C8906
:102E40001D89492F592F692F792F892F0E94DB3A2D
:102E50001901488B598B6A8B7B8B8C8B9D8B3091A6
:102E60004D0720914C07932F990F990BA984BA8491
:102E7000CB84D62CE72CF82C092D1B8D492F592FEC
:102E8000692F792F892F0E94DB3A01E10E940A3CC9
:102E90005101C888D988EA88FB880C891D890E945D
:102EA000403C59016A017B01382E192F4E895F89F8
:102EB000688D798D84E075956795579547958A95C6
:102EC000D1F780E090E0A0E1B0E0841B950BA60B69
:102ED000B70B3C014D01990C6608762C43019C010F
:102EE000AD01662D762D862D962D0FE10E940A3CB0
:102EF000722E832E942E5987B62FA72FF82FE92FE5
:102F000030914B0720914A07932F990F990B492F26
:102F1000592F692F792F892F03E20E940A3C032D34
:102F20000E94403C59016A017B018C01272D382DFC
:102F3000492D59856B2F7A2F8F2F9E2F0E94493C48
:102F4000E5E3AE2EFCE0BF2EC12CD12CE12CF12C00
:102F500000E010E00E94DB3AAA8CB52CC980DC842A
:102F6000ED84FE840F85142D0E94353B2F873E870C
:102F700049875A876B8779838C879D870DE00E94EC
:102F8000233C922E832E742E652E562E472E382EDD
:102F9000292E3091550720915407932F990F990BA3
:102FA000A92CB82CC72CD62CE52CF42C032D122DD3
:102FB000492F592F692F792F892F0E94DB3A0E94C0
:102FC000DB3A09E10E94233CAF84BE84C984DA84E1
:102FD000EB84F9800C851D850E94403C19012A0173
:102FE0003B014C013091530720915207932F990FC9
:102FF000990B492F592F692F792F892F0E94DB3A7E
:1030000003E10E94233C59016A017B018C0191017B
:10301000A201B301C4010E94403C08E00E94233C8D
:1030200059016A017B01E82F192F30915107209136
:103030005007932F990F990B492F592F692F792FEB
:10304000892F04E00E940A3C0E2F0E94403C0E94FF
:10305000513720E030E040E85BE30E948B386B960C
:103060000FB6F894DEBF0FBECDBFDF91CF911F9199
:103070000F91FF90EF90DF90CF90BF90AF909F9017
:103080008F907F906F905F904F903F902F9008951A
:1030900060E070E0CB01E3CF1F93CF93DF93182F55
:1030A000C4E3D7E088810E94C502612F80E697E0E3
:1030B0000E94831480E697E00E94B21462E0888147
:1030C0000E944A1580E697E00E943C14C82F80E6D3
:1030D00097E00E943C1420E0822B9C2B98278927A4
:1030E0009827DF91CF911F910895CF93DF93C4E389
:1030F000D7E088810E94C50260ED80E697E00E94DB
:10310000831480E697E00E94B21461E088810E94F7
:103110004A1580E697E00E943C14DF91CF91089514
:10312000CF93DF93C091CF058C2F0E94C50264E13D
:1031300080E697E00E94831480E697E00E94B21434
:103140006CE08C2F0E944A15C2EDD5E080E697E036
:103150000E943C14899361E070E080E090E00E945E
:10316000730385E0CE3DD80789F78091D80590910B
:10317000D9059827892798279093E3058093E2053E
:103180008091DA059091DB059827892798279093FD
:10319000E5058093E4052091DC053091DD053227BB
:1031A000232732273093E7052093E6058091D20547
:1031B00090E043E0959587954A95E1F78F7080936D
:1031C000E80524313105E9F4809132079091330705
:1031D0009093E7058093E6056091E6057091E70519
:1031E00090E080E00E9457372091D105211106C060
:1031F00020E030E040E85EE30E948B38DF91CF9121
:1032000008953093330720933207E6CF8F929F9231
:10321000AF92BF92CF92DF92EF92FF920F931F93E4
:10322000CF93DF9300D000D0CDB7DEB7FC0185810E
:10323000813091F080E00F900F900F900F90DF9110
:10324000CF911F910F91FF90EF90DF90CF90BF90A3
:10325000AF909F908F900895848181FFEBCF8389F9
:103260009489A589B689892B8A2B8B2B09F45FC099
:103270007F0140E050E0BA01CF010E94660A882336
:10328000C9F2F701C38CD48C8788908CA18CB28C46
:1032900082E090E0A0E0B0E0F60180839183A28319
:1032A000B3839E012F5F3F4FB501A401C6010E9469
:1032B0002609882309F4BECF00E010E09801B5018B
:1032C000A401C6010E948408882309F4B3CF898031
:1032D0009A80AB80BC80F6018789803119F188EF34
:1032E0009FEFAFEFBFE088169906AA06BB06C8F2AB
:1032F000F701178A108E118E128E138A148A158A7E
:10330000168A84818068848361E0C7010E94FA0B79
:10331000882309F48FCF40E050E0BA01C7010E9432
:10332000660A89CF88EF9FEFA0E0B0E0DCCF81E0B4
:1033300082CFCF92DF92EF92FF921F93CF93DF93D2
:10334000EC0180E2689FF0011124E753FC4F938564
:10335000917161F0842F827449F080E0DF91CF9108
:103360001F91FF90EF90DF90CF900895142F6A8BFC
:103370008091020190910301A0910401B091050197
:103380008E879F87A88BB98BC488D588F12CE12CB8
:103390007601DD24CC24CF8AD88EE98EFA8E828DF8
:1033A000938DB0E0A0E0AC01BD014C295D296E29F0
:1033B0007F294F8B588F698F7A8F83858871B1F4FD
:1033C000848D958DA68DB78D8B8B9C8BAD8BBE8B95
:1033D00081E08D831F701C831E821F8218861986D0
:1033E0001A861B861C861D8681E0B8CF803109F0C5
:1033F000B4CF9E012D5E3F4F8B8D9C8D0E94A709FF
:10340000882309F4AACF84E0E4CF2F923F924F9211
:103410005F926F927F928F929F92AF92BF92CF9264
:10342000DF92EF92FF92CF93DF93CDB7DEB728976D
:103430000FB6F894DEBF0FBECDBF88E60E94C5026E
:103440006BE370E080916C0790916D070E94F71418
:1034500080E00E943D136EE088E60E946E1210929A
:10346000EA058093E90580916C0790916D07DC0176
:10347000ED91FC910284F385E02D0995F82E809161
:103480006C0790916D07DC01ED91FC910284F3854E
:10349000E02D099520E0822B9F2990936F07809360
:1034A0006E0780916C0790916D07DC01ED91FC91A6
:1034B0000284F385E02D0995F82E80916C07909198
:1034C0006D07DC01ED91FC910284F385E02D0995F7
:1034D00020E0822B9F299093710780937007809141
:1034E0006C0790916D07DC01ED91FC910284F385EE
:1034F000E02D0995F82E80916C0790916D07DC0105
:10350000ED91FC910284F385E02D099520E0822B5A
:103510009F29909373078093720780916C07909115
:103520006D07DC01ED91FC910284F385E02D099596
:10353000F82E80916C0790916D07DC01ED91FC9164
:103540000284F385E02D099520E0822B9F2990933A
:1035500075078093740780916C0790916D07DC016B
:10356000ED91FC910284F385E02D0995F82E809170
:103570006C0790916D07DC01ED91FC910284F3855D
:10358000E02D099520E0822B9F2990937707809367
:10359000760780916C0790916D07DC01ED91FC91AD
:1035A0000284F385E02D0995F82E80916C079091A7
:1035B0006D07DC01ED91FC910284F385E02D099506
:1035C00020E0822B9F299093790780937807809140
:1035D0006C0790916D07DC01ED91FC910284F385FD
:1035E000E02D0995F82E80916C0790916D07DC0114
:1035F000ED91FC910284F385E02D0995612C7F2CDF
:10360000682A792A70927B0760927A076091740722
:1036100070917507072E000C880B990B0E94593783
:1036200020E030EF41E456E40E94CD3520E030E068
:103630004AEA53E40E94B036609388077093890782
:1036400080938A0790938B0760916E0770916F0744
:10365000072E000C880B990B0E94593720E030E0B0
:1036600040E858E30E948B384B015C0180928C0744
:1036700090928D07A0928E07B0928F07609170078D
:1036800070917107072E000C880B990B0E94593717
:1036900020E030E040E858E30E948B386B017C0169
:1036A000C0929007D0929107E0929207F092930710
:1036B0006091720770917307072E000C880B990BAD
:1036C0000E94593720E030E040E858E30E948B38F0
:1036D0001B012C0120929407309295074092960787
:1036E0005092970720E030E0A901C501B4010E9483
:1036F0007E38A501940118160CF05058C201B10192
:103700000E94CD359B01AC01C701B6010E944C3629
:1037100020E030E044EB53E40E948B3820E030E0BE
:1037200040E05FE30E948B382BED3FE049E450E43A
:103730000E94B0366093B0077093B1078093B207D0
:103740009093B30720E030E0A901C701B6010E94C1
:103750007E38181624F0F7FAF094F7F8F094A701E1
:103760009601C201B1010E94CD359B01AC01C5019A
:10377000B4010E944C3620E030E044EB53E40E9458
:103780008B3820E030E040E05FEB0E948B382BED7F
:103790003FE049E450E40E94B0366093B407709370
:1037A000B5078093B6079093B7076091780770913B
:1037B0007907072E000C880B990B0E94593720E0DF
:1037C00030E043E852E40E94B0366B017C01609126
:1037D000760770917707072E000C880B990B0E94D3
:1037E000593720E030E043E852E40E94B03620919F
:1037F0007C0730917D0740917E0750917F070E94A2
:10380000CC35609398077093990780939A079093AB
:103810009B0720918007309181074091820750914A
:103820008307C701B6010E94CC3560939C07709353
:103830009D0780939E0790939F07B301770C880B99
:10384000990B0E94593720E030E043E852E40E948F
:10385000B0362091840730918507409186075091BA
:1038600087070E94CC356093A0077093A1078093CF
:10387000A2079093A3070E94A503C090CC07D09005
:10388000CD07E090CE07F090CF076C197D098E0927
:103890009F090E9457372FE632E143E85AE30E941E
:1038A0008B386B017C01C092C807D092C907E092A7
:1038B000CA07F092CB072091980730919907409161
:1038C0009A0750919B070E948B382B013C01AC0159
:1038D0009B016091A4077091A5078091A607909124
:1038E000A7070E94CD356093A4077093A507809326
:1038F000A6079093A70720919C0730919D074091C0
:103900009E0750919F07C701B6010E948B384B015B
:103910005C01AC019B016091A8077091A90780919F
:10392000AA079091AB070E94CD356093A8077093CA
:10393000A9078093AA079093AB072091A007309125
:10394000A1074091A2075091A307C701B6010E94A9
:103950008B382091AC073091AD074091AE07509164
:10396000AF070E94CD356D837E838F8398876093E8
:10397000AC077093AD078093AE079093AF07C090EC
:10398000D407D090D507E090D607F090D707809164
:10399000D0079091D107A091D207B091D307898326
:1039A0009A83AB83BC832091BC073091BD074091C3
:1039B000BE075091BF07C301B2010E94CD35A701D8
:1039C00096010E948B382B013C012091B007309169
:1039D000B1074091B2075091B30769817A818B8119
:1039E0009C810E948B389B01AC01C301B2010E94F3
:1039F000CD356093BC077093BD078093BE0790934D
:103A0000BF072091C0073091C1074091C207509174
:103A1000C307C501B4010E94CD35A70196010E94DC
:103A20008B386B017C012091B4073091B507409130
:103A3000B6075091B70769817A818B819C810E947A
:103A40008B389B01AC01C701B6010E94CD35609354
:103A5000C0077093C1078093C2079093C3078D81FD
:103A60009E81AF81B8858093C4079093C507A093CA
:103A7000C607B093C7070E94A5036093CC07709355
:103A8000CD078093CE079093CF0728960FB6F89472
:103A9000DEBF0FBECDBFDF91CF91FF90EF90DF90E3
:103AA000CF90BF90AF909F908F907F906F905F90DE
:103AB0004F903F902F90089560E089E10E94B514E7
:103AC00060E08AE10E94B51468E08BE10E94B514C1
:103AD00060E08CE10E94B51461E08BE60E94B514B1
:103AE0000E94051AECE6F7E010AE11AE12AE13AE6E
:103AF00014AE15AE16AE17AE8091B0079091B10717
:103B0000A091B207B091B3078093BC079093BD0713
:103B1000A093BE07B093BF078091B4079091B507FB
:103B2000A091B607B091B7078093C0079093C107E3
:103B3000A093C207B093C3070E94A5036093CC076C
:103B40007093CD078093CE079093CF0708954F923F
:103B50005F926F927F928F929F92AF92BF92CF921D
:103B6000DF92EF92FF92CF9380918202811175C014
:103B70000E945C1DC4E6C12CD12C7601812C912CB5
:103B80005401412C512C32010E94051A8091760774
:103B900090917707092E000CAA0BBB0B480E591EFB
:103BA0006A1E7B1E8091780790917907092E000C80
:103BB000AA0BBB0B880E991EAA1EBB1E80917A070A
:103BC00090917B07092E000CAA0BBB0BC80ED91EC7
:103BD000EA1EFB1E61E070E080E090E00E9473034B
:103BE000C15091F6C301B2010E94593720E030EB79
:103BF0004CEC55E40E94B03660937C0770937D07CF
:103C000080937E0790937F07C501B4010E945937C6
:103C100020E030EB4CEC55E40E94B0366093800716
:103C2000709381078093820790938307C701B60141
:103C30000E94593720E030EB4CEC55E40E94B0363E
:103C40006093840770938507809386079093870716
:103C50000E945C1D81E080938202CF91FF90EF90E3
:103C6000DF90CF90BF90AF909F908F907F906F909C
:103C70005F904F900895CF93DF9398E590933D0721
:103C8000809334071092EA051092E9051092EC0532
:103C900010920E060E942F128FEC92E09093CE05A8
:103CA0008093CD0580ED92E09093CC058093CB0579
:103CB00080911D01882309F482C0C6E0D7E70E94E5
:103CC000751890913D07891791F0D09334070E94A1
:103CD000751890913D07891751F068EE73E080E008
:103CE00090E00E947303C15051F780E07CC088E8E7
:103CF0000E944C1890933F0780933E078AE80E94E9
:103D00004C1890934107809340078CE80E944C1810
:103D100090934307809342078EE80E944C1890933B
:103D200045078093440780E90E944C189093470709
:103D30008093460782E90E944C189093490780932C
:103D4000480784E90E944C1890934B0780934A07D8
:103D500086E90E944C1890934D0780934C0788E9A0
:103D60000E944C1890934F0780934E078AE90E9457
:103D70004C1890935107809350078CE90E944C187F
:103D800090935307809352078EE90E944C189093AA
:103D9000550780935407809134070E94C50264EF51
:103DA00080E697E00E9483146FE380E697E00E942C
:103DB000831480E697E00E94B21410921D0181E006
:103DC00080935F070E94521625ED36E740E75FE3D8
:103DD0000E94B0366093390770933A0780933B078F
:103DE00090933C0781E0DF91CF91089580915F0728
:103DF000882339F10E9452162091390730913A07F1
:103E000040913B0750913C070E94B0362FEC39EDB2
:103E100042E45EE30E94F8389B01AC0160E070E090
:103E200080E89FE30E94CC3523E333E94FE853E475
:103E30000E948B3824EF3DEF44ED5BE30E94B036E7
:103E4000089560E070E0CB010895FB01019000202F
:103E5000E9F73197AF01461B570BDC01ED91FC915F
:103E60000280F381E02D09948F929F92AF92BF92CE
:103E7000EF92FF920F931F93CF93DF93CDB7DEB7EF
:103E8000A1970FB6F894DEBF0FBECDBF7C01FA013B
:103E9000CB0119A2223008F42AE08E010F5D1F4FDA
:103EA000822E912CB12CA12CBF01A50194010E945E
:103EB000873AF901CA016A300CF5605DD8016E934A
:103EC0008D01232B242B252B79F790E080E0109790
:103ED00021F0BD01C7010E94251FA1960FB6F894DD
:103EE000DEBF0FBECDBFDF91CF911F910F91FF902D
:103EF000EF90BF90AF909F908F900895695CDECF58
:103F00002F923F924F925F926F927F928F929F92E9
:103F1000AF92BF92CF92DF92EF92FF921F93CF9317
:103F2000DF93EC016A017B01722EAB019601CB019C
:103F3000B6010E944C3968E771E0811126C0460144
:103F40005701E894B7F82FEF3FEF4FE75FE7C50160
:103F5000B4010E944C3981110CC02FEF3FEF4FE7A5
:103F60005FE7C501B4010E94AB366CE771E018163B
:103F700064F02FEF3FEF4FE75FE4C701B6010E9407
:103F80007E381816B4F460E871E0CE01DF91CF916D
:103F90001F91FF90EF90DF90CF90BF90AF909F90D8
:103FA0008F907F906F905F904F903F902F900C94E8
:103FB000251F2FEF3FEF4FE75FECC701B6010E94CF
:103FC000AB3687FDE0CF20E030E0A901C701B601A4
:103FD0000E94AB36312C212C87FF09C06DE2CE0147
:103FE0000E94B1031C01F7FAF094F7F8F09410E086
:103FF00060E070E080E09FE3711641F020E030E087
:1040000040E251E40E94B0361F5FF6CFA70196014F
:104010000E94CD352B013C010E9422374B015C01EF
:104020002AE0BC01A401CE010E94341F7C01E20CF5
:10403000F31C1123C1F1C501B4010E9457379B0144
:10404000AC01C301B2010E94CC354B015C016EE2B0
:10405000CE010E94B103E80EF91E115020F120E0BC
:1040600030E040E251E4C501B4010E948B382B01DD
:104070003C010E9422374B01B12CA12C2AE0B50152
:10408000A401CE010E94341FE80EF91EC501B4013F
:104090000E9457379B01AC01C301B2010E94CC358D
:1040A0004B015C01DACFC701DF91CF911F91FF90E7
:1040B000EF90DF90CF90BF90AF909F908F907F90C8
:1040C0006F905F904F903F902F9008950C94801FB9
:1040D00064E871E00C94251F0F931F93CF93DF9337
:1040E000EC010E94801F8C01CE010E946820800F8D
:1040F000911FDF91CF911F910F9108950F931F93FF
:10410000CF93DF938C01D0E0C0E06115710519F009
:104110000E94251FEC01C8010E9468208C0F9D1F82
:10412000DF91CF911F910F910895CF92DF92EF927F
:10413000FF92CF93C091D00561E080E80E94DC142B
:1041400061E08FEF0E94DC1460E080E00E94DC14EC
:104150006CE381E90E94DC1461E080E00E94DC14E1
:1041600060E08FEF0E94DC1460E080E80E94DC14C5
:10417000CC2369F0C13051F167E871E08BE596E03E
:10418000CF91FF90EF90DF90CF900C947E2061E074
:1041900080E00E94DC14C12CD12C760181E09FEFDD
:1041A000C91AD90AE90AF90A80FF06C088ECC816BC
:1041B000D104E104F10431F4CF91FF90EF90DF904E
:1041C000CF90089580E00E945115E9CF62E080E031
:1041D000CF91FF90EF90DF90CF900C94DC14CF93B1
:1041E000DF93C82F8823A9F081E08093D00561E098
:1041F00089E00E94DC141092D1050E949520C093A2
:1042000000016EE170E080E090E0DF91CF910C94CE
:104210007303D1E0D093D00560E089E00E94DC1404
:10422000D093D105EACF0F931F93CF93DF93EC0187
:104230000E94B8038C01CE010E946820800F911F5C
:10424000DF91CF911F910F910895CF93DF93EC01F0
:104250006BE171E080911301909114010E94B80309
:10426000BE018091130190911401DF91CF910C94C4
:104270001321CF92DF92EF92FF921F93CF93DF93A0
:1042800080918702811108C18091F906882321F06D
:1042900084EF96E00E94920C1092D5061092D306FD
:1042A0001092D0061092CF068AE08093CE060E942C
:1042B000A503EB0161E08091CE060E941D0361E041
:1042C0008091CE060E94D1021FB7F894809185029A
:1042D000811127C0E3E1F5E08491E7E2F5E09491F4
:1042E000E82FF0E0EE0FFF1FE952FB4FA591B491CC
:1042F000EC91E92321F461E08AE00E94D10261E0BF
:104300008AE00E941D038CB580618CBD8CB58064F1
:104310008CBD61E08DE00E941D0361E08BE00E9496
:104320001D03809185028F5F809385021FBF82E508
:104330008093C8061092C9068091C8069091C9065C
:104340000E9423051AE08FEF0E94FE041150D9F756
:104350008AEC96E00E94260520E030E0A90160E0AA
:104360008AEC96E00E943C05182F8093D406813099
:10437000C9F00E94A5036C1B7D0B613D774060F383
:1043800081E08093CF068AEC96E00E94F30489E2F4
:1043900091E0DF91CF911F91FF90EF90DF90CF9050
:1043A0000C9425212AEA31E040E050E068E08AECF4
:1043B00096E00E943C0582FF2AC01093D5068091AA
:1043C000D506C12CD12C7601823029F4C12CD12CF8
:1043D000E12C80E4F82E20E030E0A90167E38AECCC
:1043E00096E00E943C05A701960169E28AEC96E0FE
:1043F0000E943C058093D4068823C1F00E94A50347
:104400006C1B7D0B613D774030F388E0BACF14E040
:104410000E9405058093D4061150D1F78A3A11F015
:1044200082E0AFCF82E08093D506C9CF8091D506D8
:104430008230D1F420E030E0A9016AE38AEC96E012
:104440000E943C05882311F086E09BCF0E94050561
:10445000807C803C19F483E08093D5060E9405059A
:104460000E9405050E9405058AEC96E00E94F3046F
:1044700080E58093C8061092C90681E00E94420739
:10448000882391F084EF96E00E94120A882309F4B1
:104490007ECF81E080938702DF91CF911F91FF90C3
:1044A000EF90DF90CF90089580E00E94420788232C
:1044B00009F46DCFE7CF80918302811112C086E7A6
:1044C0000E943B1E882321F081E08093830208959F
:1044D00087E70E943B1E8111F7CF80E291E00C94A8
:1044E0002521089568E171E08091130190911401F4
:1044F0000C9413216115710511F00C94251F90E0A7
:1045000080E00895CF9380918402811181C06CED89
:1045100075E080E090E00E94730389E28093CF050C
:1045200089E80E945115682F616089E80E94DC14B7
:1045300060E088E80E94DC1461E080E80E94DC14FE
:1045400061E08FEF0E94DC1460E080E00E94DC14E8
:1045500081E90E9451156CE381E90E94DC1461E05D
:1045600080E00E94DC1460E08FEF0E94DC1460E0C9
:1045700080E80E94DC1469E28AE80E94DC1482EC84
:104580000E945115C82F66E871E08BE596E00E9405
:104590007E2069EA71E08BE596E00E947A224C2F3A
:1045A00050E070E060E020E18BE596E00E94341F6F
:1045B0008BE596E00E94682080EC0E945115C82F80
:1045C00067EB71E08BE596E00E947A224C2F50E079
:1045D00070E060E020E18BE596E00E94341F8BE5FF
:1045E00096E00E94682066E871E08BE596E00E9404
:1045F0007E20C1E0C093D00561E089E00E94DC1418
:104600001092D1050E949520C0930001C0938402AE
:10461000CF9108953F924F925F926F927F928F92C7
:104620009F92AF92BF92CF92DF92EF92FF920F9341
:104630001F93CF93DF93CDB7DEB72B970FB6F894C8
:10464000DEBF0FBECDBF7C01DC0115968C918111C0
:1046500015C0FE013196CE010C966F0130E2319308
:10466000E817F907E1F7DA0130E087E09D91B92E0C
:10467000992329F19E3239F48A3011F480E0DAC0AE
:1046800038E08AE0F3CFECEAF4E04491442321F0EF
:1046900031969413FACFF2CF831780F34FED490F81
:1046A0004E3560F74FE9490F4A3118F440EEB42E09
:1046B000B90EF601E30FF11DB0823F5FD7CF8981BC
:1046C0008032E1F2322E8B01FB01838D948DD70174
:1046D0005C969C938E935B97168217821086118648
:1046E0001286138614861586F80182859385A48523
:1046F000B585438954896589768984179507A60706
:10470000B70708F04DC025E0B695A7959795879512
:104710002A95D1F7F82FFF70AF2ED80115968C91FE
:10472000823008F4ABCFC8010E94080F97FDA6CFD6
:10473000F80182859385A485B5854F96A11DB11D8D
:1047400082879387A487B587F0E2AF9EB0011124DA
:1047500067537C4F6115710509F490CFDB018C9193
:10476000882341F0853E09F058C0BB2029F0BB24C6
:10477000B394BACFB1100EC0F701A28A80910201A2
:1047800090910301A0910401B0910501868797875C
:10479000A08BB18BDB018C918111E9CFBB24B39449
:1047A000832D8271823109F069CFBB2009F45AC090
:1047B000C7010E946B08009709F460CF20E2FC015A
:1047C00011922A95E9F72BE0F601DC0101900D9298
:1047D0002A95E1F721E238E2DC0151963C932E93D1
:1047E000509740E058E01F965C934E931E97539667
:1047F0003C932E93529759963C932E9358975796E5
:104800005C934E93569781E00E94CD06882309F46D
:1048100035CF432DF70162890AC04BE050E0C60155
:104820000E94983D892B09F05FCF432D6A2DC70167
:104830000E9499192B960FB6F894DEBF0FBECDBF1C
:10484000DF91CF911F910F91FF90EF90DF90CF906C
:10485000BF90AF909F908F907F906F905F904F90A0
:104860003F900895F8018581823009F407CFC8018F
:104870000E94FA0A882309F401CFD8015B96ED91D2
:10488000FC915C9716968D909D90AD90BC90199779
:10489000B2E08B1A9108A108B108858504C0880C84
:1048A000991CAA1CBB1C8A95D2F786859785A0897E
:1048B000B189880E991EAA1EBB1E84812401350170
:1048C000480E511C611C711C84149504A604B70485
:1048D00009F1E1E04E1A51086108710881E00E9477
:1048E000CD06882309F4CACEE9ECF3E0119289ECF5
:1048F00095E08E179F07D1F7409202015092030175
:10490000609204017092050180910E038160809392
:104910000E03DACFD8015B96ED91FC91258580E0FE
:1049200092E0A0E0B0E004C0880F991FAA1FBB1F4F
:104930002A95D2F7F8014389548965897689840FCD
:10494000951FA61FB71F838B948BA58BB68BD701A2
:1049500052961C9289EC93E031CFCF93DF93CDB781
:10496000DEB76D970FB6F894DEBF0FBECDBF442300
:1049700099F1AB01BC011C821B828CE491E09A830B
:1049800089831E8222E0CE0101960E940A238111B2
:104990000EC090E081E0911101C080E06D960FB6ED
:1049A000F894DEBF0FBECDBFDF91CF910895CE0149
:1049B00001960E940619882361F3CE0101960E9498
:1049C0006B08009731F325EEFC0120831E8281E005
:1049D0000E94CD06982FDECF81E0E0CF1F93CF93CA
:1049E000DF93CDB7DEB76D970FB6F894DEBF0FBE7D
:1049F000CDBFAB011C821B822CE431E03A832983BA
:104A00001E8221E0BC01CE0101960E940A2311E022
:104A100081110CC010E0812F6D960FB6F894DEBFA7
:104A20000FBECDBFDF91CF911F910895CE010196AA
:104A30000E94920CF0CFCF93DF93EC01898D9A8D79
:104A4000009741F00E94920C898D9A8D0E940F3D33
:104A50001A8E198EDF91CF910895EF92FF920F93E6
:104A60001F93CF93DF93EC017B018A011B821A8293
:104A700088EE93E0A0E0B0E08C839D83AE83BF839B
:104A800088E291E0998388838DE190E00E94733CF5
:104A90009A8F898F009779F02DE1F701DC01019061
:104AA0000D922A95E1F74CE050E0B801CE010C964A
:104AB0000E94D03D188EDF91CF911F910F91FF90F2
:104AC000EF9008952F923F924F925F926F927F9254
:104AD0008F929F92AF92BF92CF92DF92EF92FF920E
:104AE0000F931F93CF93DF93CDB7DEB7C556D10990
:104AF0000FB6F894DEBF0FBECDBF5C013B01A6969A
:104B00004FAFA69719A218A28CE491E09F8F8E8FC9
:104B10001BA21C821B829A8389831E824E018EE116
:104B2000880E911CC4010E94120A8301FE01319675
:104B30007F0124013E2E2F2C6FE270E0C8010E94FD
:104B4000A53D009709F458C0F80120812F3269F47F
:104B50000F5F1F4F9E2D8F2D7201492E582E942DC1
:104B6000852D2701E92EF82EE7CF801B8D3008F028
:104B70008CE0C82ED12CA601B801CE01885A9F4FD7
:104B80000E94D03DE8E5F0E0EC0FFD1FEC0DFD1DAF
:104B90001082C7010E94920C21E0AE01485A5F4F7B
:104BA000B201C7010E940A23811120C01EAE1DAEB2
:104BB0008CE491E09CAF8BAF21961FAE219710E063
:104BC00000E0060D171DF801808181111DC0BE0196
:104BD000655C7F4F832D922D0E944B0E43EC51E07C
:104BE000632D722DC5010E942D252CC00C0D1D1D9D
:104BF000C2010E94920CB3CF06191709B201CE016F
:104C0000CB960E944B0EDDCF19A218A28CE491E046
:104C10009F8F8E8F1BA221968FAD219781112DC062
:104C2000F5011382128288EE93E0A0E0B0E0848365
:104C30009583A683B78388E291E091838083128E67
:104C4000118E1486C501CB59DF4F0FB6F894DEBF25
:104C50000FBECDBFDF91CF911F910F91FF90EF90CD
:104C6000DF90CF90BF90AF909F908F907F906F908C
:104C70005F904F903F902F900895A6962FADA697E6
:104C8000A801BE01655C7F4FC4010E940A238823EE
:104C900039F2CE01CB960E94920CA6968FADA697C4
:104CA0008670863039F449A95AA96BA97CA9C40138
:104CB0000E94660AB401832D922D0E944B0EA8011A
:104CC0008FCF85ED8093BC00809157069091580658
:104CD000A0915906B0915A060796A11DB11D23E077
:104CE000B695A795979587952A95D1F72091BC0001
:104CF00024FD03C010925506089540915706509127
:104D000058066091590670915A06452B462B472B41
:104D100069F30097A105B10541F02AE22A95F1F760
:104D200000C00197A109B109E1CF809156060C940A
:104D30004D12CF93DF9366E871E090E080E00E942F
:104D40006D35EC01009781F0EC012881019620324D
:104D5000D9F3223269F4EC0162E270E00E94A53DD1
:104D6000009711F0FC011082CE01DF91CF910895E0
:104D700060E270E0CE01F2CF61EC71E090E080E0A3
:104D80000E946D35009711F00C94463560E070E09C
:104D9000CB01089561EC71E090E080E00E946D35F8
:104DA000009711F00C94283590E080E008957F92F0
:104DB0008F929F92AF92BF92CF92DF92EF92FF922B
:104DC0000F931F93CF93DF93CDB7DEB7A8970FB69E
:104DD000F894DEBF0FBECDBFFC01CF012191203280
:104DE000E1F32223F1F061EC71E00E946D358C015A
:104DF0000097B9F065EC71E00E94B03D61E974E0A4
:104E0000892B49F06BEC71E0C8010E94B03D892B01
:104E1000E1F461E774E080911301909114010E9424
:104E20001321A8960FB6F894DEBF0FBECDBFDF9159
:104E3000CF911F910F91FF90EF90DF90CF90BF9097
:104E4000AF909F908F907F90089561ED71E0C801C1
:104E50000E94B03D6CE674E0892BE9F266ED71E0EA
:104E6000C8010E94B03D892B59F468E674E0809136
:104E70001301909114010E94B80364E674E0CBCF53
:104E80006AED71E0C8010E94B03D892B09F0DCC0D9
:104E900061EC71E090E080E00E946D35009729F4AC
:104EA0008CE594E00E942521BCCF6EED71E00E945C
:104EB000B03D892B09F0C5C061EC71E090E080E065
:104EC0000E946D358C0180E594E00115110551F3C8
:104ED0000E94A71D0E94051A6BE474E080911301E3
:104EE000909114010E94B803B80180911301909130
:104EF00014010E947A2260E28091130190911401C2
:104F00000E94B10362EE71E0C8010E94B03DE090E2
:104F10001301F0901401892B71F440918C0750918A
:104F20008D0760918E0770918F0723E030E0C701F5
:104F30000E946C2076CF65EE71E0C8010E94B03D02
:104F4000892B49F440919007509191076091920705
:104F500070919307EACF68EE71E0C8010E94B03DFE
:104F6000892B49F4409194075091950760919607D9
:104F700070919707DACF6BEE71E0C8010E94B03DE7
:104F8000892B59F4409198075091990760919A079D
:104F900070919B0722E030E0CACF6EEE71E0C8014D
:104FA0000E94B03D892B49F440919C0750919D0788
:104FB00060919E0770919F07EDCF61EF71E0C8018E
:104FC0000E94B03D892B49F44091A0075091A10760
:104FD0006091A2077091A307DDCF64EF71E0C80173
:104FE0000E94B03D892B49F44091BC075091BD0708
:104FF0006091BE077091BF07CDCF68EF71E0C80127
:105000000E94B03D892B49F44091C0075091C107DF
:105010006091C2077091C307BDCF6CEF71E0C8010A
:105020000E94B03D892B49F44091C4075091C507B7
:105030006091C6077091C707ADCF69E474E0C701FE
:10504000EECE81E494E02ECF60E072E0C8010E94D1
:10505000B03D892B09F0D0C061EC71E090E080E0B8
:105060000E946D358C0189E394E00115110509F466
:1050700019CF64E072E0C8010E94B03D892B09F0AD
:105080004FC00E94BC264B015C010E945B2218E0CD
:10509000C12CD12C76010E94F61E9B01AC01C701E8
:1050A000B6010E94CD356B017C0162E370E080E0C7
:1050B00090E00E947303115071F720E030E040E06F
:1050C0005EE3C701B6010E948B386B017C01C5010C
:1050D000B4010E9459379B01AC01C701B6010E947F
:1050E000CC3560931B0370931C0380931D03909336
:1050F0001E036AE274E080911301909114010E94F2
:10510000B80340911B0350911C0360911D037091E3
:105110001E0321E030E0809113019091140108CF2B
:105120006EED71E0C8010E94B03D892B09F061C0AD
:1051300061EC71E090E080E00E946D358C018EE1C1
:1051400094E00115110509F4ADCE0E945B2269E1DE
:1051500074E080911301909114010E94B803B8018A
:1051600080911301909114010E947A2260E2809153
:105170001301909114010E94B10369E372E0C80128
:105180000E94B03DE0901301F0901401892B29F4A6
:105190000E94BF15AB01BC01FDCE62E072E0C80108
:1051A0000E94B03D892B71F480915F0740E050E090
:1051B000BA01882321F00E945216AB01BC0121E004
:1051C00030E0B5CE68E072E0C8010E94B03D892BA6
:1051D00069F40E94F61E20911B0330911C0340913C
:1051E0001D0350911E030E94CC35D4CF67E174E0BB
:1051F00026CF8FE094E056CE6AE072E0C8010E94AC
:10520000B03D892B09F0FFC061EC71E090E080E0D7
:105210000E946D358C0187E094E00115110509F4B9
:1052200041CE64E072E0C8010E94B03D892B09F0D4
:1052300080C00E94BC260E9459376B017C0120E08F
:1052400030E040EF51E40E94AB3687FD0AC020E019
:1052500030E04AEF54E4C701B6010E947E381816C8
:105260001CF489EF93E01ECE0E94822280910001FF
:10527000811103C081E00E94EF201AE0812C912C63
:1052800054010E9490189B01AC01C501B4010E9419
:10529000CD354B015C0162E370E080E090E00E945C
:1052A0007303115071F720E030E040E251E4C50192
:1052B000B4010E94B036A70196010E94CC356B0163
:1052C0007C0187E393E5A1E1B4EC89839A83AB8306
:1052D000BC83CD82DE82EF82F8869E012F5F3F4F36
:1052E000590110E000E0D5019D905D01C8010E94C8
:1052F000B635981621F0692DC8010E94BE350F5FA2
:105300001F4F0830110579F7C0921703D092180388
:10531000E0921903F0921A0368E371E0809113019F
:10532000909114010E94B80321E030E0B701A6017A
:10533000F2CE6EED71E0C8010E94B03D892B09F0FC
:105340005FC061EC71E090E080E00E946D357C010F
:105350008DEE93E0E114F10409F4A4CD0E948222C1
:1053600068EE73E080911301909114010E94B803DC
:10537000B70180911301909114010E947A2260E29A
:1053800080911301909114010E94B1036EE072E0CC
:10539000C7010E94B03D6C0111E0892B09F010E0BB
:1053A00063E172E0C7010E94B03DCD2811F0892B66
:1053B00021F50E94822280910001181719F0812F97
:1053C0000E94EF200E94901820911703309118033B
:1053D0004091190350911A030E94CC356B017C0156
:1053E00020E030E0A9010E94AB3687FF03C0C12C4A
:1053F000D12C7601212F30E099CF66EE73E00BCDF2
:105400008EED93E04FCD69E172E0C8010E94B03D9E
:10541000892B09F0F7C061EC71E090E080E00E9418
:105420006D358C0185ED93E00115110509F43ACD38
:1054300080918602811156C08CE38093010162E362
:1054400070E080E090E00E9473038EEA0E94FE14F8
:1054500085ED0E94FE1480E80E94FE1488EA0E94F6
:10546000FE148FE10E94FE1483ED0E94FE1480E082
:105470000E94FE1480E40E94FE148DE80E94FE1437
:1054800084E10E94FE1481EA0E94FE1488EC0E94CE
:10549000FE148AED0E94FE1482E00E94FE1481E850
:1054A0000E94FE148FE80E94FE1489ED0E94FE14F3
:1054B00081EF0E94FE148BED0E94FE1480E40E9496
:1054C000FE1484EA0E94FE1486EA0E94FE148EE214
:1054D0000E94FE148FEA0E94FE1481E080938602EF
:1054E0000E943C156EE172E0C8010E94B03D892B1C
:1054F00029F40E943C150E94722293CC64E272E06F
:10550000C8010E94B03D892B09F079C00E94CA26CB
:105510008C010E94CA266C010E9499267C01892B6D
:1055200051F3B4E0CB16D10430F717FDE4CF8091EE
:105530008602882301F38C2D0E941415102F110F61
:10554000100F110F02E0010F8C2D806B0E94FE14D2
:10555000802F8E700E94FE14802F82958F70806144
:105560000E94FE1425E0722EF70121917F01222373
:1055700011F217FDC0CF022F80EE820F803608F0A7
:1055800000E2809101010E94C50260E470E080E6C3
:1055900097E00E94F714802F8052990B9C01729E15
:1055A000C001739E900D1124D12CC12C812E912C01
:1055B000DC01A95BBE4F5D01C4018C0D9D1D60E047
:1055C0008038910520F4F501EC0DFD1D649180E615
:1055D00097E00E948314BFEFCB1ADB0AE5E0CE16FA
:1055E000D10451F71B3728F460E080E697E00E9471
:1055F000831480E697E00E94B2141A5FB5CF8CEC5A
:1056000093E050CC69E272E0C8010E94B03D892B62
:1056100009F08AC061EC71E090E080E00E946D3595
:105620008C0185EC93E00115110509F43BCC8091C8
:105630008702882371F06CE272E0C8010E94B03DDD
:10564000892BB9F40E949926009751F48DEB93E0D1
:1056500029CC0E943921809187028111ECCFE1CBC6
:105660006DEA74E20E94BF30811145CF83EB93E075
:1056700019CC63E372E0C8010E94B03D892B09F0A8
:1056800050C00E9499268C018BEA93E00115110508
:1056900009F408CC41E0B801CE0101960E946225D0
:1056A000EA8DFB8D309719F08581811103C083EA63
:1056B00093E0F8CB6AE973E08091130190911401B3
:1056C0000E94B803B80180911301909114010E94C7
:1056D0007E20CE0101960E94A50E0091130110912B
:1056E0001401892B71F0D801ED91FC91E080F180DB
:1056F000CE0101960E942810682FC801F701099574
:10570000E8CFC8010E94682063E973E0809113012B
:10571000909114010E941321CE0101960E941B2535
:1057200080CB8CE893E0BECB68E372E0C8010E94B6
:10573000B03D892B09F021C161EC71E090E080E07F
:105740000E946D358C0185E893E00115110509F47F
:10575000A9CB6BE372E0C8010E94B03D892B89F4AC
:105760008091C403811102C00E94DD110E9499261C
:10577000009709F4C0CEBC0183E197E00E947E202F
:10578000BACE60E472E0C8010E94B03D892B99F561
:105790000E94CA260E94CA260E94BC266B017C0178
:1057A0001C141D041E041F0434F090E8C92E95E259
:1057B000D92EE12CF12C0E9499268C018DE793E0E3
:1057C0000115110509F46ECB65E472E0CE01019676
:1057D0000E94B93D40E250E0B801CE0101960E941E
:1057E000C03D20EB34E0AE014F5F5F4FC701B60113
:1057F0000E94333016CB6DE472E0C8010E94B03DC8
:10580000892B09F07EC00E94CA260E94CA260E94E7
:10581000BC264B015C010E94BC266B017C01181464
:1058200019041A041B0434F080E8882E85E2982EAF
:10583000A12CB12C15E0C114FBE4DF06E104F10456
:10584000D9F00CF045C012E030E6C31639E0D306BB
:10585000E104F10489F013E080ECC81682E1D80677
:10586000E104F10449F090EBC91694E0D906E10493
:10587000F10409F044C011E062E572E0CE01019646
:105880000E94B93D105D1887198620EB34E0AE0107
:105890004F5F5F4FC501B4010E94333083E197E051
:1058A0000E94021164E670E080E090E00E947303C1
:1058B000C701B6010E941811C0921901D0921A01B5
:1058C000E0921B01F0921C0181E08093C403A9CAFD
:1058D00017E0C114A1EEDA06E104F10469F218E060
:1058E000C114B2ECDB06B1E0EB06F10429F2C114FD
:1058F000E6E9DE06E104F10411F416E0BDCF14E0A0
:10590000BBCF6AE572E0C8010E94B03D892B91F5DA
:105910000E94CA260E94CA260E94BC261616170696
:105920001806190624F060E875E280E090E02CED9E
:1059300035E040E652E00E94333083E197E00E9478
:10594000021168EC70E080E090E00E94730360E870
:1059500075E280E090E00E94181180E895E2A0E0F6
:10596000B0E08093190190931A01A0931B01B093AA
:105970001C01AACF86E793E095CA6BE672E0C801E6
:105980000E94B03D892B09F024C161EC71E090E0E8
:1059900080E00E946D358C018EE693E001151105C3
:1059A00009F480CA6FE672E0C8010E94B03D892BFD
:1059B00009F0CCC00E94BC26B62EC72ED82E092FC7
:1059C00061EC71E090E080E00E946D357C01009711
:1059D00009F4B9C06DE670E00E94A53D11E0892B85
:1059E00009F410E062E670E0C7010E94A53D892B32
:1059F00009F0126064E770E0C7010E94A53D892BA1
:105A000009F49FC0146061EC71E090E080E00E94B6
:105A10006D35009769F0DC012C91222349F04CE0B0
:105A200050E0BC0186E091E00E94D03D109212014E
:105A30000E94392180918702882309F4F2C910FD60
:105A40000E94A71D11FD0E945B2212FD0E9482226E
:105A500010931F038B2D9C2DAD2DB02F84369105F7
:105A6000A105B10524F484E690E0A0E0B0E08093C5
:105A7000150190931601A0931701B09318016EEED3
:105A800074E286E091E00E94BF3081113AC047E1A4
:105A900066E071E0CE0101960E946225EA8DFB8DE1
:105AA000309779F18581882361F16DE473E0CE014F
:105AB00001960E94B80380911F0380FF06C067E330
:105AC00073E0CE0101960E94B80380911F0381FF0D
:105AD00006C06CE273E0CE0101960E94B80380918B
